{"so|cash/src/utilities/htlc-payments.sol":{"HTLCPaymentCapacity":{"abi":[{"anonymous":false,"inputs":[{"indexed":true,"internalType":"bytes32","name":"id","type":"bytes32"},{"indexed":true,"internalType":"bytes32","name":"hashlockPaid","type":"bytes32"},{"components":[{"components":[{"internalType":"contract ISoCashAccount","name":"account","type":"address"},{"internalType":"BIC","name":"bic","type":"bytes11"},{"internalType":"IBAN","name":"iban","type":"bytes32"}],"internalType":"struct RecipentInfo","name":"recipient","type":"tuple"},{"internalType":"uint256","name":"amount","type":"uint256"},{"internalType":"uint256","name":"deadline","type":"uint256"},{"internalType":"bytes32","name":"hashlockPaid","type":"bytes32"},{"internalType":"bytes32","name":"hashlockCancel","type":"bytes32"},{"internalType":"string","name":"opaque","type":"string"},{"internalType":"enum IHTLCPayment.HTLCState","name":"state","type":"uint8"}],"indexed":false,"internalType":"struct IHTLCPayment.HTLC","name":"htlc","type":"tuple"}],"name":"HTLCPaymentCreated","type":"event"},{"anonymous":false,"inputs":[{"indexed":true,"internalType":"bytes32","name":"id","type":"bytes32"},{"indexed":false,"internalType":"uint256","name":"amount","type":"uint256"},{"indexed":false,"internalType":"uint256","name":"deadline","type":"uint256"},{"indexed":false,"internalType":"string","name":"usingSecret","type":"string"},{"indexed":false,"internalType":"string","name":"opaque","type":"string"},{"indexed":false,"internalType":"bool","name":"cancelled","type":"bool"}],"name":"HTLCPaymentRemoved","type":"event"},{"inputs":[{"internalType":"bytes32","name":"id","type":"bytes32"}],"name":"getHTLCPayment","outputs":[{"components":[{"components":[{"internalType":"contract ISoCashAccount","name":"account","type":"address"},{"internalType":"BIC","name":"bic","type":"bytes11"},{"internalType":"IBAN","name":"iban","type":"bytes32"}],"internalType":"struct RecipentInfo","name":"recipient","type":"tuple"},{"internalType":"uint256","name":"amount","type":"uint256"},{"internalType":"uint256","name":"deadline","type":"uint256"},{"internalType":"bytes32","name":"hashlockPaid","type":"bytes32"},{"internalType":"bytes32","name":"hashlockCancel","type":"bytes32"},{"internalType":"string","name":"opaque","type":"string"},{"internalType":"enum IHTLCPayment.HTLCState","name":"state","type":"uint8"}],"internalType":"struct IHTLCPayment.HTLC","name":"","type":"tuple"}],"stateMutability":"view","type":"function"},{"inputs":[{"internalType":"bytes32","name":"id","type":"bytes32"},{"internalType":"string","name":"secret","type":"string"}],"name":"verifyHTLC","outputs":[{"internalType":"bool","name":"ok","type":"bool"},{"internalType":"string","name":"reason","type":"string"}],"stateMutability":"view","type":"function"},{"inputs":[{"internalType":"bytes32","name":"id","type":"bytes32"},{"internalType":"string","name":"secret","type":"string"}],"name":"verifyHTLCCancel","outputs":[{"internalType":"bool","name":"ok","type":"bool"},{"internalType":"string","name":"reason","type":"string"}],"stateMutability":"view","type":"function"}],"evm":{"bytecode":{"linkReferences":{},"object":"608060405260008055348015601357600080fd5b50610d12806100236000396000f3fe608060405234801561001057600080fd5b50600436106100415760003560e01c80631640968214610046578063777b71ff14610077578063ffd15035146100a7575b600080fd5b610060600480360381019061005b91906106af565b6100d8565b60405161006e9291906107ba565b60405180910390f35b610091600480360381019061008c91906107ea565b610207565b60405161009e9190610acd565b60405180910390f35b6100c160048036038101906100bc91906106af565b6103e4565b6040516100cf9291906107ba565b60405180910390f35b6000606060006001600087815260200190815260200160002090506000801b816004015403610126576000604051806060016040528060288152602001610c486028913992509250506101ff565b600042826003015411159050600060028787604051602001610149929190610b2e565b6040516020818303038152906040526040516101659190610b8e565b602060405180830381855afa158015610182573d6000803e3d6000fd5b5050506040513d601f19601f820116820180604052508101906101a59190610bba565b8360050154149050811580156101b9575080155b156101e5576000604051806060016040528060378152602001610c7060379139945094505050506101ff565b600160405180602001604052806000815250945094505050505b935093915050565b61020f61055d565b600160008381526020019081526020016000206040518060e0016040529081600082016040518060600160405290816000820160009054906101000a900473ffffffffffffffffffffffffffffffffffffffff1673ffffffffffffffffffffffffffffffffffffffff1673ffffffffffffffffffffffffffffffffffffffff1681526020016000820160149054906101000a900460a81b74ffffffffffffffffffffffffffffffffffffffffff191674ffffffffffffffffffffffffffffffffffffffffff1916815260200160018201548152505081526020016002820154815260200160038201548152602001600482015481526020016005820154815260200160068201805461032090610c16565b80601f016020809104026020016040519081016040528092919081815260200182805461034c90610c16565b80156103995780601f1061036e57610100808354040283529160200191610399565b820191906000526020600020905b81548152906001019060200180831161037c57829003601f168201915b505050505081526020016007820160009054906101000a900460ff1660028111156103c7576103c66109b8565b5b60028111156103d9576103d86109b8565b5b815250509050919050565b6000606060006001600087815260200190815260200160002090506000801b816004015403610432576000604051806060016040528060368152602001610ca7603691399250925050610555565b42816003015410156104805760006040518060400160405280601681526020017f48544c433a20646561646c696e652065787069726564000000000000000000008152509250925050610555565b60028585604051602001610495929190610b2e565b6040516020818303038152906040526040516104b19190610b8e565b602060405180830381855afa1580156104ce573d6000803e3d6000fd5b5050506040513d601f19601f820116820180604052508101906104f19190610bba565b81600401541461053d5760006040518060400160405280601581526020017f48544c433a20736563726574206d69736d6174636800000000000000000000008152509250925050610555565b60016040518060200160405280600081525092509250505b935093915050565b6040518060e001604052806105706105b8565b81526020016000815260200160008152602001600080191681526020016000801916815260200160608152602001600060028111156105b2576105b16109b8565b5b81525090565b6040518060600160405280600073ffffffffffffffffffffffffffffffffffffffff168152602001600074ffffffffffffffffffffffffffffffffffffffffff19168152602001600080191681525090565b600080fd5b600080fd5b6000819050919050565b61062781610614565b811461063257600080fd5b50565b6000813590506106448161061e565b92915050565b600080fd5b600080fd5b600080fd5b60008083601f84011261066f5761066e61064a565b5b8235905067ffffffffffffffff81111561068c5761068b61064f565b5b6020830191508360018202830111156106a8576106a7610654565b5b9250929050565b6000806000604084860312156106c8576106c761060a565b5b60006106d686828701610635565b935050602084013567ffffffffffffffff8111156106f7576106f661060f565b5b61070386828701610659565b92509250509250925092565b60008115159050919050565b6107248161070f565b82525050565b600081519050919050565b600082825260208201905092915050565b60005b83811015610764578082015181840152602081019050610749565b60008484015250505050565b6000601f19601f8301169050919050565b600061078c8261072a565b6107968185610735565b93506107a6818560208601610746565b6107af81610770565b840191505092915050565b60006040820190506107cf600083018561071b565b81810360208301526107e18184610781565b90509392505050565b600060208284031215610800576107ff61060a565b5b600061080e84828501610635565b91505092915050565b600073ffffffffffffffffffffffffffffffffffffffff82169050919050565b6000819050919050565b600061085c61085761085284610817565b610837565b610817565b9050919050565b600061086e82610841565b9050919050565b600061088082610863565b9050919050565b61089081610875565b82525050565b60007fffffffffffffffffffffff00000000000000000000000000000000000000000082169050919050565b60006108cd82610896565b9050919050565b6108dd816108c2565b82525050565b60006108ee82610614565b9050919050565b6108fe816108e3565b82525050565b60608201600082015161091a6000850182610887565b50602082015161092d60208501826108d4565b50604082015161094060408501826108f5565b50505050565b6000819050919050565b61095981610946565b82525050565b61096881610614565b82525050565b600082825260208201905092915050565b600061098a8261072a565b610994818561096e565b93506109a4818560208601610746565b6109ad81610770565b840191505092915050565b7f4e487b7100000000000000000000000000000000000000000000000000000000600052602160045260246000fd5b600381106109f8576109f76109b8565b5b50565b6000819050610a09826109e7565b919050565b6000610a19826109fb565b9050919050565b610a2981610a0e565b82525050565b600061012083016000830151610a486000860182610904565b506020830151610a5b6060860182610950565b506040830151610a6e6080860182610950565b506060830151610a8160a086018261095f565b506080830151610a9460c086018261095f565b5060a083015184820360e0860152610aac828261097f565b91505060c0830151610ac2610100860182610a20565b508091505092915050565b60006020820190508181036000830152610ae78184610a2f565b905092915050565b600081905092915050565b82818337600083830152505050565b6000610b158385610aef565b9350610b22838584610afa565b82840190509392505050565b6000610b3b828486610b09565b91508190509392505050565b600081519050919050565b600081905092915050565b6000610b6882610b47565b610b728185610b52565b9350610b82818560208601610746565b80840191505092915050565b6000610b9a8284610b5d565b915081905092915050565b600081519050610bb48161061e565b92915050565b600060208284031215610bd057610bcf61060a565b5b6000610bde84828501610ba5565b91505092915050565b7f4e487b7100000000000000000000000000000000000000000000000000000000600052602260045260246000fd5b60006002820490506001821680610c2e57607f821691505b602082108103610c4157610c40610be7565b5b5091905056fe48544c433a20696e76616c6964206964206f72206465627420616c726561647920636c656172656448544c433a20646561646c696e65206e6f74207965742065787069726564206f7220696e76616c69642063616e63656c2073656372657448544c433a20696e76616c6964206964206f72206465627420616c726561647920636c6561726564207768696c6520636c6f73696e67a264697066735822122011afe8f16e901d20fb515df6a79009318e1a09e4001c6a963c642a36a7ba25a264736f6c634300081b0033","opcodes":"PUSH1 0x80 PUSH1 0x40 MSTORE PUSH1 0x0 DUP1 SSTORE CALLVALUE DUP1 ISZERO PUSH1 0x13 JUMPI PUSH1 0x0 DUP1 REVERT JUMPDEST POP PUSH2 0xD12 DUP1 PUSH2 0x23 PUSH1 0x0 CODECOPY PUSH1 0x0 RETURN INVALID PUSH1 0x80 PUSH1 0x40 MSTORE CALLVALUE DUP1 ISZERO PUSH2 0x10 JUMPI PUSH1 0x0 DUP1 REVERT JUMPDEST POP PUSH1 0x4 CALLDATASIZE LT PUSH2 0x41 JUMPI PUSH1 0x0 CALLDATALOAD PUSH1 0xE0 SHR DUP1 PUSH4 0x16409682 EQ PUSH2 0x46 JUMPI DUP1 PUSH4 0x777B71FF EQ PUSH2 0x77 JUMPI DUP1 PUSH4 0xFFD15035 EQ PUSH2 0xA7 JUMPI JUMPDEST PUSH1 0x0 DUP1 REVERT JUMPDEST PUSH2 0x60 PUSH1 0x4 DUP1 CALLDATASIZE SUB DUP2 ADD SWAP1 PUSH2 0x5B SWAP2 SWAP1 PUSH2 0x6AF JUMP JUMPDEST PUSH2 0xD8 JUMP JUMPDEST PUSH1 0x40 MLOAD PUSH2 0x6E SWAP3 SWAP2 SWAP1 PUSH2 0x7BA JUMP JUMPDEST PUSH1 0x40 MLOAD DUP1 SWAP2 SUB SWAP1 RETURN JUMPDEST PUSH2 0x91 PUSH1 0x4 DUP1 CALLDATASIZE SUB DUP2 ADD SWAP1 PUSH2 0x8C SWAP2 SWAP1 PUSH2 0x7EA JUMP JUMPDEST PUSH2 0x207 JUMP JUMPDEST PUSH1 0x40 MLOAD PUSH2 0x9E SWAP2 SWAP1 PUSH2 0xACD JUMP JUMPDEST PUSH1 0x40 MLOAD DUP1 SWAP2 SUB SWAP1 RETURN JUMPDEST PUSH2 0xC1 PUSH1 0x4 DUP1 CALLDATASIZE SUB DUP2 ADD SWAP1 PUSH2 0xBC SWAP2 SWAP1 PUSH2 0x6AF JUMP JUMPDEST PUSH2 0x3E4 JUMP JUMPDEST PUSH1 0x40 MLOAD PUSH2 0xCF SWAP3 SWAP2 SWAP1 PUSH2 0x7BA JUMP JUMPDEST PUSH1 0x40 MLOAD DUP1 SWAP2 SUB SWAP1 RETURN JUMPDEST PUSH1 0x0 PUSH1 0x60 PUSH1 0x0 PUSH1 0x1 PUSH1 0x0 DUP8 DUP2 MSTORE PUSH1 0x20 ADD SWAP1 DUP2 MSTORE PUSH1 0x20 ADD PUSH1 0x0 KECCAK256 SWAP1 POP PUSH1 0x0 DUP1 SHL DUP2 PUSH1 0x4 ADD SLOAD SUB PUSH2 0x126 JUMPI PUSH1 0x0 PUSH1 0x40 MLOAD DUP1 PUSH1 0x60 ADD PUSH1 0x40 MSTORE DUP1 PUSH1 0x28 DUP2 MSTORE PUSH1 0x20 ADD PUSH2 0xC48 PUSH1 0x28 SWAP2 CODECOPY SWAP3 POP SWAP3 POP POP PUSH2 0x1FF JUMP JUMPDEST PUSH1 0x0 TIMESTAMP DUP3 PUSH1 0x3 ADD SLOAD GT ISZERO SWAP1 POP PUSH1 0x0 PUSH1 0x2 DUP8 DUP8 PUSH1 0x40 MLOAD PUSH1 0x20 ADD PUSH2 0x149 SWAP3 SWAP2 SWAP1 PUSH2 0xB2E JUMP JUMPDEST PUSH1 0x40 MLOAD PUSH1 0x20 DUP2 DUP4 SUB SUB DUP2 MSTORE SWAP1 PUSH1 0x40 MSTORE PUSH1 0x40 MLOAD PUSH2 0x165 SWAP2 SWAP1 PUSH2 0xB8E JUMP JUMPDEST PUSH1 0x20 PUSH1 0x40 MLOAD DUP1 DUP4 SUB DUP2 DUP6 GAS STATICCALL ISZERO DUP1 ISZERO PUSH2 0x182 JUMPI RETURNDATASIZE PUSH1 0x0 DUP1 RETURNDATACOPY RETURNDATASIZE PUSH1 0x0 REVERT JUMPDEST POP POP POP PUSH1 0x40 MLOAD RETURNDATASIZE PUSH1 0x1F NOT PUSH1 0x1F DUP3 ADD AND DUP3 ADD DUP1 PUSH1 0x40 MSTORE POP DUP2 ADD SWAP1 PUSH2 0x1A5 SWAP2 SWAP1 PUSH2 0xBBA JUMP JUMPDEST DUP4 PUSH1 0x5 ADD SLOAD EQ SWAP1 POP DUP2 ISZERO DUP1 ISZERO PUSH2 0x1B9 JUMPI POP DUP1 ISZERO JUMPDEST ISZERO PUSH2 0x1E5 JUMPI PUSH1 0x0 PUSH1 0x40 MLOAD DUP1 PUSH1 0x60 ADD PUSH1 0x40 MSTORE DUP1 PUSH1 0x37 DUP2 MSTORE PUSH1 0x20 ADD PUSH2 0xC70 PUSH1 0x37 SWAP2 CODECOPY SWAP5 POP SWAP5 POP POP POP POP PUSH2 0x1FF JUMP JUMPDEST PUSH1 0x1 PUSH1 0x40 MLOAD DUP1 PUSH1 0x20 ADD PUSH1 0x40 MSTORE DUP1 PUSH1 0x0 DUP2 MSTORE POP SWAP5 POP SWAP5 POP POP POP POP JUMPDEST SWAP4 POP SWAP4 SWAP2 POP POP JUMP JUMPDEST PUSH2 0x20F PUSH2 0x55D JUMP JUMPDEST PUSH1 0x1 PUSH1 0x0 DUP4 DUP2 MSTORE PUSH1 0x20 ADD SWAP1 DUP2 MSTORE PUSH1 0x20 ADD PUSH1 0x0 KECCAK256 PUSH1 0x40 MLOAD DUP1 PUSH1 0xE0 ADD PUSH1 0x40 MSTORE SWAP1 DUP2 PUSH1 0x0 DUP3 ADD PUSH1 0x40 MLOAD DUP1 PUSH1 0x60 ADD PUSH1 0x40 MSTORE SWAP1 DUP2 PUSH1 0x0 DUP3 ADD PUSH1 0x0 SWAP1 SLOAD SWAP1 PUSH2 0x100 EXP SWAP1 DIV PUSH20 0xFFFFFFFFFFFFFFFFFFFFFFFFFFFFFFFFFFFFFFFF AND PUSH20 0xFFFFFFFFFFFFFFFFFFFFFFFFFFFFFFFFFFFFFFFF AND PUSH20 0xFFFFFFFFFFFFFFFFFFFFFFFFFFFFFFFFFFFFFFFF AND DUP2 MSTORE PUSH1 0x20 ADD PUSH1 0x0 DUP3 ADD PUSH1 0x14 SWAP1 SLOAD SWAP1 PUSH2 0x100 EXP SWAP1 DIV PUSH1 0xA8 SHL PUSH21 0xFFFFFFFFFFFFFFFFFFFFFFFFFFFFFFFFFFFFFFFFFF NOT AND PUSH21 0xFFFFFFFFFFFFFFFFFFFFFFFFFFFFFFFFFFFFFFFFFF NOT AND DUP2 MSTORE PUSH1 0x20 ADD PUSH1 0x1 DUP3 ADD SLOAD DUP2 MSTORE POP POP DUP2 MSTORE PUSH1 0x20 ADD PUSH1 0x2 DUP3 ADD SLOAD DUP2 MSTORE PUSH1 0x20 ADD PUSH1 0x3 DUP3 ADD SLOAD DUP2 MSTORE PUSH1 0x20 ADD PUSH1 0x4 DUP3 ADD SLOAD DUP2 MSTORE PUSH1 0x20 ADD PUSH1 0x5 DUP3 ADD SLOAD DUP2 MSTORE PUSH1 0x20 ADD PUSH1 0x6 DUP3 ADD DUP1 SLOAD PUSH2 0x320 SWAP1 PUSH2 0xC16 JUMP JUMPDEST DUP1 PUSH1 0x1F ADD PUSH1 0x20 DUP1 SWAP2 DIV MUL PUSH1 0x20 ADD PUSH1 0x40 MLOAD SWAP1 DUP2 ADD PUSH1 0x40 MSTORE DUP1 SWAP3 SWAP2 SWAP1 DUP2 DUP2 MSTORE PUSH1 0x20 ADD DUP3 DUP1 SLOAD PUSH2 0x34C SWAP1 PUSH2 0xC16 JUMP JUMPDEST DUP1 ISZERO PUSH2 0x399 JUMPI DUP1 PUSH1 0x1F LT PUSH2 0x36E JUMPI PUSH2 0x100 DUP1 DUP4 SLOAD DIV MUL DUP4 MSTORE SWAP2 PUSH1 0x20 ADD SWAP2 PUSH2 0x399 JUMP JUMPDEST DUP3 ADD SWAP2 SWAP1 PUSH1 0x0 MSTORE PUSH1 0x20 PUSH1 0x0 KECCAK256 SWAP1 JUMPDEST DUP2 SLOAD DUP2 MSTORE SWAP1 PUSH1 0x1 ADD SWAP1 PUSH1 0x20 ADD DUP1 DUP4 GT PUSH2 0x37C JUMPI DUP3 SWAP1 SUB PUSH1 0x1F AND DUP3 ADD SWAP2 JUMPDEST POP POP POP POP POP DUP2 MSTORE PUSH1 0x20 ADD PUSH1 0x7 DUP3 ADD PUSH1 0x0 SWAP1 SLOAD SWAP1 PUSH2 0x100 EXP SWAP1 DIV PUSH1 0xFF AND PUSH1 0x2 DUP2 GT ISZERO PUSH2 0x3C7 JUMPI PUSH2 0x3C6 PUSH2 0x9B8 JUMP JUMPDEST JUMPDEST PUSH1 0x2 DUP2 GT ISZERO PUSH2 0x3D9 JUMPI PUSH2 0x3D8 PUSH2 0x9B8 JUMP JUMPDEST JUMPDEST DUP2 MSTORE POP POP SWAP1 POP SWAP2 SWAP1 POP JUMP JUMPDEST PUSH1 0x0 PUSH1 0x60 PUSH1 0x0 PUSH1 0x1 PUSH1 0x0 DUP8 DUP2 MSTORE PUSH1 0x20 ADD SWAP1 DUP2 MSTORE PUSH1 0x20 ADD PUSH1 0x0 KECCAK256 SWAP1 POP PUSH1 0x0 DUP1 SHL DUP2 PUSH1 0x4 ADD SLOAD SUB PUSH2 0x432 JUMPI PUSH1 0x0 PUSH1 0x40 MLOAD DUP1 PUSH1 0x60 ADD PUSH1 0x40 MSTORE DUP1 PUSH1 0x36 DUP2 MSTORE PUSH1 0x20 ADD PUSH2 0xCA7 PUSH1 0x36 SWAP2 CODECOPY SWAP3 POP SWAP3 POP POP PUSH2 0x555 JUMP JUMPDEST TIMESTAMP DUP2 PUSH1 0x3 ADD SLOAD LT ISZERO PUSH2 0x480 JUMPI PUSH1 0x0 PUSH1 0x40 MLOAD DUP1 PUSH1 0x40 ADD PUSH1 0x40 MSTORE DUP1 PUSH1 0x16 DUP2 MSTORE PUSH1 0x20 ADD PUSH32 0x48544C433A20646561646C696E65206578706972656400000000000000000000 DUP2 MSTORE POP SWAP3 POP SWAP3 POP POP PUSH2 0x555 JUMP JUMPDEST PUSH1 0x2 DUP6 DUP6 PUSH1 0x40 MLOAD PUSH1 0x20 ADD PUSH2 0x495 SWAP3 SWAP2 SWAP1 PUSH2 0xB2E JUMP JUMPDEST PUSH1 0x40 MLOAD PUSH1 0x20 DUP2 DUP4 SUB SUB DUP2 MSTORE SWAP1 PUSH1 0x40 MSTORE PUSH1 0x40 MLOAD PUSH2 0x4B1 SWAP2 SWAP1 PUSH2 0xB8E JUMP JUMPDEST PUSH1 0x20 PUSH1 0x40 MLOAD DUP1 DUP4 SUB DUP2 DUP6 GAS STATICCALL ISZERO DUP1 ISZERO PUSH2 0x4CE JUMPI RETURNDATASIZE PUSH1 0x0 DUP1 RETURNDATACOPY RETURNDATASIZE PUSH1 0x0 REVERT JUMPDEST POP POP POP PUSH1 0x40 MLOAD RETURNDATASIZE PUSH1 0x1F NOT PUSH1 0x1F DUP3 ADD AND DUP3 ADD DUP1 PUSH1 0x40 MSTORE POP DUP2 ADD SWAP1 PUSH2 0x4F1 SWAP2 SWAP1 PUSH2 0xBBA JUMP JUMPDEST DUP2 PUSH1 0x4 ADD SLOAD EQ PUSH2 0x53D JUMPI PUSH1 0x0 PUSH1 0x40 MLOAD DUP1 PUSH1 0x40 ADD PUSH1 0x40 MSTORE DUP1 PUSH1 0x15 DUP2 MSTORE PUSH1 0x20 ADD PUSH32 0x48544C433A20736563726574206D69736D617463680000000000000000000000 DUP2 MSTORE POP SWAP3 POP SWAP3 POP POP PUSH2 0x555 JUMP JUMPDEST PUSH1 0x1 PUSH1 0x40 MLOAD DUP1 PUSH1 0x20 ADD PUSH1 0x40 MSTORE DUP1 PUSH1 0x0 DUP2 MSTORE POP SWAP3 POP SWAP3 POP POP JUMPDEST SWAP4 POP SWAP4 SWAP2 POP POP JUMP JUMPDEST PUSH1 0x40 MLOAD DUP1 PUSH1 0xE0 ADD PUSH1 0x40 MSTORE DUP1 PUSH2 0x570 PUSH2 0x5B8 JUMP JUMPDEST DUP2 MSTORE PUSH1 0x20 ADD PUSH1 0x0 DUP2 MSTORE PUSH1 0x20 ADD PUSH1 0x0 DUP2 MSTORE PUSH1 0x20 ADD PUSH1 0x0 DUP1 NOT AND DUP2 MSTORE PUSH1 0x20 ADD PUSH1 0x0 DUP1 NOT AND DUP2 MSTORE PUSH1 0x20 ADD PUSH1 0x60 DUP2 MSTORE PUSH1 0x20 ADD PUSH1 0x0 PUSH1 0x2 DUP2 GT ISZERO PUSH2 0x5B2 JUMPI PUSH2 0x5B1 PUSH2 0x9B8 JUMP JUMPDEST JUMPDEST DUP2 MSTORE POP SWAP1 JUMP JUMPDEST PUSH1 0x40 MLOAD DUP1 PUSH1 0x60 ADD PUSH1 0x40 MSTORE DUP1 PUSH1 0x0 PUSH20 0xFFFFFFFFFFFFFFFFFFFFFFFFFFFFFFFFFFFFFFFF AND DUP2 MSTORE PUSH1 0x20 ADD PUSH1 0x0 PUSH21 0xFFFFFFFFFFFFFFFFFFFFFFFFFFFFFFFFFFFFFFFFFF NOT AND DUP2 MSTORE PUSH1 0x20 ADD PUSH1 0x0 DUP1 NOT AND DUP2 MSTORE POP SWAP1 JUMP JUMPDEST PUSH1 0x0 DUP1 REVERT JUMPDEST PUSH1 0x0 DUP1 REVERT JUMPDEST PUSH1 0x0 DUP2 SWAP1 POP SWAP2 SWAP1 POP JUMP JUMPDEST PUSH2 0x627 DUP2 PUSH2 0x614 JUMP JUMPDEST DUP2 EQ PUSH2 0x632 JUMPI PUSH1 0x0 DUP1 REVERT JUMPDEST POP JUMP JUMPDEST PUSH1 0x0 DUP2 CALLDATALOAD SWAP1 POP PUSH2 0x644 DUP2 PUSH2 0x61E JUMP JUMPDEST SWAP3 SWAP2 POP POP JUMP JUMPDEST PUSH1 0x0 DUP1 REVERT JUMPDEST PUSH1 0x0 DUP1 REVERT JUMPDEST PUSH1 0x0 DUP1 REVERT JUMPDEST PUSH1 0x0 DUP1 DUP4 PUSH1 0x1F DUP5 ADD SLT PUSH2 0x66F JUMPI PUSH2 0x66E PUSH2 0x64A JUMP JUMPDEST JUMPDEST DUP3 CALLDATALOAD SWAP1 POP PUSH8 0xFFFFFFFFFFFFFFFF DUP2 GT ISZERO PUSH2 0x68C JUMPI PUSH2 0x68B PUSH2 0x64F JUMP JUMPDEST JUMPDEST PUSH1 0x20 DUP4 ADD SWAP2 POP DUP4 PUSH1 0x1 DUP3 MUL DUP4 ADD GT ISZERO PUSH2 0x6A8 JUMPI PUSH2 0x6A7 PUSH2 0x654 JUMP JUMPDEST JUMPDEST SWAP3 POP SWAP3 SWAP1 POP JUMP JUMPDEST PUSH1 0x0 DUP1 PUSH1 0x0 PUSH1 0x40 DUP5 DUP7 SUB SLT ISZERO PUSH2 0x6C8 JUMPI PUSH2 0x6C7 PUSH2 0x60A JUMP JUMPDEST JUMPDEST PUSH1 0x0 PUSH2 0x6D6 DUP7 DUP3 DUP8 ADD PUSH2 0x635 JUMP JUMPDEST SWAP4 POP POP PUSH1 0x20 DUP5 ADD CALLDATALOAD PUSH8 0xFFFFFFFFFFFFFFFF DUP2 GT ISZERO PUSH2 0x6F7 JUMPI PUSH2 0x6F6 PUSH2 0x60F JUMP JUMPDEST JUMPDEST PUSH2 0x703 DUP7 DUP3 DUP8 ADD PUSH2 0x659 JUMP JUMPDEST SWAP3 POP SWAP3 POP POP SWAP3 POP SWAP3 POP SWAP3 JUMP JUMPDEST PUSH1 0x0 DUP2 ISZERO ISZERO SWAP1 POP SWAP2 SWAP1 POP JUMP JUMPDEST PUSH2 0x724 DUP2 PUSH2 0x70F JUMP JUMPDEST DUP3 MSTORE POP POP JUMP JUMPDEST PUSH1 0x0 DUP2 MLOAD SWAP1 POP SWAP2 SWAP1 POP JUMP JUMPDEST PUSH1 0x0 DUP3 DUP3 MSTORE PUSH1 0x20 DUP3 ADD SWAP1 POP SWAP3 SWAP2 POP POP JUMP JUMPDEST PUSH1 0x0 JUMPDEST DUP4 DUP2 LT ISZERO PUSH2 0x764 JUMPI DUP1 DUP3 ADD MLOAD DUP2 DUP5 ADD MSTORE PUSH1 0x20 DUP2 ADD SWAP1 POP PUSH2 0x749 JUMP JUMPDEST PUSH1 0x0 DUP5 DUP5 ADD MSTORE POP POP POP POP JUMP JUMPDEST PUSH1 0x0 PUSH1 0x1F NOT PUSH1 0x1F DUP4 ADD AND SWAP1 POP SWAP2 SWAP1 POP JUMP JUMPDEST PUSH1 0x0 PUSH2 0x78C DUP3 PUSH2 0x72A JUMP JUMPDEST PUSH2 0x796 DUP2 DUP6 PUSH2 0x735 JUMP JUMPDEST SWAP4 POP PUSH2 0x7A6 DUP2 DUP6 PUSH1 0x20 DUP7 ADD PUSH2 0x746 JUMP JUMPDEST PUSH2 0x7AF DUP2 PUSH2 0x770 JUMP JUMPDEST DUP5 ADD SWAP2 POP POP SWAP3 SWAP2 POP POP JUMP JUMPDEST PUSH1 0x0 PUSH1 0x40 DUP3 ADD SWAP1 POP PUSH2 0x7CF PUSH1 0x0 DUP4 ADD DUP6 PUSH2 0x71B JUMP JUMPDEST DUP2 DUP2 SUB PUSH1 0x20 DUP4 ADD MSTORE PUSH2 0x7E1 DUP2 DUP5 PUSH2 0x781 JUMP JUMPDEST SWAP1 POP SWAP4 SWAP3 POP POP POP JUMP JUMPDEST PUSH1 0x0 PUSH1 0x20 DUP3 DUP5 SUB SLT ISZERO PUSH2 0x800 JUMPI PUSH2 0x7FF PUSH2 0x60A JUMP JUMPDEST JUMPDEST PUSH1 0x0 PUSH2 0x80E DUP5 DUP3 DUP6 ADD PUSH2 0x635 JUMP JUMPDEST SWAP2 POP POP SWAP3 SWAP2 POP POP JUMP JUMPDEST PUSH1 0x0 PUSH20 0xFFFFFFFFFFFFFFFFFFFFFFFFFFFFFFFFFFFFFFFF DUP3 AND SWAP1 POP SWAP2 SWAP1 POP JUMP JUMPDEST PUSH1 0x0 DUP2 SWAP1 POP SWAP2 SWAP1 POP JUMP JUMPDEST PUSH1 0x0 PUSH2 0x85C PUSH2 0x857 PUSH2 0x852 DUP5 PUSH2 0x817 JUMP JUMPDEST PUSH2 0x837 JUMP JUMPDEST PUSH2 0x817 JUMP JUMPDEST SWAP1 POP SWAP2 SWAP1 POP JUMP JUMPDEST PUSH1 0x0 PUSH2 0x86E DUP3 PUSH2 0x841 JUMP JUMPDEST SWAP1 POP SWAP2 SWAP1 POP JUMP JUMPDEST PUSH1 0x0 PUSH2 0x880 DUP3 PUSH2 0x863 JUMP JUMPDEST SWAP1 POP SWAP2 SWAP1 POP JUMP JUMPDEST PUSH2 0x890 DUP2 PUSH2 0x875 JUMP JUMPDEST DUP3 MSTORE POP POP JUMP JUMPDEST PUSH1 0x0 PUSH32 0xFFFFFFFFFFFFFFFFFFFFFF000000000000000000000000000000000000000000 DUP3 AND SWAP1 POP SWAP2 SWAP1 POP JUMP JUMPDEST PUSH1 0x0 PUSH2 0x8CD DUP3 PUSH2 0x896 JUMP JUMPDEST SWAP1 POP SWAP2 SWAP1 POP JUMP JUMPDEST PUSH2 0x8DD DUP2 PUSH2 0x8C2 JUMP JUMPDEST DUP3 MSTORE POP POP JUMP JUMPDEST PUSH1 0x0 PUSH2 0x8EE DUP3 PUSH2 0x614 JUMP JUMPDEST SWAP1 POP SWAP2 SWAP1 POP JUMP JUMPDEST PUSH2 0x8FE DUP2 PUSH2 0x8E3 JUMP JUMPDEST DUP3 MSTORE POP POP JUMP JUMPDEST PUSH1 0x60 DUP3 ADD PUSH1 0x0 DUP3 ADD MLOAD PUSH2 0x91A PUSH1 0x0 DUP6 ADD DUP3 PUSH2 0x887 JUMP JUMPDEST POP PUSH1 0x20 DUP3 ADD MLOAD PUSH2 0x92D PUSH1 0x20 DUP6 ADD DUP3 PUSH2 0x8D4 JUMP JUMPDEST POP PUSH1 0x40 DUP3 ADD MLOAD PUSH2 0x940 PUSH1 0x40 DUP6 ADD DUP3 PUSH2 0x8F5 JUMP JUMPDEST POP POP POP POP JUMP JUMPDEST PUSH1 0x0 DUP2 SWAP1 POP SWAP2 SWAP1 POP JUMP JUMPDEST PUSH2 0x959 DUP2 PUSH2 0x946 JUMP JUMPDEST DUP3 MSTORE POP POP JUMP JUMPDEST PUSH2 0x968 DUP2 PUSH2 0x614 JUMP JUMPDEST DUP3 MSTORE POP POP JUMP JUMPDEST PUSH1 0x0 DUP3 DUP3 MSTORE PUSH1 0x20 DUP3 ADD SWAP1 POP SWAP3 SWAP2 POP POP JUMP JUMPDEST PUSH1 0x0 PUSH2 0x98A DUP3 PUSH2 0x72A JUMP JUMPDEST PUSH2 0x994 DUP2 DUP6 PUSH2 0x96E JUMP JUMPDEST SWAP4 POP PUSH2 0x9A4 DUP2 DUP6 PUSH1 0x20 DUP7 ADD PUSH2 0x746 JUMP JUMPDEST PUSH2 0x9AD DUP2 PUSH2 0x770 JUMP JUMPDEST DUP5 ADD SWAP2 POP POP SWAP3 SWAP2 POP POP JUMP JUMPDEST PUSH32 0x4E487B7100000000000000000000000000000000000000000000000000000000 PUSH1 0x0 MSTORE PUSH1 0x21 PUSH1 0x4 MSTORE PUSH1 0x24 PUSH1 0x0 REVERT JUMPDEST PUSH1 0x3 DUP2 LT PUSH2 0x9F8 JUMPI PUSH2 0x9F7 PUSH2 0x9B8 JUMP JUMPDEST JUMPDEST POP JUMP JUMPDEST PUSH1 0x0 DUP2 SWAP1 POP PUSH2 0xA09 DUP3 PUSH2 0x9E7 JUMP JUMPDEST SWAP2 SWAP1 POP JUMP JUMPDEST PUSH1 0x0 PUSH2 0xA19 DUP3 PUSH2 0x9FB JUMP JUMPDEST SWAP1 POP SWAP2 SWAP1 POP JUMP JUMPDEST PUSH2 0xA29 DUP2 PUSH2 0xA0E JUMP JUMPDEST DUP3 MSTORE POP POP JUMP JUMPDEST PUSH1 0x0 PUSH2 0x120 DUP4 ADD PUSH1 0x0 DUP4 ADD MLOAD PUSH2 0xA48 PUSH1 0x0 DUP7 ADD DUP3 PUSH2 0x904 JUMP JUMPDEST POP PUSH1 0x20 DUP4 ADD MLOAD PUSH2 0xA5B PUSH1 0x60 DUP7 ADD DUP3 PUSH2 0x950 JUMP JUMPDEST POP PUSH1 0x40 DUP4 ADD MLOAD PUSH2 0xA6E PUSH1 0x80 DUP7 ADD DUP3 PUSH2 0x950 JUMP JUMPDEST POP PUSH1 0x60 DUP4 ADD MLOAD PUSH2 0xA81 PUSH1 0xA0 DUP7 ADD DUP3 PUSH2 0x95F JUMP JUMPDEST POP PUSH1 0x80 DUP4 ADD MLOAD PUSH2 0xA94 PUSH1 0xC0 DUP7 ADD DUP3 PUSH2 0x95F JUMP JUMPDEST POP PUSH1 0xA0 DUP4 ADD MLOAD DUP5 DUP3 SUB PUSH1 0xE0 DUP7 ADD MSTORE PUSH2 0xAAC DUP3 DUP3 PUSH2 0x97F JUMP JUMPDEST SWAP2 POP POP PUSH1 0xC0 DUP4 ADD MLOAD PUSH2 0xAC2 PUSH2 0x100 DUP7 ADD DUP3 PUSH2 0xA20 JUMP JUMPDEST POP DUP1 SWAP2 POP POP SWAP3 SWAP2 POP POP JUMP JUMPDEST PUSH1 0x0 PUSH1 0x20 DUP3 ADD SWAP1 POP DUP2 DUP2 SUB PUSH1 0x0 DUP4 ADD MSTORE PUSH2 0xAE7 DUP2 DUP5 PUSH2 0xA2F JUMP JUMPDEST SWAP1 POP SWAP3 SWAP2 POP POP JUMP JUMPDEST PUSH1 0x0 DUP2 SWAP1 POP SWAP3 SWAP2 POP POP JUMP JUMPDEST DUP3 DUP2 DUP4 CALLDATACOPY PUSH1 0x0 DUP4 DUP4 ADD MSTORE POP POP POP JUMP JUMPDEST PUSH1 0x0 PUSH2 0xB15 DUP4 DUP6 PUSH2 0xAEF JUMP JUMPDEST SWAP4 POP PUSH2 0xB22 DUP4 DUP6 DUP5 PUSH2 0xAFA JUMP JUMPDEST DUP3 DUP5 ADD SWAP1 POP SWAP4 SWAP3 POP POP POP JUMP JUMPDEST PUSH1 0x0 PUSH2 0xB3B DUP3 DUP5 DUP7 PUSH2 0xB09 JUMP JUMPDEST SWAP2 POP DUP2 SWAP1 POP SWAP4 SWAP3 POP POP POP JUMP JUMPDEST PUSH1 0x0 DUP2 MLOAD SWAP1 POP SWAP2 SWAP1 POP JUMP JUMPDEST PUSH1 0x0 DUP2 SWAP1 POP SWAP3 SWAP2 POP POP JUMP JUMPDEST PUSH1 0x0 PUSH2 0xB68 DUP3 PUSH2 0xB47 JUMP JUMPDEST PUSH2 0xB72 DUP2 DUP6 PUSH2 0xB52 JUMP JUMPDEST SWAP4 POP PUSH2 0xB82 DUP2 DUP6 PUSH1 0x20 DUP7 ADD PUSH2 0x746 JUMP JUMPDEST DUP1 DUP5 ADD SWAP2 POP POP SWAP3 SWAP2 POP POP JUMP JUMPDEST PUSH1 0x0 PUSH2 0xB9A DUP3 DUP5 PUSH2 0xB5D JUMP JUMPDEST SWAP2 POP DUP2 SWAP1 POP SWAP3 SWAP2 POP POP JUMP JUMPDEST PUSH1 0x0 DUP2 MLOAD SWAP1 POP PUSH2 0xBB4 DUP2 PUSH2 0x61E JUMP JUMPDEST SWAP3 SWAP2 POP POP JUMP JUMPDEST PUSH1 0x0 PUSH1 0x20 DUP3 DUP5 SUB SLT ISZERO PUSH2 0xBD0 JUMPI PUSH2 0xBCF PUSH2 0x60A JUMP JUMPDEST JUMPDEST PUSH1 0x0 PUSH2 0xBDE DUP5 DUP3 DUP6 ADD PUSH2 0xBA5 JUMP JUMPDEST SWAP2 POP POP SWAP3 SWAP2 POP POP JUMP JUMPDEST PUSH32 0x4E487B7100000000000000000000000000000000000000000000000000000000 PUSH1 0x0 MSTORE PUSH1 0x22 PUSH1 0x4 MSTORE PUSH1 0x24 PUSH1 0x0 REVERT JUMPDEST PUSH1 0x0 PUSH1 0x2 DUP3 DIV SWAP1 POP PUSH1 0x1 DUP3 AND DUP1 PUSH2 0xC2E JUMPI PUSH1 0x7F DUP3 AND SWAP2 POP JUMPDEST PUSH1 0x20 DUP3 LT DUP2 SUB PUSH2 0xC41 JUMPI PUSH2 0xC40 PUSH2 0xBE7 JUMP JUMPDEST JUMPDEST POP SWAP2 SWAP1 POP JUMP INVALID BASEFEE SLOAD 0x4C NUMBER GASPRICE KECCAK256 PUSH10 0x6E76616C696420696420 PUSH16 0x72206465627420616C72656164792063 PUSH13 0x656172656448544C433A206465 PUSH2 0x646C PUSH10 0x6E65206E6F7420796574 KECCAK256 PUSH6 0x787069726564 KECCAK256 PUSH16 0x7220696E76616C69642063616E63656C KECCAK256 PUSH20 0x656372657448544C433A20696E76616C69642069 PUSH5 0x206F722064 PUSH6 0x627420616C72 PUSH6 0x61647920636C PUSH6 0x617265642077 PUSH9 0x696C6520636C6F7369 PUSH15 0x67A264697066735822122011AFE8F1 PUSH15 0x901D20FB515DF6A79009318E1A09E4 STOP SHR PUSH11 0x963C642A36A7BA25A26473 PUSH16 0x6C634300081B00330000000000000000 "},"methodIdentifiers":{"getHTLCPayment(bytes32)":"777b71ff","verifyHTLC(bytes32,string)":"ffd15035","verifyHTLCCancel(bytes32,string)":"16409682"}}}}}