{"so|cash/src/utilities/IBAN.sol":{"IBANCalculator":{"abi":[{"inputs":[{"internalType":"string","name":"bankCode5","type":"string"},{"internalType":"string","name":"branchCode5","type":"string"},{"internalType":"string","name":"accountNumber11","type":"string"}],"name":"calculateFrenchIBAN","outputs":[{"internalType":"string","name":"","type":"string"}],"stateMutability":"pure","type":"function"},{"inputs":[{"internalType":"string","name":"countryCode","type":"string"},{"internalType":"string","name":"bban","type":"string"}],"name":"calculateIBAN","outputs":[{"internalType":"string","name":"","type":"string"}],"stateMutability":"pure","type":"function"},{"inputs":[{"internalType":"string","name":"iban","type":"string"}],"name":"extractFrenchIBAN","outputs":[{"internalType":"bool","name":"valid","type":"bool"},{"internalType":"string","name":"bankCode5","type":"string"},{"internalType":"string","name":"branchCode5","type":"string"},{"internalType":"string","name":"accountNumber11","type":"string"},{"internalType":"uint16","name":"ribKey","type":"uint16"}],"stateMutability":"pure","type":"function"},{"inputs":[{"internalType":"string","name":"bankCode5","type":"string"},{"internalType":"string","name":"branchCode5","type":"string"},{"internalType":"string","name":"accountNumber11","type":"string"}],"name":"frenchBBAN","outputs":[{"internalType":"string","name":"","type":"string"}],"stateMutability":"pure","type":"function"},{"inputs":[{"internalType":"uint256","name":"bankCode","type":"uint256"},{"internalType":"uint256","name":"branchCode","type":"uint256"},{"internalType":"uint256","name":"accountNumber","type":"uint256"}],"name":"frenchRIBKey","outputs":[{"internalType":"uint16","name":"","type":"uint16"}],"stateMutability":"pure","type":"function"},{"inputs":[{"internalType":"string","name":"s","type":"string"}],"name":"frenchStringToNumber","outputs":[{"internalType":"uint256","name":"","type":"uint256"}],"stateMutability":"pure","type":"function"},{"inputs":[{"internalType":"uint256","name":"fakeIbanValue","type":"uint256"}],"name":"ibanKey","outputs":[{"internalType":"uint16","name":"","type":"uint16"}],"stateMutability":"pure","type":"function"},{"inputs":[{"internalType":"string","name":"s","type":"string"}],"name":"ibanStringToNumber","outputs":[{"internalType":"uint256","name":"","type":"uint256"}],"stateMutability":"pure","type":"function"},{"inputs":[{"internalType":"string","name":"s","type":"string"},{"internalType":"uint8","name":"length","type":"uint8"}],"name":"padWithZeros","outputs":[{"internalType":"string","name":"","type":"string"}],"stateMutability":"pure","type":"function"},{"inputs":[{"internalType":"uint256","name":"v","type":"uint256"}],"name":"uintToString","outputs":[{"internalType":"string","name":"str","type":"string"}],"stateMutability":"pure","type":"function"}],"evm":{"bytecode":{"linkReferences":{},"object":"6080604052348015600f57600080fd5b50611d178061001f6000396000f3fe608060405234801561001057600080fd5b506004361061009e5760003560e01c80639c6497a8116100665780639c6497a814610193578063af3da957146101c3578063b7f25bfe146101f3578063e939567914610227578063fa09eae1146102575761009e565b80632dccf56a146100a3578063342cb582146100d35780634a534937146101035780636e619ebb14610133578063830a35bf14610163575b600080fd5b6100bd60048036038101906100b891906112ef565b610287565b6040516100ca91906113e6565b60405180910390f35b6100ed60048036038101906100e89190611408565b610314565b6040516100fa919061146a565b60405180910390f35b61011d600480360381019061011891906114b1565b61044b565b60405161012a91906114fb565b60405180910390f35b61014d60048036038101906101489190611516565b610472565b60405161015a91906114fb565b60405180910390f35b61017d600480360381019061017891906115a2565b6104d8565b60405161018a91906113e6565b60405180910390f35b6101ad60048036038101906101a891906115fe565b6105d6565b6040516101ba91906113e6565b60405180910390f35b6101dd60048036038101906101d891906115fe565b610672565b6040516101ea91906113e6565b60405180910390f35b61020d60048036038101906102089190611408565b6106cc565b60405161021e9594939291906116c0565b60405180910390f35b610241600480360381019061023c91906114b1565b610def565b60405161024e91906113e6565b60405180910390f35b610271600480360381019061026c9190611408565b61100a565b60405161027e919061146a565b60405180910390f35b60606000828460405160200161029e9291906117b0565b604051602081830303815290604052905060006102ba82610314565b905060006102c78261044b565b905060006102e26102db8361ffff16610def565b60026104d8565b90508681876040516020016102f9939291906117df565b60405160208183030381529060405294505050505092915050565b6000806000905060005b835181101561044157600084828151811061033c5761033b611810565b5b602001015160f81c60f81b60f81c905060308160ff161061038257603085838151811061036c5761036b611810565b5b602001015160f81c60f81b60f81c039050610387565b60ff90505b60008160ff161015801561039f575060098160ff1611155b156103c6578060ff16600a846103b5919061186e565b6103bf91906118b0565b9250610433565b60318160ff16101580156103de5750604a8160ff1611155b156103ea576020810390505b60118160ff16101580156104025750602a8160ff1611155b1561041557600a6011820301905061041a565b600090505b60008160ff161115610432578060ff16606484020192505b5b50808060010191505061031e565b5080915050919050565b60008060618361045b9190611913565b60626104679190611944565b905080915050919050565b600080826003610482919061186e565b84600f61048f919061186e565b86605961049c919061186e565b6104a691906118b0565b6104b091906118b0565b90506061816104bf9190611913565b60616104cb9190611944565b9050809150509392505050565b60608160ff168351106104ed578290506105d0565b82518203915060008260ff1667ffffffffffffffff811115610512576105116111c4565b5b6040519080825280601f01601f1916602001820160405280156105445781602001600182028036833780820191505090505b50905060005b8360ff168110156105a957603060f81b82828151811061056d5761056c611810565b5b60200101907effffffffffffffffffffffffffffffffffffffffffffffffffffffffffffff1916908160001a905350808060010191505061054a565b5080846040516020016105bd9291906119bf565b6040516020818303038152906040529150505b92915050565b606060006105fd6105e68661100a565b6105ef8661100a565b6105f88661100a565b610472565b905061060a8560056104d8565b94506106178460056104d8565b935061062483600b6104d8565b9250600061063f6106388361ffff16610def565b60026104d8565b90508585858360405160200161065894939291906119e3565b604051602081830303815290604052925050509392505050565b606060006106818585856105d6565b90506106c26040518060400160405280600281526020017f465200000000000000000000000000000000000000000000000000000000000081525082610287565b9150509392505050565b60006060806060600080869050604660f81b7effffffffffffffffffffffffffffffffffffffffffffffffffffffffffffff19168160008151811061071457610713611810565b5b602001015160f81c60f81b7effffffffffffffffffffffffffffffffffffffffffffffffffffffffffffff19161415806107b45750605260f81b7effffffffffffffffffffffffffffffffffffffffffffffffffffffffffffff19168160018151811061078457610783611810565b5b602001015160f81c60f81b7effffffffffffffffffffffffffffffffffffffffffffffffffffffffffffff191614155b156107ff576000806040518060200160405280600081525090604051806020016040528060008152509060405180602001604052806000815250909550955095509550955050610de6565b601b8151101561084f576000806040518060200160405280600081525090604051806020016040528060008152509060405180602001604052806000815250909550955095509550955050610de6565b601b8151111561092b576000601b90505b815181101561092957600060f81b7effffffffffffffffffffffffffffffffffffffffffffffffffffffffffffff19168282815181106108a3576108a2611810565b5b602001015160f81c60f81b7effffffffffffffffffffffffffffffffffffffffffffffffffffffffffffff19161461091c57600080604051806020016040528060008152509060405180602001604052806000815250906040518060200160405280600081525090965096509650965096505050610de6565b8080600101915050610860565b505b60006109938260028151811061094457610943611810565b5b602001015160f81c60f81b8360038151811061096357610962611810565b5b602001015160f81c60f81b60405160200161097f929190611a6e565b604051602081830303815290604052610314565b90506109fb826019815181106109ac576109ab611810565b5b602001015160f81c60f81b83601a815181106109cb576109ca611810565b5b602001015160f81c60f81b6040516020016109e7929190611a6e565b60405160208183030381529060405261100a565b925081600481518110610a1157610a10611810565b5b602001015160f81c60f81b82600581518110610a3057610a2f611810565b5b602001015160f81c60f81b83600681518110610a4f57610a4e611810565b5b602001015160f81c60f81b84600781518110610a6e57610a6d611810565b5b602001015160f81c60f81b85600881518110610a8d57610a8c611810565b5b602001015160f81c60f81b604051602001610aac959493929190611a9a565b604051602081830303815290604052955081600981518110610ad157610ad0611810565b5b602001015160f81c60f81b82600a81518110610af057610aef611810565b5b602001015160f81c60f81b83600b81518110610b0f57610b0e611810565b5b602001015160f81c60f81b84600c81518110610b2e57610b2d611810565b5b602001015160f81c60f81b85600d81518110610b4d57610b4c611810565b5b602001015160f81c60f81b604051602001610b6c959493929190611a9a565b604051602081830303815290604052945081600e81518110610b9157610b90611810565b5b602001015160f81c60f81b82600f81518110610bb057610baf611810565b5b602001015160f81c60f81b83601081518110610bcf57610bce611810565b5b602001015160f81c60f81b84601181518110610bee57610bed611810565b5b602001015160f81c60f81b85601281518110610c0d57610c0c611810565b5b602001015160f81c60f81b86601381518110610c2c57610c2b611810565b5b602001015160f81c60f81b87601481518110610c4b57610c4a611810565b5b602001015160f81c60f81b88601581518110610c6a57610c69611810565b5b602001015160f81c60f81b89601681518110610c8957610c88611810565b5b602001015160f81c60f81b8a601781518110610ca857610ca7611810565b5b602001015160f81c60f81b8b601881518110610cc757610cc6611810565b5b602001015160f81c60f81b604051602001610cec9b9a99989796959493929190611af9565b60405160208183030381529060405293506000610d22610d0b8861100a565b610d148861100a565b610d1d8861100a565b610472565b90508361ffff168161ffff1614610d3f5760009750505050610de6565b600087878786601981518110610d5857610d57611810565b5b602001015160f81c60f81b87601a81518110610d7757610d76611810565b5b602001015160f81c60f81b604051602001610d96959493929190611c0a565b60405160208183030381529060405290506000610db282610314565b90506000610dbf8261044b565b9050848161ffff1614610ddb5760009a50505050505050610de6565b60019a505050505050505b91939590929450565b606060008203610e36576040518060400160405280600181526020017f30000000000000000000000000000000000000000000000000000000000000008152509050611005565b60006064905060008167ffffffffffffffff811115610e5857610e576111c4565b5b6040519080825280601f01601f191660200182016040528015610e8a5781602001600182028036833780820191505090505b50905060005b60008514610f1c576000600a86610ea79190611913565b9050600a86610eb69190611c68565b9550806030610ec591906118b0565b60f81b838380610ed490611c99565b945081518110610ee757610ee6611810565b5b60200101907effffffffffffffffffffffffffffffffffffffffffffffffffffffffffffff1916908160001a90535050610e90565b60008167ffffffffffffffff811115610f3857610f376111c4565b5b6040519080825280601f01601f191660200182016040528015610f6a5781602001600182028036833780820191505090505b50905060005b82811015610ffc578381600185610f879190611944565b610f919190611944565b81518110610fa257610fa1611810565b5b602001015160f81c60f81b828281518110610fc057610fbf611810565b5b60200101907effffffffffffffffffffffffffffffffffffffffffffffffffffffffffffff1916908160001a9053508080600101915050610f70565b50809450505050505b919050565b6000806000905060005b835181101561118b57600084828151811061103257611031611810565b5b602001015160f81c60f81b60f81c905060308160ff161061107857603085838151811061106257611061611810565b5b602001015160f81c60f81b60f81c03905061107d565b60ff90505b60008160ff1610158015611095575060098160ff1611155b156110bc578060ff16600a846110ab919061186e565b6110b591906118b0565b925061117d565b60318160ff16101580156110d45750604a8160ff1611155b156110e0576020810390505b60118160ff16101580156110f8575060228160ff1611155b1561111f57600160096011830360ff1681611116576111156118e4565b5b06019050611164565b60238160ff16101580156111375750602a8160ff1611155b1561115e57600160096010830360ff1681611155576111546118e4565b5b06019050611163565b600090505b5b60008160ff16111561117c578060ff16600a84020192505b5b508080600101915050611014565b5080915050919050565b6000604051905090565b600080fd5b600080fd5b600080fd5b600080fd5b6000601f19601f8301169050919050565b7f4e487b7100000000000000000000000000000000000000000000000000000000600052604160045260246000fd5b6111fc826111b3565b810181811067ffffffffffffffff8211171561121b5761121a6111c4565b5b80604052505050565b600061122e611195565b905061123a82826111f3565b919050565b600067ffffffffffffffff82111561125a576112596111c4565b5b611263826111b3565b9050602081019050919050565b82818337600083830152505050565b600061129261128d8461123f565b611224565b9050828152602081018484840111156112ae576112ad6111ae565b5b6112b9848285611270565b509392505050565b600082601f8301126112d6576112d56111a9565b5b81356112e684826020860161127f565b91505092915050565b600080604083850312156113065761130561119f565b5b600083013567ffffffffffffffff811115611324576113236111a4565b5b611330858286016112c1565b925050602083013567ffffffffffffffff811115611351576113506111a4565b5b61135d858286016112c1565b9150509250929050565b600081519050919050565b600082825260208201905092915050565b60005b838110156113a1578082015181840152602081019050611386565b60008484015250505050565b60006113b882611367565b6113c28185611372565b93506113d2818560208601611383565b6113db816111b3565b840191505092915050565b6000602082019050818103600083015261140081846113ad565b905092915050565b60006020828403121561141e5761141d61119f565b5b600082013567ffffffffffffffff81111561143c5761143b6111a4565b5b611448848285016112c1565b91505092915050565b6000819050919050565b61146481611451565b82525050565b600060208201905061147f600083018461145b565b92915050565b61148e81611451565b811461149957600080fd5b50565b6000813590506114ab81611485565b92915050565b6000602082840312156114c7576114c661119f565b5b60006114d58482850161149c565b91505092915050565b600061ffff82169050919050565b6114f5816114de565b82525050565b600060208201905061151060008301846114ec565b92915050565b60008060006060848603121561152f5761152e61119f565b5b600061153d8682870161149c565b935050602061154e8682870161149c565b925050604061155f8682870161149c565b9150509250925092565b600060ff82169050919050565b61157f81611569565b811461158a57600080fd5b50565b60008135905061159c81611576565b92915050565b600080604083850312156115b9576115b861119f565b5b600083013567ffffffffffffffff8111156115d7576115d66111a4565b5b6115e3858286016112c1565b92505060206115f48582860161158d565b9150509250929050565b6000806000606084860312156116175761161661119f565b5b600084013567ffffffffffffffff811115611635576116346111a4565b5b611641868287016112c1565b935050602084013567ffffffffffffffff811115611662576116616111a4565b5b61166e868287016112c1565b925050604084013567ffffffffffffffff81111561168f5761168e6111a4565b5b61169b868287016112c1565b9150509250925092565b60008115159050919050565b6116ba816116a5565b82525050565b600060a0820190506116d560008301886116b1565b81810360208301526116e781876113ad565b905081810360408301526116fb81866113ad565b9050818103606083015261170f81856113ad565b905061171e60808301846114ec565b9695505050505050565b600081905092915050565b600061173e82611367565b6117488185611728565b9350611758818560208601611383565b80840191505092915050565b7f3030000000000000000000000000000000000000000000000000000000000000600082015250565b600061179a600283611728565b91506117a582611764565b600282019050919050565b60006117bc8285611733565b91506117c88284611733565b91506117d38261178d565b91508190509392505050565b60006117eb8286611733565b91506117f78285611733565b91506118038284611733565b9150819050949350505050565b7f4e487b7100000000000000000000000000000000000000000000000000000000600052603260045260246000fd5b7f4e487b7100000000000000000000000000000000000000000000000000000000600052601160045260246000fd5b600061187982611451565b915061188483611451565b925082820261189281611451565b915082820484148315176118a9576118a861183f565b5b5092915050565b60006118bb82611451565b91506118c683611451565b92508282019050808211156118de576118dd61183f565b5b92915050565b7f4e487b7100000000000000000000000000000000000000000000000000000000600052601260045260246000fd5b600061191e82611451565b915061192983611451565b925082611939576119386118e4565b5b828206905092915050565b600061194f82611451565b915061195a83611451565b92508282039050818111156119725761197161183f565b5b92915050565b600081519050919050565b600081905092915050565b600061199982611978565b6119a38185611983565b93506119b3818560208601611383565b80840191505092915050565b60006119cb828561198e565b91506119d78284611733565b91508190509392505050565b60006119ef8287611733565b91506119fb8286611733565b9150611a078285611733565b9150611a138284611733565b915081905095945050505050565b60007fff0000000000000000000000000000000000000000000000000000000000000082169050919050565b6000819050919050565b611a68611a6382611a21565b611a4d565b82525050565b6000611a7a8285611a57565b600182019150611a8a8284611a57565b6001820191508190509392505050565b6000611aa68288611a57565b600182019150611ab68287611a57565b600182019150611ac68286611a57565b600182019150611ad68285611a57565b600182019150611ae68284611a57565b6001820191508190509695505050505050565b6000611b05828e611a57565b600182019150611b15828d611a57565b600182019150611b25828c611a57565b600182019150611b35828b611a57565b600182019150611b45828a611a57565b600182019150611b558289611a57565b600182019150611b658288611a57565b600182019150611b758287611a57565b600182019150611b858286611a57565b600182019150611b958285611a57565b600182019150611ba58284611a57565b6001820191508190509c9b505050505050505050505050565b7f4652303000000000000000000000000000000000000000000000000000000000600082015250565b6000611bf4600483611728565b9150611bff82611bbe565b600482019050919050565b6000611c168288611733565b9150611c228287611733565b9150611c2e8286611733565b9150611c3a8285611a57565b600182019150611c4a8284611a57565b600182019150611c5982611be7565b91508190509695505050505050565b6000611c7382611451565b9150611c7e83611451565b925082611c8e57611c8d6118e4565b5b828204905092915050565b6000611ca482611451565b91507fffffffffffffffffffffffffffffffffffffffffffffffffffffffffffffffff8203611cd657611cd561183f565b5b60018201905091905056fea264697066735822122058c21a6785bba2c54a50976532d0f5351e518754bb6449f7730dac2d46642efc64736f6c634300081b0033","opcodes":"PUSH1 0x80 PUSH1 0x40 MSTORE CALLVALUE DUP1 ISZERO PUSH1 0xF JUMPI PUSH1 0x0 DUP1 REVERT JUMPDEST POP PUSH2 0x1D17 DUP1 PUSH2 0x1F PUSH1 0x0 CODECOPY PUSH1 0x0 RETURN INVALID PUSH1 0x80 PUSH1 0x40 MSTORE CALLVALUE DUP1 ISZERO PUSH2 0x10 JUMPI PUSH1 0x0 DUP1 REVERT JUMPDEST POP PUSH1 0x4 CALLDATASIZE LT PUSH2 0x9E JUMPI PUSH1 0x0 CALLDATALOAD PUSH1 0xE0 SHR DUP1 PUSH4 0x9C6497A8 GT PUSH2 0x66 JUMPI DUP1 PUSH4 0x9C6497A8 EQ PUSH2 0x193 JUMPI DUP1 PUSH4 0xAF3DA957 EQ PUSH2 0x1C3 JUMPI DUP1 PUSH4 0xB7F25BFE EQ PUSH2 0x1F3 JUMPI DUP1 PUSH4 0xE9395679 EQ PUSH2 0x227 JUMPI DUP1 PUSH4 0xFA09EAE1 EQ PUSH2 0x257 JUMPI PUSH2 0x9E JUMP JUMPDEST DUP1 PUSH4 0x2DCCF56A EQ PUSH2 0xA3 JUMPI DUP1 PUSH4 0x342CB582 EQ PUSH2 0xD3 JUMPI DUP1 PUSH4 0x4A534937 EQ PUSH2 0x103 JUMPI DUP1 PUSH4 0x6E619EBB EQ PUSH2 0x133 JUMPI DUP1 PUSH4 0x830A35BF EQ PUSH2 0x163 JUMPI JUMPDEST PUSH1 0x0 DUP1 REVERT JUMPDEST PUSH2 0xBD PUSH1 0x4 DUP1 CALLDATASIZE SUB DUP2 ADD SWAP1 PUSH2 0xB8 SWAP2 SWAP1 PUSH2 0x12EF JUMP JUMPDEST PUSH2 0x287 JUMP JUMPDEST PUSH1 0x40 MLOAD PUSH2 0xCA SWAP2 SWAP1 PUSH2 0x13E6 JUMP JUMPDEST PUSH1 0x40 MLOAD DUP1 SWAP2 SUB SWAP1 RETURN JUMPDEST PUSH2 0xED PUSH1 0x4 DUP1 CALLDATASIZE SUB DUP2 ADD SWAP1 PUSH2 0xE8 SWAP2 SWAP1 PUSH2 0x1408 JUMP JUMPDEST PUSH2 0x314 JUMP JUMPDEST PUSH1 0x40 MLOAD PUSH2 0xFA SWAP2 SWAP1 PUSH2 0x146A JUMP JUMPDEST PUSH1 0x40 MLOAD DUP1 SWAP2 SUB SWAP1 RETURN JUMPDEST PUSH2 0x11D PUSH1 0x4 DUP1 CALLDATASIZE SUB DUP2 ADD SWAP1 PUSH2 0x118 SWAP2 SWAP1 PUSH2 0x14B1 JUMP JUMPDEST PUSH2 0x44B JUMP JUMPDEST PUSH1 0x40 MLOAD PUSH2 0x12A SWAP2 SWAP1 PUSH2 0x14FB JUMP JUMPDEST PUSH1 0x40 MLOAD DUP1 SWAP2 SUB SWAP1 RETURN JUMPDEST PUSH2 0x14D PUSH1 0x4 DUP1 CALLDATASIZE SUB DUP2 ADD SWAP1 PUSH2 0x148 SWAP2 SWAP1 PUSH2 0x1516 JUMP JUMPDEST PUSH2 0x472 JUMP JUMPDEST PUSH1 0x40 MLOAD PUSH2 0x15A SWAP2 SWAP1 PUSH2 0x14FB JUMP JUMPDEST PUSH1 0x40 MLOAD DUP1 SWAP2 SUB SWAP1 RETURN JUMPDEST PUSH2 0x17D PUSH1 0x4 DUP1 CALLDATASIZE SUB DUP2 ADD SWAP1 PUSH2 0x178 SWAP2 SWAP1 PUSH2 0x15A2 JUMP JUMPDEST PUSH2 0x4D8 JUMP JUMPDEST PUSH1 0x40 MLOAD PUSH2 0x18A SWAP2 SWAP1 PUSH2 0x13E6 JUMP JUMPDEST PUSH1 0x40 MLOAD DUP1 SWAP2 SUB SWAP1 RETURN JUMPDEST PUSH2 0x1AD PUSH1 0x4 DUP1 CALLDATASIZE SUB DUP2 ADD SWAP1 PUSH2 0x1A8 SWAP2 SWAP1 PUSH2 0x15FE JUMP JUMPDEST PUSH2 0x5D6 JUMP JUMPDEST PUSH1 0x40 MLOAD PUSH2 0x1BA SWAP2 SWAP1 PUSH2 0x13E6 JUMP JUMPDEST PUSH1 0x40 MLOAD DUP1 SWAP2 SUB SWAP1 RETURN JUMPDEST PUSH2 0x1DD PUSH1 0x4 DUP1 CALLDATASIZE SUB DUP2 ADD SWAP1 PUSH2 0x1D8 SWAP2 SWAP1 PUSH2 0x15FE JUMP JUMPDEST PUSH2 0x672 JUMP JUMPDEST PUSH1 0x40 MLOAD PUSH2 0x1EA SWAP2 SWAP1 PUSH2 0x13E6 JUMP JUMPDEST PUSH1 0x40 MLOAD DUP1 SWAP2 SUB SWAP1 RETURN JUMPDEST PUSH2 0x20D PUSH1 0x4 DUP1 CALLDATASIZE SUB DUP2 ADD SWAP1 PUSH2 0x208 SWAP2 SWAP1 PUSH2 0x1408 JUMP JUMPDEST PUSH2 0x6CC JUMP JUMPDEST PUSH1 0x40 MLOAD PUSH2 0x21E SWAP6 SWAP5 SWAP4 SWAP3 SWAP2 SWAP1 PUSH2 0x16C0 JUMP JUMPDEST PUSH1 0x40 MLOAD DUP1 SWAP2 SUB SWAP1 RETURN JUMPDEST PUSH2 0x241 PUSH1 0x4 DUP1 CALLDATASIZE SUB DUP2 ADD SWAP1 PUSH2 0x23C SWAP2 SWAP1 PUSH2 0x14B1 JUMP JUMPDEST PUSH2 0xDEF JUMP JUMPDEST PUSH1 0x40 MLOAD PUSH2 0x24E SWAP2 SWAP1 PUSH2 0x13E6 JUMP JUMPDEST PUSH1 0x40 MLOAD DUP1 SWAP2 SUB SWAP1 RETURN JUMPDEST PUSH2 0x271 PUSH1 0x4 DUP1 CALLDATASIZE SUB DUP2 ADD SWAP1 PUSH2 0x26C SWAP2 SWAP1 PUSH2 0x1408 JUMP JUMPDEST PUSH2 0x100A JUMP JUMPDEST PUSH1 0x40 MLOAD PUSH2 0x27E SWAP2 SWAP1 PUSH2 0x146A JUMP JUMPDEST PUSH1 0x40 MLOAD DUP1 SWAP2 SUB SWAP1 RETURN JUMPDEST PUSH1 0x60 PUSH1 0x0 DUP3 DUP5 PUSH1 0x40 MLOAD PUSH1 0x20 ADD PUSH2 0x29E SWAP3 SWAP2 SWAP1 PUSH2 0x17B0 JUMP JUMPDEST PUSH1 0x40 MLOAD PUSH1 0x20 DUP2 DUP4 SUB SUB DUP2 MSTORE SWAP1 PUSH1 0x40 MSTORE SWAP1 POP PUSH1 0x0 PUSH2 0x2BA DUP3 PUSH2 0x314 JUMP JUMPDEST SWAP1 POP PUSH1 0x0 PUSH2 0x2C7 DUP3 PUSH2 0x44B JUMP JUMPDEST SWAP1 POP PUSH1 0x0 PUSH2 0x2E2 PUSH2 0x2DB DUP4 PUSH2 0xFFFF AND PUSH2 0xDEF JUMP JUMPDEST PUSH1 0x2 PUSH2 0x4D8 JUMP JUMPDEST SWAP1 POP DUP7 DUP2 DUP8 PUSH1 0x40 MLOAD PUSH1 0x20 ADD PUSH2 0x2F9 SWAP4 SWAP3 SWAP2 SWAP1 PUSH2 0x17DF JUMP JUMPDEST PUSH1 0x40 MLOAD PUSH1 0x20 DUP2 DUP4 SUB SUB DUP2 MSTORE SWAP1 PUSH1 0x40 MSTORE SWAP5 POP POP POP POP POP SWAP3 SWAP2 POP POP JUMP JUMPDEST PUSH1 0x0 DUP1 PUSH1 0x0 SWAP1 POP PUSH1 0x0 JUMPDEST DUP4 MLOAD DUP2 LT ISZERO PUSH2 0x441 JUMPI PUSH1 0x0 DUP5 DUP3 DUP2 MLOAD DUP2 LT PUSH2 0x33C JUMPI PUSH2 0x33B PUSH2 0x1810 JUMP JUMPDEST JUMPDEST PUSH1 0x20 ADD ADD MLOAD PUSH1 0xF8 SHR PUSH1 0xF8 SHL PUSH1 0xF8 SHR SWAP1 POP PUSH1 0x30 DUP2 PUSH1 0xFF AND LT PUSH2 0x382 JUMPI PUSH1 0x30 DUP6 DUP4 DUP2 MLOAD DUP2 LT PUSH2 0x36C JUMPI PUSH2 0x36B PUSH2 0x1810 JUMP JUMPDEST JUMPDEST PUSH1 0x20 ADD ADD MLOAD PUSH1 0xF8 SHR PUSH1 0xF8 SHL PUSH1 0xF8 SHR SUB SWAP1 POP PUSH2 0x387 JUMP JUMPDEST PUSH1 0xFF SWAP1 POP JUMPDEST PUSH1 0x0 DUP2 PUSH1 0xFF AND LT ISZERO DUP1 ISZERO PUSH2 0x39F JUMPI POP PUSH1 0x9 DUP2 PUSH1 0xFF AND GT ISZERO JUMPDEST ISZERO PUSH2 0x3C6 JUMPI DUP1 PUSH1 0xFF AND PUSH1 0xA DUP5 PUSH2 0x3B5 SWAP2 SWAP1 PUSH2 0x186E JUMP JUMPDEST PUSH2 0x3BF SWAP2 SWAP1 PUSH2 0x18B0 JUMP JUMPDEST SWAP3 POP PUSH2 0x433 JUMP JUMPDEST PUSH1 0x31 DUP2 PUSH1 0xFF AND LT ISZERO DUP1 ISZERO PUSH2 0x3DE JUMPI POP PUSH1 0x4A DUP2 PUSH1 0xFF AND GT ISZERO JUMPDEST ISZERO PUSH2 0x3EA JUMPI PUSH1 0x20 DUP2 SUB SWAP1 POP JUMPDEST PUSH1 0x11 DUP2 PUSH1 0xFF AND LT ISZERO DUP1 ISZERO PUSH2 0x402 JUMPI POP PUSH1 0x2A DUP2 PUSH1 0xFF AND GT ISZERO JUMPDEST ISZERO PUSH2 0x415 JUMPI PUSH1 0xA PUSH1 0x11 DUP3 SUB ADD SWAP1 POP PUSH2 0x41A JUMP JUMPDEST PUSH1 0x0 SWAP1 POP JUMPDEST PUSH1 0x0 DUP2 PUSH1 0xFF AND GT ISZERO PUSH2 0x432 JUMPI DUP1 PUSH1 0xFF AND PUSH1 0x64 DUP5 MUL ADD SWAP3 POP JUMPDEST JUMPDEST POP DUP1 DUP1 PUSH1 0x1 ADD SWAP2 POP POP PUSH2 0x31E JUMP JUMPDEST POP DUP1 SWAP2 POP POP SWAP2 SWAP1 POP JUMP JUMPDEST PUSH1 0x0 DUP1 PUSH1 0x61 DUP4 PUSH2 0x45B SWAP2 SWAP1 PUSH2 0x1913 JUMP JUMPDEST PUSH1 0x62 PUSH2 0x467 SWAP2 SWAP1 PUSH2 0x1944 JUMP JUMPDEST SWAP1 POP DUP1 SWAP2 POP POP SWAP2 SWAP1 POP JUMP JUMPDEST PUSH1 0x0 DUP1 DUP3 PUSH1 0x3 PUSH2 0x482 SWAP2 SWAP1 PUSH2 0x186E JUMP JUMPDEST DUP5 PUSH1 0xF PUSH2 0x48F SWAP2 SWAP1 PUSH2 0x186E JUMP JUMPDEST DUP7 PUSH1 0x59 PUSH2 0x49C SWAP2 SWAP1 PUSH2 0x186E JUMP JUMPDEST PUSH2 0x4A6 SWAP2 SWAP1 PUSH2 0x18B0 JUMP JUMPDEST PUSH2 0x4B0 SWAP2 SWAP1 PUSH2 0x18B0 JUMP JUMPDEST SWAP1 POP PUSH1 0x61 DUP2 PUSH2 0x4BF SWAP2 SWAP1 PUSH2 0x1913 JUMP JUMPDEST PUSH1 0x61 PUSH2 0x4CB SWAP2 SWAP1 PUSH2 0x1944 JUMP JUMPDEST SWAP1 POP DUP1 SWAP2 POP POP SWAP4 SWAP3 POP POP POP JUMP JUMPDEST PUSH1 0x60 DUP2 PUSH1 0xFF AND DUP4 MLOAD LT PUSH2 0x4ED JUMPI DUP3 SWAP1 POP PUSH2 0x5D0 JUMP JUMPDEST DUP3 MLOAD DUP3 SUB SWAP2 POP PUSH1 0x0 DUP3 PUSH1 0xFF AND PUSH8 0xFFFFFFFFFFFFFFFF DUP2 GT ISZERO PUSH2 0x512 JUMPI PUSH2 0x511 PUSH2 0x11C4 JUMP JUMPDEST JUMPDEST PUSH1 0x40 MLOAD SWAP1 DUP1 DUP3 MSTORE DUP1 PUSH1 0x1F ADD PUSH1 0x1F NOT AND PUSH1 0x20 ADD DUP3 ADD PUSH1 0x40 MSTORE DUP1 ISZERO PUSH2 0x544 JUMPI DUP2 PUSH1 0x20 ADD PUSH1 0x1 DUP3 MUL DUP1 CALLDATASIZE DUP4 CALLDATACOPY DUP1 DUP3 ADD SWAP2 POP POP SWAP1 POP JUMPDEST POP SWAP1 POP PUSH1 0x0 JUMPDEST DUP4 PUSH1 0xFF AND DUP2 LT ISZERO PUSH2 0x5A9 JUMPI PUSH1 0x30 PUSH1 0xF8 SHL DUP3 DUP3 DUP2 MLOAD DUP2 LT PUSH2 0x56D JUMPI PUSH2 0x56C PUSH2 0x1810 JUMP JUMPDEST JUMPDEST PUSH1 0x20 ADD ADD SWAP1 PUSH31 0xFFFFFFFFFFFFFFFFFFFFFFFFFFFFFFFFFFFFFFFFFFFFFFFFFFFFFFFFFFFFFF NOT AND SWAP1 DUP2 PUSH1 0x0 BYTE SWAP1 MSTORE8 POP DUP1 DUP1 PUSH1 0x1 ADD SWAP2 POP POP PUSH2 0x54A JUMP JUMPDEST POP DUP1 DUP5 PUSH1 0x40 MLOAD PUSH1 0x20 ADD PUSH2 0x5BD SWAP3 SWAP2 SWAP1 PUSH2 0x19BF JUMP JUMPDEST PUSH1 0x40 MLOAD PUSH1 0x20 DUP2 DUP4 SUB SUB DUP2 MSTORE SWAP1 PUSH1 0x40 MSTORE SWAP2 POP POP JUMPDEST SWAP3 SWAP2 POP POP JUMP JUMPDEST PUSH1 0x60 PUSH1 0x0 PUSH2 0x5FD PUSH2 0x5E6 DUP7 PUSH2 0x100A JUMP JUMPDEST PUSH2 0x5EF DUP7 PUSH2 0x100A JUMP JUMPDEST PUSH2 0x5F8 DUP7 PUSH2 0x100A JUMP JUMPDEST PUSH2 0x472 JUMP JUMPDEST SWAP1 POP PUSH2 0x60A DUP6 PUSH1 0x5 PUSH2 0x4D8 JUMP JUMPDEST SWAP5 POP PUSH2 0x617 DUP5 PUSH1 0x5 PUSH2 0x4D8 JUMP JUMPDEST SWAP4 POP PUSH2 0x624 DUP4 PUSH1 0xB PUSH2 0x4D8 JUMP JUMPDEST SWAP3 POP PUSH1 0x0 PUSH2 0x63F PUSH2 0x638 DUP4 PUSH2 0xFFFF AND PUSH2 0xDEF JUMP JUMPDEST PUSH1 0x2 PUSH2 0x4D8 JUMP JUMPDEST SWAP1 POP DUP6 DUP6 DUP6 DUP4 PUSH1 0x40 MLOAD PUSH1 0x20 ADD PUSH2 0x658 SWAP5 SWAP4 SWAP3 SWAP2 SWAP1 PUSH2 0x19E3 JUMP JUMPDEST PUSH1 0x40 MLOAD PUSH1 0x20 DUP2 DUP4 SUB SUB DUP2 MSTORE SWAP1 PUSH1 0x40 MSTORE SWAP3 POP POP POP SWAP4 SWAP3 POP POP POP JUMP JUMPDEST PUSH1 0x60 PUSH1 0x0 PUSH2 0x681 DUP6 DUP6 DUP6 PUSH2 0x5D6 JUMP JUMPDEST SWAP1 POP PUSH2 0x6C2 PUSH1 0x40 MLOAD DUP1 PUSH1 0x40 ADD PUSH1 0x40 MSTORE DUP1 PUSH1 0x2 DUP2 MSTORE PUSH1 0x20 ADD PUSH32 0x4652000000000000000000000000000000000000000000000000000000000000 DUP2 MSTORE POP DUP3 PUSH2 0x287 JUMP JUMPDEST SWAP2 POP POP SWAP4 SWAP3 POP POP POP JUMP JUMPDEST PUSH1 0x0 PUSH1 0x60 DUP1 PUSH1 0x60 PUSH1 0x0 DUP1 DUP7 SWAP1 POP PUSH1 0x46 PUSH1 0xF8 SHL PUSH31 0xFFFFFFFFFFFFFFFFFFFFFFFFFFFFFFFFFFFFFFFFFFFFFFFFFFFFFFFFFFFFFF NOT AND DUP2 PUSH1 0x0 DUP2 MLOAD DUP2 LT PUSH2 0x714 JUMPI PUSH2 0x713 PUSH2 0x1810 JUMP JUMPDEST JUMPDEST PUSH1 0x20 ADD ADD MLOAD PUSH1 0xF8 SHR PUSH1 0xF8 SHL PUSH31 0xFFFFFFFFFFFFFFFFFFFFFFFFFFFFFFFFFFFFFFFFFFFFFFFFFFFFFFFFFFFFFF NOT AND EQ ISZERO DUP1 PUSH2 0x7B4 JUMPI POP PUSH1 0x52 PUSH1 0xF8 SHL PUSH31 0xFFFFFFFFFFFFFFFFFFFFFFFFFFFFFFFFFFFFFFFFFFFFFFFFFFFFFFFFFFFFFF NOT AND DUP2 PUSH1 0x1 DUP2 MLOAD DUP2 LT PUSH2 0x784 JUMPI PUSH2 0x783 PUSH2 0x1810 JUMP JUMPDEST JUMPDEST PUSH1 0x20 ADD ADD MLOAD PUSH1 0xF8 SHR PUSH1 0xF8 SHL PUSH31 0xFFFFFFFFFFFFFFFFFFFFFFFFFFFFFFFFFFFFFFFFFFFFFFFFFFFFFFFFFFFFFF NOT AND EQ ISZERO JUMPDEST ISZERO PUSH2 0x7FF JUMPI PUSH1 0x0 DUP1 PUSH1 0x40 MLOAD DUP1 PUSH1 0x20 ADD PUSH1 0x40 MSTORE DUP1 PUSH1 0x0 DUP2 MSTORE POP SWAP1 PUSH1 0x40 MLOAD DUP1 PUSH1 0x20 ADD PUSH1 0x40 MSTORE DUP1 PUSH1 0x0 DUP2 MSTORE POP SWAP1 PUSH1 0x40 MLOAD DUP1 PUSH1 0x20 ADD PUSH1 0x40 MSTORE DUP1 PUSH1 0x0 DUP2 MSTORE POP SWAP1 SWAP6 POP SWAP6 POP SWAP6 POP SWAP6 POP SWAP6 POP POP PUSH2 0xDE6 JUMP JUMPDEST PUSH1 0x1B DUP2 MLOAD LT ISZERO PUSH2 0x84F JUMPI PUSH1 0x0 DUP1 PUSH1 0x40 MLOAD DUP1 PUSH1 0x20 ADD PUSH1 0x40 MSTORE DUP1 PUSH1 0x0 DUP2 MSTORE POP SWAP1 PUSH1 0x40 MLOAD DUP1 PUSH1 0x20 ADD PUSH1 0x40 MSTORE DUP1 PUSH1 0x0 DUP2 MSTORE POP SWAP1 PUSH1 0x40 MLOAD DUP1 PUSH1 0x20 ADD PUSH1 0x40 MSTORE DUP1 PUSH1 0x0 DUP2 MSTORE POP SWAP1 SWAP6 POP SWAP6 POP SWAP6 POP SWAP6 POP SWAP6 POP POP PUSH2 0xDE6 JUMP JUMPDEST PUSH1 0x1B DUP2 MLOAD GT ISZERO PUSH2 0x92B JUMPI PUSH1 0x0 PUSH1 0x1B SWAP1 POP JUMPDEST DUP2 MLOAD DUP2 LT ISZERO PUSH2 0x929 JUMPI PUSH1 0x0 PUSH1 0xF8 SHL PUSH31 0xFFFFFFFFFFFFFFFFFFFFFFFFFFFFFFFFFFFFFFFFFFFFFFFFFFFFFFFFFFFFFF NOT AND DUP3 DUP3 DUP2 MLOAD DUP2 LT PUSH2 0x8A3 JUMPI PUSH2 0x8A2 PUSH2 0x1810 JUMP JUMPDEST JUMPDEST PUSH1 0x20 ADD ADD MLOAD PUSH1 0xF8 SHR PUSH1 0xF8 SHL PUSH31 0xFFFFFFFFFFFFFFFFFFFFFFFFFFFFFFFFFFFFFFFFFFFFFFFFFFFFFFFFFFFFFF NOT AND EQ PUSH2 0x91C JUMPI PUSH1 0x0 DUP1 PUSH1 0x40 MLOAD DUP1 PUSH1 0x20 ADD PUSH1 0x40 MSTORE DUP1 PUSH1 0x0 DUP2 MSTORE POP SWAP1 PUSH1 0x40 MLOAD DUP1 PUSH1 0x20 ADD PUSH1 0x40 MSTORE DUP1 PUSH1 0x0 DUP2 MSTORE POP SWAP1 PUSH1 0x40 MLOAD DUP1 PUSH1 0x20 ADD PUSH1 0x40 MSTORE DUP1 PUSH1 0x0 DUP2 MSTORE POP SWAP1 SWAP7 POP SWAP7 POP SWAP7 POP SWAP7 POP SWAP7 POP POP POP PUSH2 0xDE6 JUMP JUMPDEST DUP1 DUP1 PUSH1 0x1 ADD SWAP2 POP POP PUSH2 0x860 JUMP JUMPDEST POP JUMPDEST PUSH1 0x0 PUSH2 0x993 DUP3 PUSH1 0x2 DUP2 MLOAD DUP2 LT PUSH2 0x944 JUMPI PUSH2 0x943 PUSH2 0x1810 JUMP JUMPDEST JUMPDEST PUSH1 0x20 ADD ADD MLOAD PUSH1 0xF8 SHR PUSH1 0xF8 SHL DUP4 PUSH1 0x3 DUP2 MLOAD DUP2 LT PUSH2 0x963 JUMPI PUSH2 0x962 PUSH2 0x1810 JUMP JUMPDEST JUMPDEST PUSH1 0x20 ADD ADD MLOAD PUSH1 0xF8 SHR PUSH1 0xF8 SHL PUSH1 0x40 MLOAD PUSH1 0x20 ADD PUSH2 0x97F SWAP3 SWAP2 SWAP1 PUSH2 0x1A6E JUMP JUMPDEST PUSH1 0x40 MLOAD PUSH1 0x20 DUP2 DUP4 SUB SUB DUP2 MSTORE SWAP1 PUSH1 0x40 MSTORE PUSH2 0x314 JUMP JUMPDEST SWAP1 POP PUSH2 0x9FB DUP3 PUSH1 0x19 DUP2 MLOAD DUP2 LT PUSH2 0x9AC JUMPI PUSH2 0x9AB PUSH2 0x1810 JUMP JUMPDEST JUMPDEST PUSH1 0x20 ADD ADD MLOAD PUSH1 0xF8 SHR PUSH1 0xF8 SHL DUP4 PUSH1 0x1A DUP2 MLOAD DUP2 LT PUSH2 0x9CB JUMPI PUSH2 0x9CA PUSH2 0x1810 JUMP JUMPDEST JUMPDEST PUSH1 0x20 ADD ADD MLOAD PUSH1 0xF8 SHR PUSH1 0xF8 SHL PUSH1 0x40 MLOAD PUSH1 0x20 ADD PUSH2 0x9E7 SWAP3 SWAP2 SWAP1 PUSH2 0x1A6E JUMP JUMPDEST PUSH1 0x40 MLOAD PUSH1 0x20 DUP2 DUP4 SUB SUB DUP2 MSTORE SWAP1 PUSH1 0x40 MSTORE PUSH2 0x100A JUMP JUMPDEST SWAP3 POP DUP2 PUSH1 0x4 DUP2 MLOAD DUP2 LT PUSH2 0xA11 JUMPI PUSH2 0xA10 PUSH2 0x1810 JUMP JUMPDEST JUMPDEST PUSH1 0x20 ADD ADD MLOAD PUSH1 0xF8 SHR PUSH1 0xF8 SHL DUP3 PUSH1 0x5 DUP2 MLOAD DUP2 LT PUSH2 0xA30 JUMPI PUSH2 0xA2F PUSH2 0x1810 JUMP JUMPDEST JUMPDEST PUSH1 0x20 ADD ADD MLOAD PUSH1 0xF8 SHR PUSH1 0xF8 SHL DUP4 PUSH1 0x6 DUP2 MLOAD DUP2 LT PUSH2 0xA4F JUMPI PUSH2 0xA4E PUSH2 0x1810 JUMP JUMPDEST JUMPDEST PUSH1 0x20 ADD ADD MLOAD PUSH1 0xF8 SHR PUSH1 0xF8 SHL DUP5 PUSH1 0x7 DUP2 MLOAD DUP2 LT PUSH2 0xA6E JUMPI PUSH2 0xA6D PUSH2 0x1810 JUMP JUMPDEST JUMPDEST PUSH1 0x20 ADD ADD MLOAD PUSH1 0xF8 SHR PUSH1 0xF8 SHL DUP6 PUSH1 0x8 DUP2 MLOAD DUP2 LT PUSH2 0xA8D JUMPI PUSH2 0xA8C PUSH2 0x1810 JUMP JUMPDEST JUMPDEST PUSH1 0x20 ADD ADD MLOAD PUSH1 0xF8 SHR PUSH1 0xF8 SHL PUSH1 0x40 MLOAD PUSH1 0x20 ADD PUSH2 0xAAC SWAP6 SWAP5 SWAP4 SWAP3 SWAP2 SWAP1 PUSH2 0x1A9A JUMP JUMPDEST PUSH1 0x40 MLOAD PUSH1 0x20 DUP2 DUP4 SUB SUB DUP2 MSTORE SWAP1 PUSH1 0x40 MSTORE SWAP6 POP DUP2 PUSH1 0x9 DUP2 MLOAD DUP2 LT PUSH2 0xAD1 JUMPI PUSH2 0xAD0 PUSH2 0x1810 JUMP JUMPDEST JUMPDEST PUSH1 0x20 ADD ADD MLOAD PUSH1 0xF8 SHR PUSH1 0xF8 SHL DUP3 PUSH1 0xA DUP2 MLOAD DUP2 LT PUSH2 0xAF0 JUMPI PUSH2 0xAEF PUSH2 0x1810 JUMP JUMPDEST JUMPDEST PUSH1 0x20 ADD ADD MLOAD PUSH1 0xF8 SHR PUSH1 0xF8 SHL DUP4 PUSH1 0xB DUP2 MLOAD DUP2 LT PUSH2 0xB0F JUMPI PUSH2 0xB0E PUSH2 0x1810 JUMP JUMPDEST JUMPDEST PUSH1 0x20 ADD ADD MLOAD PUSH1 0xF8 SHR PUSH1 0xF8 SHL DUP5 PUSH1 0xC DUP2 MLOAD DUP2 LT PUSH2 0xB2E JUMPI PUSH2 0xB2D PUSH2 0x1810 JUMP JUMPDEST JUMPDEST PUSH1 0x20 ADD ADD MLOAD PUSH1 0xF8 SHR PUSH1 0xF8 SHL DUP6 PUSH1 0xD DUP2 MLOAD DUP2 LT PUSH2 0xB4D JUMPI PUSH2 0xB4C PUSH2 0x1810 JUMP JUMPDEST JUMPDEST PUSH1 0x20 ADD ADD MLOAD PUSH1 0xF8 SHR PUSH1 0xF8 SHL PUSH1 0x40 MLOAD PUSH1 0x20 ADD PUSH2 0xB6C SWAP6 SWAP5 SWAP4 SWAP3 SWAP2 SWAP1 PUSH2 0x1A9A JUMP JUMPDEST PUSH1 0x40 MLOAD PUSH1 0x20 DUP2 DUP4 SUB SUB DUP2 MSTORE SWAP1 PUSH1 0x40 MSTORE SWAP5 POP DUP2 PUSH1 0xE DUP2 MLOAD DUP2 LT PUSH2 0xB91 JUMPI PUSH2 0xB90 PUSH2 0x1810 JUMP JUMPDEST JUMPDEST PUSH1 0x20 ADD ADD MLOAD PUSH1 0xF8 SHR PUSH1 0xF8 SHL DUP3 PUSH1 0xF DUP2 MLOAD DUP2 LT PUSH2 0xBB0 JUMPI PUSH2 0xBAF PUSH2 0x1810 JUMP JUMPDEST JUMPDEST PUSH1 0x20 ADD ADD MLOAD PUSH1 0xF8 SHR PUSH1 0xF8 SHL DUP4 PUSH1 0x10 DUP2 MLOAD DUP2 LT PUSH2 0xBCF JUMPI PUSH2 0xBCE PUSH2 0x1810 JUMP JUMPDEST JUMPDEST PUSH1 0x20 ADD ADD MLOAD PUSH1 0xF8 SHR PUSH1 0xF8 SHL DUP5 PUSH1 0x11 DUP2 MLOAD DUP2 LT PUSH2 0xBEE JUMPI PUSH2 0xBED PUSH2 0x1810 JUMP JUMPDEST JUMPDEST PUSH1 0x20 ADD ADD MLOAD PUSH1 0xF8 SHR PUSH1 0xF8 SHL DUP6 PUSH1 0x12 DUP2 MLOAD DUP2 LT PUSH2 0xC0D JUMPI PUSH2 0xC0C PUSH2 0x1810 JUMP JUMPDEST JUMPDEST PUSH1 0x20 ADD ADD MLOAD PUSH1 0xF8 SHR PUSH1 0xF8 SHL DUP7 PUSH1 0x13 DUP2 MLOAD DUP2 LT PUSH2 0xC2C JUMPI PUSH2 0xC2B PUSH2 0x1810 JUMP JUMPDEST JUMPDEST PUSH1 0x20 ADD ADD MLOAD PUSH1 0xF8 SHR PUSH1 0xF8 SHL DUP8 PUSH1 0x14 DUP2 MLOAD DUP2 LT PUSH2 0xC4B JUMPI PUSH2 0xC4A PUSH2 0x1810 JUMP JUMPDEST JUMPDEST PUSH1 0x20 ADD ADD MLOAD PUSH1 0xF8 SHR PUSH1 0xF8 SHL DUP9 PUSH1 0x15 DUP2 MLOAD DUP2 LT PUSH2 0xC6A JUMPI PUSH2 0xC69 PUSH2 0x1810 JUMP JUMPDEST JUMPDEST PUSH1 0x20 ADD ADD MLOAD PUSH1 0xF8 SHR PUSH1 0xF8 SHL DUP10 PUSH1 0x16 DUP2 MLOAD DUP2 LT PUSH2 0xC89 JUMPI PUSH2 0xC88 PUSH2 0x1810 JUMP JUMPDEST JUMPDEST PUSH1 0x20 ADD ADD MLOAD PUSH1 0xF8 SHR PUSH1 0xF8 SHL DUP11 PUSH1 0x17 DUP2 MLOAD DUP2 LT PUSH2 0xCA8 JUMPI PUSH2 0xCA7 PUSH2 0x1810 JUMP JUMPDEST JUMPDEST PUSH1 0x20 ADD ADD MLOAD PUSH1 0xF8 SHR PUSH1 0xF8 SHL DUP12 PUSH1 0x18 DUP2 MLOAD DUP2 LT PUSH2 0xCC7 JUMPI PUSH2 0xCC6 PUSH2 0x1810 JUMP JUMPDEST JUMPDEST PUSH1 0x20 ADD ADD MLOAD PUSH1 0xF8 SHR PUSH1 0xF8 SHL PUSH1 0x40 MLOAD PUSH1 0x20 ADD PUSH2 0xCEC SWAP12 SWAP11 SWAP10 SWAP9 SWAP8 SWAP7 SWAP6 SWAP5 SWAP4 SWAP3 SWAP2 SWAP1 PUSH2 0x1AF9 JUMP JUMPDEST PUSH1 0x40 MLOAD PUSH1 0x20 DUP2 DUP4 SUB SUB DUP2 MSTORE SWAP1 PUSH1 0x40 MSTORE SWAP4 POP PUSH1 0x0 PUSH2 0xD22 PUSH2 0xD0B DUP9 PUSH2 0x100A JUMP JUMPDEST PUSH2 0xD14 DUP9 PUSH2 0x100A JUMP JUMPDEST PUSH2 0xD1D DUP9 PUSH2 0x100A JUMP JUMPDEST PUSH2 0x472 JUMP JUMPDEST SWAP1 POP DUP4 PUSH2 0xFFFF AND DUP2 PUSH2 0xFFFF AND EQ PUSH2 0xD3F JUMPI PUSH1 0x0 SWAP8 POP POP POP POP PUSH2 0xDE6 JUMP JUMPDEST PUSH1 0x0 DUP8 DUP8 DUP8 DUP7 PUSH1 0x19 DUP2 MLOAD DUP2 LT PUSH2 0xD58 JUMPI PUSH2 0xD57 PUSH2 0x1810 JUMP JUMPDEST JUMPDEST PUSH1 0x20 ADD ADD MLOAD PUSH1 0xF8 SHR PUSH1 0xF8 SHL DUP8 PUSH1 0x1A DUP2 MLOAD DUP2 LT PUSH2 0xD77 JUMPI PUSH2 0xD76 PUSH2 0x1810 JUMP JUMPDEST JUMPDEST PUSH1 0x20 ADD ADD MLOAD PUSH1 0xF8 SHR PUSH1 0xF8 SHL PUSH1 0x40 MLOAD PUSH1 0x20 ADD PUSH2 0xD96 SWAP6 SWAP5 SWAP4 SWAP3 SWAP2 SWAP1 PUSH2 0x1C0A JUMP JUMPDEST PUSH1 0x40 MLOAD PUSH1 0x20 DUP2 DUP4 SUB SUB DUP2 MSTORE SWAP1 PUSH1 0x40 MSTORE SWAP1 POP PUSH1 0x0 PUSH2 0xDB2 DUP3 PUSH2 0x314 JUMP JUMPDEST SWAP1 POP PUSH1 0x0 PUSH2 0xDBF DUP3 PUSH2 0x44B JUMP JUMPDEST SWAP1 POP DUP5 DUP2 PUSH2 0xFFFF AND EQ PUSH2 0xDDB JUMPI PUSH1 0x0 SWAP11 POP POP POP POP POP POP POP PUSH2 0xDE6 JUMP JUMPDEST PUSH1 0x1 SWAP11 POP POP POP POP POP POP POP JUMPDEST SWAP2 SWAP4 SWAP6 SWAP1 SWAP3 SWAP5 POP JUMP JUMPDEST PUSH1 0x60 PUSH1 0x0 DUP3 SUB PUSH2 0xE36 JUMPI PUSH1 0x40 MLOAD DUP1 PUSH1 0x40 ADD PUSH1 0x40 MSTORE DUP1 PUSH1 0x1 DUP2 MSTORE PUSH1 0x20 ADD PUSH32 0x3000000000000000000000000000000000000000000000000000000000000000 DUP2 MSTORE POP SWAP1 POP PUSH2 0x1005 JUMP JUMPDEST PUSH1 0x0 PUSH1 0x64 SWAP1 POP PUSH1 0x0 DUP2 PUSH8 0xFFFFFFFFFFFFFFFF DUP2 GT ISZERO PUSH2 0xE58 JUMPI PUSH2 0xE57 PUSH2 0x11C4 JUMP JUMPDEST JUMPDEST PUSH1 0x40 MLOAD SWAP1 DUP1 DUP3 MSTORE DUP1 PUSH1 0x1F ADD PUSH1 0x1F NOT AND PUSH1 0x20 ADD DUP3 ADD PUSH1 0x40 MSTORE DUP1 ISZERO PUSH2 0xE8A JUMPI DUP2 PUSH1 0x20 ADD PUSH1 0x1 DUP3 MUL DUP1 CALLDATASIZE DUP4 CALLDATACOPY DUP1 DUP3 ADD SWAP2 POP POP SWAP1 POP JUMPDEST POP SWAP1 POP PUSH1 0x0 JUMPDEST PUSH1 0x0 DUP6 EQ PUSH2 0xF1C JUMPI PUSH1 0x0 PUSH1 0xA DUP7 PUSH2 0xEA7 SWAP2 SWAP1 PUSH2 0x1913 JUMP JUMPDEST SWAP1 POP PUSH1 0xA DUP7 PUSH2 0xEB6 SWAP2 SWAP1 PUSH2 0x1C68 JUMP JUMPDEST SWAP6 POP DUP1 PUSH1 0x30 PUSH2 0xEC5 SWAP2 SWAP1 PUSH2 0x18B0 JUMP JUMPDEST PUSH1 0xF8 SHL DUP4 DUP4 DUP1 PUSH2 0xED4 SWAP1 PUSH2 0x1C99 JUMP JUMPDEST SWAP5 POP DUP2 MLOAD DUP2 LT PUSH2 0xEE7 JUMPI PUSH2 0xEE6 PUSH2 0x1810 JUMP JUMPDEST JUMPDEST PUSH1 0x20 ADD ADD SWAP1 PUSH31 0xFFFFFFFFFFFFFFFFFFFFFFFFFFFFFFFFFFFFFFFFFFFFFFFFFFFFFFFFFFFFFF NOT AND SWAP1 DUP2 PUSH1 0x0 BYTE SWAP1 MSTORE8 POP POP PUSH2 0xE90 JUMP JUMPDEST PUSH1 0x0 DUP2 PUSH8 0xFFFFFFFFFFFFFFFF DUP2 GT ISZERO PUSH2 0xF38 JUMPI PUSH2 0xF37 PUSH2 0x11C4 JUMP JUMPDEST JUMPDEST PUSH1 0x40 MLOAD SWAP1 DUP1 DUP3 MSTORE DUP1 PUSH1 0x1F ADD PUSH1 0x1F NOT AND PUSH1 0x20 ADD DUP3 ADD PUSH1 0x40 MSTORE DUP1 ISZERO PUSH2 0xF6A JUMPI DUP2 PUSH1 0x20 ADD PUSH1 0x1 DUP3 MUL DUP1 CALLDATASIZE DUP4 CALLDATACOPY DUP1 DUP3 ADD SWAP2 POP POP SWAP1 POP JUMPDEST POP SWAP1 POP PUSH1 0x0 JUMPDEST DUP3 DUP2 LT ISZERO PUSH2 0xFFC JUMPI DUP4 DUP2 PUSH1 0x1 DUP6 PUSH2 0xF87 SWAP2 SWAP1 PUSH2 0x1944 JUMP JUMPDEST PUSH2 0xF91 SWAP2 SWAP1 PUSH2 0x1944 JUMP JUMPDEST DUP2 MLOAD DUP2 LT PUSH2 0xFA2 JUMPI PUSH2 0xFA1 PUSH2 0x1810 JUMP JUMPDEST JUMPDEST PUSH1 0x20 ADD ADD MLOAD PUSH1 0xF8 SHR PUSH1 0xF8 SHL DUP3 DUP3 DUP2 MLOAD DUP2 LT PUSH2 0xFC0 JUMPI PUSH2 0xFBF PUSH2 0x1810 JUMP JUMPDEST JUMPDEST PUSH1 0x20 ADD ADD SWAP1 PUSH31 0xFFFFFFFFFFFFFFFFFFFFFFFFFFFFFFFFFFFFFFFFFFFFFFFFFFFFFFFFFFFFFF NOT AND SWAP1 DUP2 PUSH1 0x0 BYTE SWAP1 MSTORE8 POP DUP1 DUP1 PUSH1 0x1 ADD SWAP2 POP POP PUSH2 0xF70 JUMP JUMPDEST POP DUP1 SWAP5 POP POP POP POP POP JUMPDEST SWAP2 SWAP1 POP JUMP JUMPDEST PUSH1 0x0 DUP1 PUSH1 0x0 SWAP1 POP PUSH1 0x0 JUMPDEST DUP4 MLOAD DUP2 LT ISZERO PUSH2 0x118B JUMPI PUSH1 0x0 DUP5 DUP3 DUP2 MLOAD DUP2 LT PUSH2 0x1032 JUMPI PUSH2 0x1031 PUSH2 0x1810 JUMP JUMPDEST JUMPDEST PUSH1 0x20 ADD ADD MLOAD PUSH1 0xF8 SHR PUSH1 0xF8 SHL PUSH1 0xF8 SHR SWAP1 POP PUSH1 0x30 DUP2 PUSH1 0xFF AND LT PUSH2 0x1078 JUMPI PUSH1 0x30 DUP6 DUP4 DUP2 MLOAD DUP2 LT PUSH2 0x1062 JUMPI PUSH2 0x1061 PUSH2 0x1810 JUMP JUMPDEST JUMPDEST PUSH1 0x20 ADD ADD MLOAD PUSH1 0xF8 SHR PUSH1 0xF8 SHL PUSH1 0xF8 SHR SUB SWAP1 POP PUSH2 0x107D JUMP JUMPDEST PUSH1 0xFF SWAP1 POP JUMPDEST PUSH1 0x0 DUP2 PUSH1 0xFF AND LT ISZERO DUP1 ISZERO PUSH2 0x1095 JUMPI POP PUSH1 0x9 DUP2 PUSH1 0xFF AND GT ISZERO JUMPDEST ISZERO PUSH2 0x10BC JUMPI DUP1 PUSH1 0xFF AND PUSH1 0xA DUP5 PUSH2 0x10AB SWAP2 SWAP1 PUSH2 0x186E JUMP JUMPDEST PUSH2 0x10B5 SWAP2 SWAP1 PUSH2 0x18B0 JUMP JUMPDEST SWAP3 POP PUSH2 0x117D JUMP JUMPDEST PUSH1 0x31 DUP2 PUSH1 0xFF AND LT ISZERO DUP1 ISZERO PUSH2 0x10D4 JUMPI POP PUSH1 0x4A DUP2 PUSH1 0xFF AND GT ISZERO JUMPDEST ISZERO PUSH2 0x10E0 JUMPI PUSH1 0x20 DUP2 SUB SWAP1 POP JUMPDEST PUSH1 0x11 DUP2 PUSH1 0xFF AND LT ISZERO DUP1 ISZERO PUSH2 0x10F8 JUMPI POP PUSH1 0x22 DUP2 PUSH1 0xFF AND GT ISZERO JUMPDEST ISZERO PUSH2 0x111F JUMPI PUSH1 0x1 PUSH1 0x9 PUSH1 0x11 DUP4 SUB PUSH1 0xFF AND DUP2 PUSH2 0x1116 JUMPI PUSH2 0x1115 PUSH2 0x18E4 JUMP JUMPDEST JUMPDEST MOD ADD SWAP1 POP PUSH2 0x1164 JUMP JUMPDEST PUSH1 0x23 DUP2 PUSH1 0xFF AND LT ISZERO DUP1 ISZERO PUSH2 0x1137 JUMPI POP PUSH1 0x2A DUP2 PUSH1 0xFF AND GT ISZERO JUMPDEST ISZERO PUSH2 0x115E JUMPI PUSH1 0x1 PUSH1 0x9 PUSH1 0x10 DUP4 SUB PUSH1 0xFF AND DUP2 PUSH2 0x1155 JUMPI PUSH2 0x1154 PUSH2 0x18E4 JUMP JUMPDEST JUMPDEST MOD ADD SWAP1 POP PUSH2 0x1163 JUMP JUMPDEST PUSH1 0x0 SWAP1 POP JUMPDEST JUMPDEST PUSH1 0x0 DUP2 PUSH1 0xFF AND GT ISZERO PUSH2 0x117C JUMPI DUP1 PUSH1 0xFF AND PUSH1 0xA DUP5 MUL ADD SWAP3 POP JUMPDEST JUMPDEST POP DUP1 DUP1 PUSH1 0x1 ADD SWAP2 POP POP PUSH2 0x1014 JUMP JUMPDEST POP DUP1 SWAP2 POP POP SWAP2 SWAP1 POP JUMP JUMPDEST PUSH1 0x0 PUSH1 0x40 MLOAD SWAP1 POP SWAP1 JUMP JUMPDEST PUSH1 0x0 DUP1 REVERT JUMPDEST PUSH1 0x0 DUP1 REVERT JUMPDEST PUSH1 0x0 DUP1 REVERT JUMPDEST PUSH1 0x0 DUP1 REVERT JUMPDEST PUSH1 0x0 PUSH1 0x1F NOT PUSH1 0x1F DUP4 ADD AND SWAP1 POP SWAP2 SWAP1 POP JUMP JUMPDEST PUSH32 0x4E487B7100000000000000000000000000000000000000000000000000000000 PUSH1 0x0 MSTORE PUSH1 0x41 PUSH1 0x4 MSTORE PUSH1 0x24 PUSH1 0x0 REVERT JUMPDEST PUSH2 0x11FC DUP3 PUSH2 0x11B3 JUMP JUMPDEST DUP2 ADD DUP2 DUP2 LT PUSH8 0xFFFFFFFFFFFFFFFF DUP3 GT OR ISZERO PUSH2 0x121B JUMPI PUSH2 0x121A PUSH2 0x11C4 JUMP JUMPDEST JUMPDEST DUP1 PUSH1 0x40 MSTORE POP POP POP JUMP JUMPDEST PUSH1 0x0 PUSH2 0x122E PUSH2 0x1195 JUMP JUMPDEST SWAP1 POP PUSH2 0x123A DUP3 DUP3 PUSH2 0x11F3 JUMP JUMPDEST SWAP2 SWAP1 POP JUMP JUMPDEST PUSH1 0x0 PUSH8 0xFFFFFFFFFFFFFFFF DUP3 GT ISZERO PUSH2 0x125A JUMPI PUSH2 0x1259 PUSH2 0x11C4 JUMP JUMPDEST JUMPDEST PUSH2 0x1263 DUP3 PUSH2 0x11B3 JUMP JUMPDEST SWAP1 POP PUSH1 0x20 DUP2 ADD SWAP1 POP SWAP2 SWAP1 POP JUMP JUMPDEST DUP3 DUP2 DUP4 CALLDATACOPY PUSH1 0x0 DUP4 DUP4 ADD MSTORE POP POP POP JUMP JUMPDEST PUSH1 0x0 PUSH2 0x1292 PUSH2 0x128D DUP5 PUSH2 0x123F JUMP JUMPDEST PUSH2 0x1224 JUMP JUMPDEST SWAP1 POP DUP3 DUP2 MSTORE PUSH1 0x20 DUP2 ADD DUP5 DUP5 DUP5 ADD GT ISZERO PUSH2 0x12AE JUMPI PUSH2 0x12AD PUSH2 0x11AE JUMP JUMPDEST JUMPDEST PUSH2 0x12B9 DUP5 DUP3 DUP6 PUSH2 0x1270 JUMP JUMPDEST POP SWAP4 SWAP3 POP POP POP JUMP JUMPDEST PUSH1 0x0 DUP3 PUSH1 0x1F DUP4 ADD SLT PUSH2 0x12D6 JUMPI PUSH2 0x12D5 PUSH2 0x11A9 JUMP JUMPDEST JUMPDEST DUP2 CALLDATALOAD PUSH2 0x12E6 DUP5 DUP3 PUSH1 0x20 DUP7 ADD PUSH2 0x127F JUMP JUMPDEST SWAP2 POP POP SWAP3 SWAP2 POP POP JUMP JUMPDEST PUSH1 0x0 DUP1 PUSH1 0x40 DUP4 DUP6 SUB SLT ISZERO PUSH2 0x1306 JUMPI PUSH2 0x1305 PUSH2 0x119F JUMP JUMPDEST JUMPDEST PUSH1 0x0 DUP4 ADD CALLDATALOAD PUSH8 0xFFFFFFFFFFFFFFFF DUP2 GT ISZERO PUSH2 0x1324 JUMPI PUSH2 0x1323 PUSH2 0x11A4 JUMP JUMPDEST JUMPDEST PUSH2 0x1330 DUP6 DUP3 DUP7 ADD PUSH2 0x12C1 JUMP JUMPDEST SWAP3 POP POP PUSH1 0x20 DUP4 ADD CALLDATALOAD PUSH8 0xFFFFFFFFFFFFFFFF DUP2 GT ISZERO PUSH2 0x1351 JUMPI PUSH2 0x1350 PUSH2 0x11A4 JUMP JUMPDEST JUMPDEST PUSH2 0x135D DUP6 DUP3 DUP7 ADD PUSH2 0x12C1 JUMP JUMPDEST SWAP2 POP POP SWAP3 POP SWAP3 SWAP1 POP JUMP JUMPDEST PUSH1 0x0 DUP2 MLOAD SWAP1 POP SWAP2 SWAP1 POP JUMP JUMPDEST PUSH1 0x0 DUP3 DUP3 MSTORE PUSH1 0x20 DUP3 ADD SWAP1 POP SWAP3 SWAP2 POP POP JUMP JUMPDEST PUSH1 0x0 JUMPDEST DUP4 DUP2 LT ISZERO PUSH2 0x13A1 JUMPI DUP1 DUP3 ADD MLOAD DUP2 DUP5 ADD MSTORE PUSH1 0x20 DUP2 ADD SWAP1 POP PUSH2 0x1386 JUMP JUMPDEST PUSH1 0x0 DUP5 DUP5 ADD MSTORE POP POP POP POP JUMP JUMPDEST PUSH1 0x0 PUSH2 0x13B8 DUP3 PUSH2 0x1367 JUMP JUMPDEST PUSH2 0x13C2 DUP2 DUP6 PUSH2 0x1372 JUMP JUMPDEST SWAP4 POP PUSH2 0x13D2 DUP2 DUP6 PUSH1 0x20 DUP7 ADD PUSH2 0x1383 JUMP JUMPDEST PUSH2 0x13DB DUP2 PUSH2 0x11B3 JUMP JUMPDEST DUP5 ADD SWAP2 POP POP SWAP3 SWAP2 POP POP JUMP JUMPDEST PUSH1 0x0 PUSH1 0x20 DUP3 ADD SWAP1 POP DUP2 DUP2 SUB PUSH1 0x0 DUP4 ADD MSTORE PUSH2 0x1400 DUP2 DUP5 PUSH2 0x13AD JUMP JUMPDEST SWAP1 POP SWAP3 SWAP2 POP POP JUMP JUMPDEST PUSH1 0x0 PUSH1 0x20 DUP3 DUP5 SUB SLT ISZERO PUSH2 0x141E JUMPI PUSH2 0x141D PUSH2 0x119F JUMP JUMPDEST JUMPDEST PUSH1 0x0 DUP3 ADD CALLDATALOAD PUSH8 0xFFFFFFFFFFFFFFFF DUP2 GT ISZERO PUSH2 0x143C JUMPI PUSH2 0x143B PUSH2 0x11A4 JUMP JUMPDEST JUMPDEST PUSH2 0x1448 DUP5 DUP3 DUP6 ADD PUSH2 0x12C1 JUMP JUMPDEST SWAP2 POP POP SWAP3 SWAP2 POP POP JUMP JUMPDEST PUSH1 0x0 DUP2 SWAP1 POP SWAP2 SWAP1 POP JUMP JUMPDEST PUSH2 0x1464 DUP2 PUSH2 0x1451 JUMP JUMPDEST DUP3 MSTORE POP POP JUMP JUMPDEST PUSH1 0x0 PUSH1 0x20 DUP3 ADD SWAP1 POP PUSH2 0x147F PUSH1 0x0 DUP4 ADD DUP5 PUSH2 0x145B JUMP JUMPDEST SWAP3 SWAP2 POP POP JUMP JUMPDEST PUSH2 0x148E DUP2 PUSH2 0x1451 JUMP JUMPDEST DUP2 EQ PUSH2 0x1499 JUMPI PUSH1 0x0 DUP1 REVERT JUMPDEST POP JUMP JUMPDEST PUSH1 0x0 DUP2 CALLDATALOAD SWAP1 POP PUSH2 0x14AB DUP2 PUSH2 0x1485 JUMP JUMPDEST SWAP3 SWAP2 POP POP JUMP JUMPDEST PUSH1 0x0 PUSH1 0x20 DUP3 DUP5 SUB SLT ISZERO PUSH2 0x14C7 JUMPI PUSH2 0x14C6 PUSH2 0x119F JUMP JUMPDEST JUMPDEST PUSH1 0x0 PUSH2 0x14D5 DUP5 DUP3 DUP6 ADD PUSH2 0x149C JUMP JUMPDEST SWAP2 POP POP SWAP3 SWAP2 POP POP JUMP JUMPDEST PUSH1 0x0 PUSH2 0xFFFF DUP3 AND SWAP1 POP SWAP2 SWAP1 POP JUMP JUMPDEST PUSH2 0x14F5 DUP2 PUSH2 0x14DE JUMP JUMPDEST DUP3 MSTORE POP POP JUMP JUMPDEST PUSH1 0x0 PUSH1 0x20 DUP3 ADD SWAP1 POP PUSH2 0x1510 PUSH1 0x0 DUP4 ADD DUP5 PUSH2 0x14EC JUMP JUMPDEST SWAP3 SWAP2 POP POP JUMP JUMPDEST PUSH1 0x0 DUP1 PUSH1 0x0 PUSH1 0x60 DUP5 DUP7 SUB SLT ISZERO PUSH2 0x152F JUMPI PUSH2 0x152E PUSH2 0x119F JUMP JUMPDEST JUMPDEST PUSH1 0x0 PUSH2 0x153D DUP7 DUP3 DUP8 ADD PUSH2 0x149C JUMP JUMPDEST SWAP4 POP POP PUSH1 0x20 PUSH2 0x154E DUP7 DUP3 DUP8 ADD PUSH2 0x149C JUMP JUMPDEST SWAP3 POP POP PUSH1 0x40 PUSH2 0x155F DUP7 DUP3 DUP8 ADD PUSH2 0x149C JUMP JUMPDEST SWAP2 POP POP SWAP3 POP SWAP3 POP SWAP3 JUMP JUMPDEST PUSH1 0x0 PUSH1 0xFF DUP3 AND SWAP1 POP SWAP2 SWAP1 POP JUMP JUMPDEST PUSH2 0x157F DUP2 PUSH2 0x1569 JUMP JUMPDEST DUP2 EQ PUSH2 0x158A JUMPI PUSH1 0x0 DUP1 REVERT JUMPDEST POP JUMP JUMPDEST PUSH1 0x0 DUP2 CALLDATALOAD SWAP1 POP PUSH2 0x159C DUP2 PUSH2 0x1576 JUMP JUMPDEST SWAP3 SWAP2 POP POP JUMP JUMPDEST PUSH1 0x0 DUP1 PUSH1 0x40 DUP4 DUP6 SUB SLT ISZERO PUSH2 0x15B9 JUMPI PUSH2 0x15B8 PUSH2 0x119F JUMP JUMPDEST JUMPDEST PUSH1 0x0 DUP4 ADD CALLDATALOAD PUSH8 0xFFFFFFFFFFFFFFFF DUP2 GT ISZERO PUSH2 0x15D7 JUMPI PUSH2 0x15D6 PUSH2 0x11A4 JUMP JUMPDEST JUMPDEST PUSH2 0x15E3 DUP6 DUP3 DUP7 ADD PUSH2 0x12C1 JUMP JUMPDEST SWAP3 POP POP PUSH1 0x20 PUSH2 0x15F4 DUP6 DUP3 DUP7 ADD PUSH2 0x158D JUMP JUMPDEST SWAP2 POP POP SWAP3 POP SWAP3 SWAP1 POP JUMP JUMPDEST PUSH1 0x0 DUP1 PUSH1 0x0 PUSH1 0x60 DUP5 DUP7 SUB SLT ISZERO PUSH2 0x1617 JUMPI PUSH2 0x1616 PUSH2 0x119F JUMP JUMPDEST JUMPDEST PUSH1 0x0 DUP5 ADD CALLDATALOAD PUSH8 0xFFFFFFFFFFFFFFFF DUP2 GT ISZERO PUSH2 0x1635 JUMPI PUSH2 0x1634 PUSH2 0x11A4 JUMP JUMPDEST JUMPDEST PUSH2 0x1641 DUP7 DUP3 DUP8 ADD PUSH2 0x12C1 JUMP JUMPDEST SWAP4 POP POP PUSH1 0x20 DUP5 ADD CALLDATALOAD PUSH8 0xFFFFFFFFFFFFFFFF DUP2 GT ISZERO PUSH2 0x1662 JUMPI PUSH2 0x1661 PUSH2 0x11A4 JUMP JUMPDEST JUMPDEST PUSH2 0x166E DUP7 DUP3 DUP8 ADD PUSH2 0x12C1 JUMP JUMPDEST SWAP3 POP POP PUSH1 0x40 DUP5 ADD CALLDATALOAD PUSH8 0xFFFFFFFFFFFFFFFF DUP2 GT ISZERO PUSH2 0x168F JUMPI PUSH2 0x168E PUSH2 0x11A4 JUMP JUMPDEST JUMPDEST PUSH2 0x169B DUP7 DUP3 DUP8 ADD PUSH2 0x12C1 JUMP JUMPDEST SWAP2 POP POP SWAP3 POP SWAP3 POP SWAP3 JUMP JUMPDEST PUSH1 0x0 DUP2 ISZERO ISZERO SWAP1 POP SWAP2 SWAP1 POP JUMP JUMPDEST PUSH2 0x16BA DUP2 PUSH2 0x16A5 JUMP JUMPDEST DUP3 MSTORE POP POP JUMP JUMPDEST PUSH1 0x0 PUSH1 0xA0 DUP3 ADD SWAP1 POP PUSH2 0x16D5 PUSH1 0x0 DUP4 ADD DUP9 PUSH2 0x16B1 JUMP JUMPDEST DUP2 DUP2 SUB PUSH1 0x20 DUP4 ADD MSTORE PUSH2 0x16E7 DUP2 DUP8 PUSH2 0x13AD JUMP JUMPDEST SWAP1 POP DUP2 DUP2 SUB PUSH1 0x40 DUP4 ADD MSTORE PUSH2 0x16FB DUP2 DUP7 PUSH2 0x13AD JUMP JUMPDEST SWAP1 POP DUP2 DUP2 SUB PUSH1 0x60 DUP4 ADD MSTORE PUSH2 0x170F DUP2 DUP6 PUSH2 0x13AD JUMP JUMPDEST SWAP1 POP PUSH2 0x171E PUSH1 0x80 DUP4 ADD DUP5 PUSH2 0x14EC JUMP JUMPDEST SWAP7 SWAP6 POP POP POP POP POP POP JUMP JUMPDEST PUSH1 0x0 DUP2 SWAP1 POP SWAP3 SWAP2 POP POP JUMP JUMPDEST PUSH1 0x0 PUSH2 0x173E DUP3 PUSH2 0x1367 JUMP JUMPDEST PUSH2 0x1748 DUP2 DUP6 PUSH2 0x1728 JUMP JUMPDEST SWAP4 POP PUSH2 0x1758 DUP2 DUP6 PUSH1 0x20 DUP7 ADD PUSH2 0x1383 JUMP JUMPDEST DUP1 DUP5 ADD SWAP2 POP POP SWAP3 SWAP2 POP POP JUMP JUMPDEST PUSH32 0x3030000000000000000000000000000000000000000000000000000000000000 PUSH1 0x0 DUP3 ADD MSTORE POP JUMP JUMPDEST PUSH1 0x0 PUSH2 0x179A PUSH1 0x2 DUP4 PUSH2 0x1728 JUMP JUMPDEST SWAP2 POP PUSH2 0x17A5 DUP3 PUSH2 0x1764 JUMP JUMPDEST PUSH1 0x2 DUP3 ADD SWAP1 POP SWAP2 SWAP1 POP JUMP JUMPDEST PUSH1 0x0 PUSH2 0x17BC DUP3 DUP6 PUSH2 0x1733 JUMP JUMPDEST SWAP2 POP PUSH2 0x17C8 DUP3 DUP5 PUSH2 0x1733 JUMP JUMPDEST SWAP2 POP PUSH2 0x17D3 DUP3 PUSH2 0x178D JUMP JUMPDEST SWAP2 POP DUP2 SWAP1 POP SWAP4 SWAP3 POP POP POP JUMP JUMPDEST PUSH1 0x0 PUSH2 0x17EB DUP3 DUP7 PUSH2 0x1733 JUMP JUMPDEST SWAP2 POP PUSH2 0x17F7 DUP3 DUP6 PUSH2 0x1733 JUMP JUMPDEST SWAP2 POP PUSH2 0x1803 DUP3 DUP5 PUSH2 0x1733 JUMP JUMPDEST SWAP2 POP DUP2 SWAP1 POP SWAP5 SWAP4 POP POP POP POP JUMP JUMPDEST PUSH32 0x4E487B7100000000000000000000000000000000000000000000000000000000 PUSH1 0x0 MSTORE PUSH1 0x32 PUSH1 0x4 MSTORE PUSH1 0x24 PUSH1 0x0 REVERT JUMPDEST PUSH32 0x4E487B7100000000000000000000000000000000000000000000000000000000 PUSH1 0x0 MSTORE PUSH1 0x11 PUSH1 0x4 MSTORE PUSH1 0x24 PUSH1 0x0 REVERT JUMPDEST PUSH1 0x0 PUSH2 0x1879 DUP3 PUSH2 0x1451 JUMP JUMPDEST SWAP2 POP PUSH2 0x1884 DUP4 PUSH2 0x1451 JUMP JUMPDEST SWAP3 POP DUP3 DUP3 MUL PUSH2 0x1892 DUP2 PUSH2 0x1451 JUMP JUMPDEST SWAP2 POP DUP3 DUP3 DIV DUP5 EQ DUP4 ISZERO OR PUSH2 0x18A9 JUMPI PUSH2 0x18A8 PUSH2 0x183F JUMP JUMPDEST JUMPDEST POP SWAP3 SWAP2 POP POP JUMP JUMPDEST PUSH1 0x0 PUSH2 0x18BB DUP3 PUSH2 0x1451 JUMP JUMPDEST SWAP2 POP PUSH2 0x18C6 DUP4 PUSH2 0x1451 JUMP JUMPDEST SWAP3 POP DUP3 DUP3 ADD SWAP1 POP DUP1 DUP3 GT ISZERO PUSH2 0x18DE JUMPI PUSH2 0x18DD PUSH2 0x183F JUMP JUMPDEST JUMPDEST SWAP3 SWAP2 POP POP JUMP JUMPDEST PUSH32 0x4E487B7100000000000000000000000000000000000000000000000000000000 PUSH1 0x0 MSTORE PUSH1 0x12 PUSH1 0x4 MSTORE PUSH1 0x24 PUSH1 0x0 REVERT JUMPDEST PUSH1 0x0 PUSH2 0x191E DUP3 PUSH2 0x1451 JUMP JUMPDEST SWAP2 POP PUSH2 0x1929 DUP4 PUSH2 0x1451 JUMP JUMPDEST SWAP3 POP DUP3 PUSH2 0x1939 JUMPI PUSH2 0x1938 PUSH2 0x18E4 JUMP JUMPDEST JUMPDEST DUP3 DUP3 MOD SWAP1 POP SWAP3 SWAP2 POP POP JUMP JUMPDEST PUSH1 0x0 PUSH2 0x194F DUP3 PUSH2 0x1451 JUMP JUMPDEST SWAP2 POP PUSH2 0x195A DUP4 PUSH2 0x1451 JUMP JUMPDEST SWAP3 POP DUP3 DUP3 SUB SWAP1 POP DUP2 DUP2 GT ISZERO PUSH2 0x1972 JUMPI PUSH2 0x1971 PUSH2 0x183F JUMP JUMPDEST JUMPDEST SWAP3 SWAP2 POP POP JUMP JUMPDEST PUSH1 0x0 DUP2 MLOAD SWAP1 POP SWAP2 SWAP1 POP JUMP JUMPDEST PUSH1 0x0 DUP2 SWAP1 POP SWAP3 SWAP2 POP POP JUMP JUMPDEST PUSH1 0x0 PUSH2 0x1999 DUP3 PUSH2 0x1978 JUMP JUMPDEST PUSH2 0x19A3 DUP2 DUP6 PUSH2 0x1983 JUMP JUMPDEST SWAP4 POP PUSH2 0x19B3 DUP2 DUP6 PUSH1 0x20 DUP7 ADD PUSH2 0x1383 JUMP JUMPDEST DUP1 DUP5 ADD SWAP2 POP POP SWAP3 SWAP2 POP POP JUMP JUMPDEST PUSH1 0x0 PUSH2 0x19CB DUP3 DUP6 PUSH2 0x198E JUMP JUMPDEST SWAP2 POP PUSH2 0x19D7 DUP3 DUP5 PUSH2 0x1733 JUMP JUMPDEST SWAP2 POP DUP2 SWAP1 POP SWAP4 SWAP3 POP POP POP JUMP JUMPDEST PUSH1 0x0 PUSH2 0x19EF DUP3 DUP8 PUSH2 0x1733 JUMP JUMPDEST SWAP2 POP PUSH2 0x19FB DUP3 DUP7 PUSH2 0x1733 JUMP JUMPDEST SWAP2 POP PUSH2 0x1A07 DUP3 DUP6 PUSH2 0x1733 JUMP JUMPDEST SWAP2 POP PUSH2 0x1A13 DUP3 DUP5 PUSH2 0x1733 JUMP JUMPDEST SWAP2 POP DUP2 SWAP1 POP SWAP6 SWAP5 POP POP POP POP POP JUMP JUMPDEST PUSH1 0x0 PUSH32 0xFF00000000000000000000000000000000000000000000000000000000000000 DUP3 AND SWAP1 POP SWAP2 SWAP1 POP JUMP JUMPDEST PUSH1 0x0 DUP2 SWAP1 POP SWAP2 SWAP1 POP JUMP JUMPDEST PUSH2 0x1A68 PUSH2 0x1A63 DUP3 PUSH2 0x1A21 JUMP JUMPDEST PUSH2 0x1A4D JUMP JUMPDEST DUP3 MSTORE POP POP JUMP JUMPDEST PUSH1 0x0 PUSH2 0x1A7A DUP3 DUP6 PUSH2 0x1A57 JUMP JUMPDEST PUSH1 0x1 DUP3 ADD SWAP2 POP PUSH2 0x1A8A DUP3 DUP5 PUSH2 0x1A57 JUMP JUMPDEST PUSH1 0x1 DUP3 ADD SWAP2 POP DUP2 SWAP1 POP SWAP4 SWAP3 POP POP POP JUMP JUMPDEST PUSH1 0x0 PUSH2 0x1AA6 DUP3 DUP9 PUSH2 0x1A57 JUMP JUMPDEST PUSH1 0x1 DUP3 ADD SWAP2 POP PUSH2 0x1AB6 DUP3 DUP8 PUSH2 0x1A57 JUMP JUMPDEST PUSH1 0x1 DUP3 ADD SWAP2 POP PUSH2 0x1AC6 DUP3 DUP7 PUSH2 0x1A57 JUMP JUMPDEST PUSH1 0x1 DUP3 ADD SWAP2 POP PUSH2 0x1AD6 DUP3 DUP6 PUSH2 0x1A57 JUMP JUMPDEST PUSH1 0x1 DUP3 ADD SWAP2 POP PUSH2 0x1AE6 DUP3 DUP5 PUSH2 0x1A57 JUMP JUMPDEST PUSH1 0x1 DUP3 ADD SWAP2 POP DUP2 SWAP1 POP SWAP7 SWAP6 POP POP POP POP POP POP JUMP JUMPDEST PUSH1 0x0 PUSH2 0x1B05 DUP3 DUP15 PUSH2 0x1A57 JUMP JUMPDEST PUSH1 0x1 DUP3 ADD SWAP2 POP PUSH2 0x1B15 DUP3 DUP14 PUSH2 0x1A57 JUMP JUMPDEST PUSH1 0x1 DUP3 ADD SWAP2 POP PUSH2 0x1B25 DUP3 DUP13 PUSH2 0x1A57 JUMP JUMPDEST PUSH1 0x1 DUP3 ADD SWAP2 POP PUSH2 0x1B35 DUP3 DUP12 PUSH2 0x1A57 JUMP JUMPDEST PUSH1 0x1 DUP3 ADD SWAP2 POP PUSH2 0x1B45 DUP3 DUP11 PUSH2 0x1A57 JUMP JUMPDEST PUSH1 0x1 DUP3 ADD SWAP2 POP PUSH2 0x1B55 DUP3 DUP10 PUSH2 0x1A57 JUMP JUMPDEST PUSH1 0x1 DUP3 ADD SWAP2 POP PUSH2 0x1B65 DUP3 DUP9 PUSH2 0x1A57 JUMP JUMPDEST PUSH1 0x1 DUP3 ADD SWAP2 POP PUSH2 0x1B75 DUP3 DUP8 PUSH2 0x1A57 JUMP JUMPDEST PUSH1 0x1 DUP3 ADD SWAP2 POP PUSH2 0x1B85 DUP3 DUP7 PUSH2 0x1A57 JUMP JUMPDEST PUSH1 0x1 DUP3 ADD SWAP2 POP PUSH2 0x1B95 DUP3 DUP6 PUSH2 0x1A57 JUMP JUMPDEST PUSH1 0x1 DUP3 ADD SWAP2 POP PUSH2 0x1BA5 DUP3 DUP5 PUSH2 0x1A57 JUMP JUMPDEST PUSH1 0x1 DUP3 ADD SWAP2 POP DUP2 SWAP1 POP SWAP13 SWAP12 POP POP POP POP POP POP POP POP POP POP POP POP JUMP JUMPDEST PUSH32 0x4652303000000000000000000000000000000000000000000000000000000000 PUSH1 0x0 DUP3 ADD MSTORE POP JUMP JUMPDEST PUSH1 0x0 PUSH2 0x1BF4 PUSH1 0x4 DUP4 PUSH2 0x1728 JUMP JUMPDEST SWAP2 POP PUSH2 0x1BFF DUP3 PUSH2 0x1BBE JUMP JUMPDEST PUSH1 0x4 DUP3 ADD SWAP1 POP SWAP2 SWAP1 POP JUMP JUMPDEST PUSH1 0x0 PUSH2 0x1C16 DUP3 DUP9 PUSH2 0x1733 JUMP JUMPDEST SWAP2 POP PUSH2 0x1C22 DUP3 DUP8 PUSH2 0x1733 JUMP JUMPDEST SWAP2 POP PUSH2 0x1C2E DUP3 DUP7 PUSH2 0x1733 JUMP JUMPDEST SWAP2 POP PUSH2 0x1C3A DUP3 DUP6 PUSH2 0x1A57 JUMP JUMPDEST PUSH1 0x1 DUP3 ADD SWAP2 POP PUSH2 0x1C4A DUP3 DUP5 PUSH2 0x1A57 JUMP JUMPDEST PUSH1 0x1 DUP3 ADD SWAP2 POP PUSH2 0x1C59 DUP3 PUSH2 0x1BE7 JUMP JUMPDEST SWAP2 POP DUP2 SWAP1 POP SWAP7 SWAP6 POP POP POP POP POP POP JUMP JUMPDEST PUSH1 0x0 PUSH2 0x1C73 DUP3 PUSH2 0x1451 JUMP JUMPDEST SWAP2 POP PUSH2 0x1C7E DUP4 PUSH2 0x1451 JUMP JUMPDEST SWAP3 POP DUP3 PUSH2 0x1C8E JUMPI PUSH2 0x1C8D PUSH2 0x18E4 JUMP JUMPDEST JUMPDEST DUP3 DUP3 DIV SWAP1 POP SWAP3 SWAP2 POP POP JUMP JUMPDEST PUSH1 0x0 PUSH2 0x1CA4 DUP3 PUSH2 0x1451 JUMP JUMPDEST SWAP2 POP PUSH32 0xFFFFFFFFFFFFFFFFFFFFFFFFFFFFFFFFFFFFFFFFFFFFFFFFFFFFFFFFFFFFFFFF DUP3 SUB PUSH2 0x1CD6 JUMPI PUSH2 0x1CD5 PUSH2 0x183F JUMP JUMPDEST JUMPDEST PUSH1 0x1 DUP3 ADD SWAP1 POP SWAP2 SWAP1 POP JUMP INVALID LOG2 PUSH5 0x6970667358 0x22 SLT KECCAK256 PC 0xC2 BYTE PUSH8 0x85BBA2C54A509765 ORIGIN 0xD0 CREATE2 CALLDATALOAD 0x1E MLOAD DUP8 SLOAD 0xBB PUSH5 0x49F7730DAC 0x2D CHAINID PUSH5 0x2EFC64736F PUSH13 0x634300081B0033000000000000 "},"methodIdentifiers":{"calculateFrenchIBAN(string,string,string)":"af3da957","calculateIBAN(string,string)":"2dccf56a","extractFrenchIBAN(string)":"b7f25bfe","frenchBBAN(string,string,string)":"9c6497a8","frenchRIBKey(uint256,uint256,uint256)":"6e619ebb","frenchStringToNumber(string)":"fa09eae1","ibanKey(uint256)":"4a534937","ibanStringToNumber(string)":"342cb582","padWithZeros(string,uint8)":"830a35bf","uintToString(uint256)":"e9395679"}}}}}