{
  "_format": "hh-sol-artifact-1",
  "contractName": "InvoiceNFT",
  "sourceName": "contracts/InvoiceNFT.sol",
  "abi": [
    {
      "inputs": [],
      "stateMutability": "nonpayable",
      "type": "constructor"
    },
    {
      "inputs": [
        {
          "internalType": "address",
          "name": "sender",
          "type": "address"
        },
        {
          "internalType": "uint256",
          "name": "tokenId",
          "type": "uint256"
        },
        {
          "internalType": "address",
          "name": "owner",
          "type": "address"
        }
      ],
      "name": "ERC721IncorrectOwner",
      "type": "error"
    },
    {
      "inputs": [
        {
          "internalType": "address",
          "name": "operator",
          "type": "address"
        },
        {
          "internalType": "uint256",
          "name": "tokenId",
          "type": "uint256"
        }
      ],
      "name": "ERC721InsufficientApproval",
      "type": "error"
    },
    {
      "inputs": [
        {
          "internalType": "address",
          "name": "approver",
          "type": "address"
        }
      ],
      "name": "ERC721InvalidApprover",
      "type": "error"
    },
    {
      "inputs": [
        {
          "internalType": "address",
          "name": "operator",
          "type": "address"
        }
      ],
      "name": "ERC721InvalidOperator",
      "type": "error"
    },
    {
      "inputs": [
        {
          "internalType": "address",
          "name": "owner",
          "type": "address"
        }
      ],
      "name": "ERC721InvalidOwner",
      "type": "error"
    },
    {
      "inputs": [
        {
          "internalType": "address",
          "name": "receiver",
          "type": "address"
        }
      ],
      "name": "ERC721InvalidReceiver",
      "type": "error"
    },
    {
      "inputs": [
        {
          "internalType": "address",
          "name": "sender",
          "type": "address"
        }
      ],
      "name": "ERC721InvalidSender",
      "type": "error"
    },
    {
      "inputs": [
        {
          "internalType": "uint256",
          "name": "tokenId",
          "type": "uint256"
        }
      ],
      "name": "ERC721NonexistentToken",
      "type": "error"
    },
    {
      "anonymous": false,
      "inputs": [
        {
          "indexed": true,
          "internalType": "address",
          "name": "owner",
          "type": "address"
        },
        {
          "indexed": true,
          "internalType": "address",
          "name": "approved",
          "type": "address"
        },
        {
          "indexed": true,
          "internalType": "uint256",
          "name": "tokenId",
          "type": "uint256"
        }
      ],
      "name": "Approval",
      "type": "event"
    },
    {
      "anonymous": false,
      "inputs": [
        {
          "indexed": true,
          "internalType": "address",
          "name": "owner",
          "type": "address"
        },
        {
          "indexed": true,
          "internalType": "address",
          "name": "operator",
          "type": "address"
        },
        {
          "indexed": false,
          "internalType": "bool",
          "name": "approved",
          "type": "bool"
        }
      ],
      "name": "ApprovalForAll",
      "type": "event"
    },
    {
      "anonymous": false,
      "inputs": [
        {
          "indexed": false,
          "internalType": "uint256",
          "name": "_fromTokenId",
          "type": "uint256"
        },
        {
          "indexed": false,
          "internalType": "uint256",
          "name": "_toTokenId",
          "type": "uint256"
        }
      ],
      "name": "BatchMetadataUpdate",
      "type": "event"
    },
    {
      "anonymous": false,
      "inputs": [
        {
          "indexed": true,
          "internalType": "uint256",
          "name": "invoiceId",
          "type": "uint256"
        },
        {
          "indexed": true,
          "internalType": "address",
          "name": "client",
          "type": "address"
        },
        {
          "indexed": true,
          "internalType": "address",
          "name": "creator",
          "type": "address"
        },
        {
          "indexed": false,
          "internalType": "uint256",
          "name": "amount",
          "type": "uint256"
        },
        {
          "indexed": false,
          "internalType": "uint256",
          "name": "dueDate",
          "type": "uint256"
        }
      ],
      "name": "InvoiceCreated",
      "type": "event"
    },
    {
      "anonymous": false,
      "inputs": [
        {
          "indexed": true,
          "internalType": "uint256",
          "name": "invoiceId",
          "type": "uint256"
        },
        {
          "indexed": true,
          "internalType": "address",
          "name": "client",
          "type": "address"
        }
      ],
      "name": "InvoicePaid",
      "type": "event"
    },
    {
      "anonymous": false,
      "inputs": [
        {
          "indexed": false,
          "internalType": "uint256",
          "name": "_tokenId",
          "type": "uint256"
        }
      ],
      "name": "MetadataUpdate",
      "type": "event"
    },
    {
      "anonymous": false,
      "inputs": [
        {
          "indexed": true,
          "internalType": "address",
          "name": "from",
          "type": "address"
        },
        {
          "indexed": true,
          "internalType": "address",
          "name": "to",
          "type": "address"
        },
        {
          "indexed": true,
          "internalType": "uint256",
          "name": "tokenId",
          "type": "uint256"
        }
      ],
      "name": "Transfer",
      "type": "event"
    },
    {
      "inputs": [
        {
          "internalType": "address",
          "name": "to",
          "type": "address"
        },
        {
          "internalType": "uint256",
          "name": "tokenId",
          "type": "uint256"
        }
      ],
      "name": "approve",
      "outputs": [],
      "stateMutability": "nonpayable",
      "type": "function"
    },
    {
      "inputs": [
        {
          "internalType": "address",
          "name": "owner",
          "type": "address"
        }
      ],
      "name": "balanceOf",
      "outputs": [
        {
          "internalType": "uint256",
          "name": "",
          "type": "uint256"
        }
      ],
      "stateMutability": "view",
      "type": "function"
    },
    {
      "inputs": [
        {
          "internalType": "address",
          "name": "_client",
          "type": "address"
        },
        {
          "internalType": "string",
          "name": "_issuer",
          "type": "string"
        },
        {
          "internalType": "string",
          "name": "_description",
          "type": "string"
        },
        {
          "internalType": "uint256",
          "name": "_amount",
          "type": "uint256"
        },
        {
          "internalType": "string",
          "name": "_currency",
          "type": "string"
        },
        {
          "internalType": "uint256",
          "name": "_dueDate",
          "type": "uint256"
        },
        {
          "internalType": "string",
          "name": "_paymentInfo",
          "type": "string"
        }
      ],
      "name": "createInvoice",
      "outputs": [
        {
          "internalType": "uint256",
          "name": "",
          "type": "uint256"
        }
      ],
      "stateMutability": "nonpayable",
      "type": "function"
    },
    {
      "inputs": [
        {
          "internalType": "uint256",
          "name": "tokenId",
          "type": "uint256"
        }
      ],
      "name": "getApproved",
      "outputs": [
        {
          "internalType": "address",
          "name": "",
          "type": "address"
        }
      ],
      "stateMutability": "view",
      "type": "function"
    },
    {
      "inputs": [
        {
          "internalType": "uint256",
          "name": "_invoiceId",
          "type": "uint256"
        }
      ],
      "name": "getInvoiceDetails",
      "outputs": [
        {
          "components": [
            {
              "internalType": "uint256",
              "name": "id",
              "type": "uint256"
            },
            {
              "internalType": "address",
              "name": "client",
              "type": "address"
            },
            {
              "internalType": "address",
              "name": "creator",
              "type": "address"
            },
            {
              "internalType": "string",
              "name": "issuer",
              "type": "string"
            },
            {
              "internalType": "string",
              "name": "description",
              "type": "string"
            },
            {
              "internalType": "uint256",
              "name": "amount",
              "type": "uint256"
            },
            {
              "internalType": "string",
              "name": "currency",
              "type": "string"
            },
            {
              "internalType": "enum InvoiceNFT.InvoiceStatus",
              "name": "status",
              "type": "uint8"
            },
            {
              "internalType": "uint256",
              "name": "dueDate",
              "type": "uint256"
            },
            {
              "internalType": "string",
              "name": "paymentInfo",
              "type": "string"
            },
            {
              "internalType": "uint256",
              "name": "issueDate",
              "type": "uint256"
            }
          ],
          "internalType": "struct InvoiceNFT.Invoice",
          "name": "",
          "type": "tuple"
        }
      ],
      "stateMutability": "view",
      "type": "function"
    },
    {
      "inputs": [
        {
          "internalType": "uint256",
          "name": "_invoiceId",
          "type": "uint256"
        }
      ],
      "name": "getInvoiceStatus",
      "outputs": [
        {
          "internalType": "enum InvoiceNFT.InvoiceStatus",
          "name": "",
          "type": "uint8"
        }
      ],
      "stateMutability": "view",
      "type": "function"
    },
    {
      "inputs": [
        {
          "internalType": "address",
          "name": "owner",
          "type": "address"
        },
        {
          "internalType": "address",
          "name": "operator",
          "type": "address"
        }
      ],
      "name": "isApprovedForAll",
      "outputs": [
        {
          "internalType": "bool",
          "name": "",
          "type": "bool"
        }
      ],
      "stateMutability": "view",
      "type": "function"
    },
    {
      "inputs": [
        {
          "internalType": "uint256",
          "name": "_invoiceId",
          "type": "uint256"
        },
        {
          "internalType": "address",
          "name": "_address",
          "type": "address"
        }
      ],
      "name": "isInvoiceCreator",
      "outputs": [
        {
          "internalType": "bool",
          "name": "",
          "type": "bool"
        }
      ],
      "stateMutability": "view",
      "type": "function"
    },
    {
      "inputs": [
        {
          "internalType": "uint256",
          "name": "_invoiceId",
          "type": "uint256"
        }
      ],
      "name": "markAsPaid",
      "outputs": [],
      "stateMutability": "nonpayable",
      "type": "function"
    },
    {
      "inputs": [],
      "name": "name",
      "outputs": [
        {
          "internalType": "string",
          "name": "",
          "type": "string"
        }
      ],
      "stateMutability": "view",
      "type": "function"
    },
    {
      "inputs": [
        {
          "internalType": "uint256",
          "name": "tokenId",
          "type": "uint256"
        }
      ],
      "name": "ownerOf",
      "outputs": [
        {
          "internalType": "address",
          "name": "",
          "type": "address"
        }
      ],
      "stateMutability": "view",
      "type": "function"
    },
    {
      "inputs": [
        {
          "internalType": "address",
          "name": "from",
          "type": "address"
        },
        {
          "internalType": "address",
          "name": "to",
          "type": "address"
        },
        {
          "internalType": "uint256",
          "name": "tokenId",
          "type": "uint256"
        }
      ],
      "name": "safeTransferFrom",
      "outputs": [],
      "stateMutability": "nonpayable",
      "type": "function"
    },
    {
      "inputs": [
        {
          "internalType": "address",
          "name": "from",
          "type": "address"
        },
        {
          "internalType": "address",
          "name": "to",
          "type": "address"
        },
        {
          "internalType": "uint256",
          "name": "tokenId",
          "type": "uint256"
        },
        {
          "internalType": "bytes",
          "name": "data",
          "type": "bytes"
        }
      ],
      "name": "safeTransferFrom",
      "outputs": [],
      "stateMutability": "nonpayable",
      "type": "function"
    },
    {
      "inputs": [
        {
          "internalType": "address",
          "name": "operator",
          "type": "address"
        },
        {
          "internalType": "bool",
          "name": "approved",
          "type": "bool"
        }
      ],
      "name": "setApprovalForAll",
      "outputs": [],
      "stateMutability": "nonpayable",
      "type": "function"
    },
    {
      "inputs": [
        {
          "internalType": "bytes4",
          "name": "interfaceId",
          "type": "bytes4"
        }
      ],
      "name": "supportsInterface",
      "outputs": [
        {
          "internalType": "bool",
          "name": "",
          "type": "bool"
        }
      ],
      "stateMutability": "view",
      "type": "function"
    },
    {
      "inputs": [],
      "name": "symbol",
      "outputs": [
        {
          "internalType": "string",
          "name": "",
          "type": "string"
        }
      ],
      "stateMutability": "view",
      "type": "function"
    },
    {
      "inputs": [
        {
          "internalType": "uint256",
          "name": "tokenId",
          "type": "uint256"
        }
      ],
      "name": "tokenURI",
      "outputs": [
        {
          "internalType": "string",
          "name": "",
          "type": "string"
        }
      ],
      "stateMutability": "view",
      "type": "function"
    },
    {
      "inputs": [
        {
          "internalType": "address",
          "name": "from",
          "type": "address"
        },
        {
          "internalType": "address",
          "name": "to",
          "type": "address"
        },
        {
          "internalType": "uint256",
          "name": "tokenId",
          "type": "uint256"
        }
      ],
      "name": "transferFrom",
      "outputs": [],
      "stateMutability": "nonpayable",
      "type": "function"
    }
  ],
  "bytecode": "0x608060405234801561001057600080fd5b506040518060400160405280600a81526020017f496e766f6963654e4654000000000000000000000000000000000000000000008152506040518060400160405280600681526020017f494e564e46540000000000000000000000000000000000000000000000000000815250816000908161008c91906102fc565b50806001908161009c91906102fc565b50505060016007819055506103ce565b600081519050919050565b7f4e487b7100000000000000000000000000000000000000000000000000000000600052604160045260246000fd5b7f4e487b7100000000000000000000000000000000000000000000000000000000600052602260045260246000fd5b6000600282049050600182168061012d57607f821691505b6020821081036101405761013f6100e6565b5b50919050565b60008190508160005260206000209050919050565b60006020601f8301049050919050565b600082821b905092915050565b6000600883026101a87fffffffffffffffffffffffffffffffffffffffffffffffffffffffffffffffff8261016b565b6101b2868361016b565b95508019841693508086168417925050509392505050565b6000819050919050565b6000819050919050565b60006101f96101f46101ef846101ca565b6101d4565b6101ca565b9050919050565b6000819050919050565b610213836101de565b61022761021f82610200565b848454610178565b825550505050565b600090565b61023c61022f565b61024781848461020a565b505050565b5b8181101561026b57610260600082610234565b60018101905061024d565b5050565b601f8211156102b05761028181610146565b61028a8461015b565b81016020851015610299578190505b6102ad6102a58561015b565b83018261024c565b50505b505050565b600082821c905092915050565b60006102d3600019846008026102b5565b1980831691505092915050565b60006102ec83836102c2565b9150826002028217905092915050565b610305826100ac565b67ffffffffffffffff81111561031e5761031d6100b7565b5b6103288254610115565b61033382828561026f565b600060209050601f8311600181146103665760008415610354578287015190505b61035e85826102e0565b8655506103c6565b601f19841661037486610146565b60005b8281101561039c57848901518255600182019150602085019450602081019050610377565b868310156103b957848901516103b5601f8916826102c2565b8355505b6001600288020188555050505b505050505050565b6138de806103dd6000396000f3fe608060405234801561001057600080fd5b50600436106101165760003560e01c806370a08231116100a2578063b88d4fde11610071578063b88d4fde14610303578063c87b56dd1461031f578063e985e9c51461034f578063eba5ac0c1461037f578063f1fb380c146103af57610116565b806370a0823114610269578063909a708a1461029957806395d89b41146102c9578063a22cb465146102e757610116565b8063178c5b52116100e9578063178c5b52146101b557806323b872dd146101e557806342842e0e146102015780636352211e1461021d5780637021cafe1461024d57610116565b806301ffc9a71461011b57806306fdde031461014b578063081812fc14610169578063095ea7b314610199575b600080fd5b610135600480360381019061013091906124c6565b6103df565b604051610142919061250e565b60405180910390f35b610153610440565b60405161016091906125b9565b60405180910390f35b610183600480360381019061017e9190612611565b6104d2565b604051610190919061267f565b60405180910390f35b6101b360048036038101906101ae91906126c6565b6104ee565b005b6101cf60048036038101906101ca9190612611565b610504565b6040516101dc919061277d565b60405180910390f35b6101ff60048036038101906101fa9190612798565b610579565b005b61021b60048036038101906102169190612798565b61067b565b005b61023760048036038101906102329190612611565b61069b565b604051610244919061267f565b60405180910390f35b61026760048036038101906102629190612611565b6106ad565b005b610283600480360381019061027e91906127eb565b610896565b6040516102909190612827565b60405180910390f35b6102b360048036038101906102ae9190612611565b610950565b6040516102c091906129bd565b60405180910390f35b6102d1610d1d565b6040516102de91906125b9565b60405180910390f35b61030160048036038101906102fc9190612a0b565b610daf565b005b61031d60048036038101906103189190612b80565b610dc5565b005b61033960048036038101906103349190612611565b610de2565b60405161034691906125b9565b60405180910390f35b61036960048036038101906103649190612c03565b610ef5565b604051610376919061250e565b60405180910390f35b61039960048036038101906103949190612ce4565b610f89565b6040516103a69190612827565b60405180910390f35b6103c960048036038101906103c49190612df6565b61127e565b6040516103d6919061250e565b60405180910390f35b6000634906490660e01b7bffffffffffffffffffffffffffffffffffffffffffffffffffffffff1916827bffffffffffffffffffffffffffffffffffffffffffffffffffffffff191614806104395750610438826112ed565b5b9050919050565b60606000805461044f90612e65565b80601f016020809104026020016040519081016040528092919081815260200182805461047b90612e65565b80156104c85780601f1061049d576101008083540402835291602001916104c8565b820191906000526020600020905b8154815290600101906020018083116104ab57829003601f168201915b5050505050905090565b60006104dd826113cf565b506104e782611457565b9050919050565b61050082826104fb611494565b61149c565b5050565b600061050f826114ae565b61054e576040517f08c379a000000000000000000000000000000000000000000000000000000000815260040161054590612f08565b60405180910390fd5b6008600083815260200190815260200160002060070160009054906101000a900460ff169050919050565b600073ffffffffffffffffffffffffffffffffffffffff168273ffffffffffffffffffffffffffffffffffffffff16036105eb5760006040517f64a0ae920000000000000000000000000000000000000000000000000000000081526004016105e2919061267f565b60405180910390fd5b60006105ff83836105fa611494565b6114ef565b90508373ffffffffffffffffffffffffffffffffffffffff168173ffffffffffffffffffffffffffffffffffffffff1614610675578382826040517f64283d7b00000000000000000000000000000000000000000000000000000000815260040161066c93929190612f28565b60405180910390fd5b50505050565b61069683838360405180602001604052806000815250610dc5565b505050565b60006106a6826113cf565b9050919050565b6008600082815260200190815260200160002060020160009054906101000a900473ffffffffffffffffffffffffffffffffffffffff1673ffffffffffffffffffffffffffffffffffffffff163373ffffffffffffffffffffffffffffffffffffffff1614610751576040517f08c379a000000000000000000000000000000000000000000000000000000000815260040161074890612fd1565b60405180910390fd5b60018081111561076457610763612706565b5b6008600083815260200190815260200160002060070160009054906101000a900460ff16600181111561079a57610799612706565b5b036107da576040517f08c379a00000000000000000000000000000000000000000000000000000000081526004016107d19061303d565b60405180910390fd5b60016008600083815260200190815260200160002060070160006101000a81548160ff0219169083600181111561081457610813612706565b5b02179055506008600082815260200190815260200160002060010160009054906101000a900473ffffffffffffffffffffffffffffffffffffffff1673ffffffffffffffffffffffffffffffffffffffff16817fb721ab7d2767e645e582c99d779d54bb3193114ad7d13e7bd7f7f2fd9b1875b460405160405180910390a350565b60008073ffffffffffffffffffffffffffffffffffffffff168273ffffffffffffffffffffffffffffffffffffffff16036109095760006040517f89c62b64000000000000000000000000000000000000000000000000000000008152600401610900919061267f565b60405180910390fd5b600360008373ffffffffffffffffffffffffffffffffffffffff1673ffffffffffffffffffffffffffffffffffffffff168152602001908152602001600020549050919050565b6109586123c2565b610961826114ae565b6109a0576040517f08c379a000000000000000000000000000000000000000000000000000000000815260040161099790612f08565b60405180910390fd5b6008600083815260200190815260200160002060405180610160016040529081600082015481526020016001820160009054906101000a900473ffffffffffffffffffffffffffffffffffffffff1673ffffffffffffffffffffffffffffffffffffffff1673ffffffffffffffffffffffffffffffffffffffff1681526020016002820160009054906101000a900473ffffffffffffffffffffffffffffffffffffffff1673ffffffffffffffffffffffffffffffffffffffff1673ffffffffffffffffffffffffffffffffffffffff168152602001600382018054610a8590612e65565b80601f0160208091040260200160405190810160405280929190818152602001828054610ab190612e65565b8015610afe5780601f10610ad357610100808354040283529160200191610afe565b820191906000526020600020905b815481529060010190602001808311610ae157829003601f168201915b50505050508152602001600482018054610b1790612e65565b80601f0160208091040260200160405190810160405280929190818152602001828054610b4390612e65565b8015610b905780601f10610b6557610100808354040283529160200191610b90565b820191906000526020600020905b815481529060010190602001808311610b7357829003601f168201915b5050505050815260200160058201548152602001600682018054610bb390612e65565b80601f0160208091040260200160405190810160405280929190818152602001828054610bdf90612e65565b8015610c2c5780601f10610c0157610100808354040283529160200191610c2c565b820191906000526020600020905b815481529060010190602001808311610c0f57829003601f168201915b505050505081526020016007820160009054906101000a900460ff166001811115610c5a57610c59612706565b5b6001811115610c6c57610c6b612706565b5b815260200160088201548152602001600982018054610c8a90612e65565b80601f0160208091040260200160405190810160405280929190818152602001828054610cb690612e65565b8015610d035780601f10610cd857610100808354040283529160200191610d03565b820191906000526020600020905b815481529060010190602001808311610ce657829003601f168201915b50505050508152602001600a820154815250509050919050565b606060018054610d2c90612e65565b80601f0160208091040260200160405190810160405280929190818152602001828054610d5890612e65565b8015610da55780601f10610d7a57610100808354040283529160200191610da5565b820191906000526020600020905b815481529060010190602001808311610d8857829003601f168201915b5050505050905090565b610dc1610dba611494565b8383611709565b5050565b610dd0848484610579565b610ddc84848484611878565b50505050565b6060610ded826113cf565b506000600660008481526020019081526020016000208054610e0e90612e65565b80601f0160208091040260200160405190810160405280929190818152602001828054610e3a90612e65565b8015610e875780601f10610e5c57610100808354040283529160200191610e87565b820191906000526020600020905b815481529060010190602001808311610e6a57829003601f168201915b505050505090506000610e98611a2f565b90506000815103610ead578192505050610ef0565b600082511115610ee2578082604051602001610eca929190613099565b60405160208183030381529060405292505050610ef0565b610eeb84611a46565b925050505b919050565b6000600560008473ffffffffffffffffffffffffffffffffffffffff1673ffffffffffffffffffffffffffffffffffffffff16815260200190815260200160002060008373ffffffffffffffffffffffffffffffffffffffff1673ffffffffffffffffffffffffffffffffffffffff16815260200190815260200160002060009054906101000a900460ff16905092915050565b600080600754905060076000815480929190610fa4906130ec565b91905055506040518061016001604052808281526020018a73ffffffffffffffffffffffffffffffffffffffff1681526020013373ffffffffffffffffffffffffffffffffffffffff1681526020018981526020018881526020018781526020018681526020016000600181111561101f5761101e612706565b5b815260200185815260200184815260200142815250600860008381526020019081526020016000206000820151816000015560208201518160010160006101000a81548173ffffffffffffffffffffffffffffffffffffffff021916908373ffffffffffffffffffffffffffffffffffffffff16021790555060408201518160020160006101000a81548173ffffffffffffffffffffffffffffffffffffffff021916908373ffffffffffffffffffffffffffffffffffffffff16021790555060608201518160030190816110f491906132e0565b50608082015181600401908161110a91906132e0565b5060a0820151816005015560c082015181600601908161112a91906132e0565b5060e08201518160070160006101000a81548160ff0219169083600181111561115657611155612706565b5b0217905550610100820151816008015561012082015181600901908161117c91906132e0565b5061014082015181600a01559050506111958982611aaf565b60006111d56111a383611acd565b896111ad8a611acd565b896040516020016111c1949392919061357a565b604051602081830303815290604052611b9b565b90506000816040516020016111ea919061363b565b60405160208183030381529060405290506112058382611d0d565b3373ffffffffffffffffffffffffffffffffffffffff168b73ffffffffffffffffffffffffffffffffffffffff16847f3fbaae0f1597d7f24bf2231a5fe5248190743aecc5f3da7126965e14e3f1ca4d8b8a60405161126592919061365d565b60405180910390a4829350505050979650505050505050565b60008173ffffffffffffffffffffffffffffffffffffffff166008600085815260200190815260200160002060020160009054906101000a900473ffffffffffffffffffffffffffffffffffffffff1673ffffffffffffffffffffffffffffffffffffffff1614905092915050565b60007f80ac58cd000000000000000000000000000000000000000000000000000000007bffffffffffffffffffffffffffffffffffffffffffffffffffffffff1916827bffffffffffffffffffffffffffffffffffffffffffffffffffffffff191614806113b857507f5b5e139f000000000000000000000000000000000000000000000000000000007bffffffffffffffffffffffffffffffffffffffffffffffffffffffff1916827bffffffffffffffffffffffffffffffffffffffffffffffffffffffff1916145b806113c857506113c782611d69565b5b9050919050565b6000806113db83611dd3565b9050600073ffffffffffffffffffffffffffffffffffffffff168173ffffffffffffffffffffffffffffffffffffffff160361144e57826040517f7e2732890000000000000000000000000000000000000000000000000000000081526004016114459190612827565b60405180910390fd5b80915050919050565b60006004600083815260200190815260200160002060009054906101000a900473ffffffffffffffffffffffffffffffffffffffff169050919050565b600033905090565b6114a98383836001611e10565b505050565b60008073ffffffffffffffffffffffffffffffffffffffff166114d083611dd3565b73ffffffffffffffffffffffffffffffffffffffff1614159050919050565b6000806114fb84611dd3565b9050600073ffffffffffffffffffffffffffffffffffffffff168373ffffffffffffffffffffffffffffffffffffffff161461153d5761153c818486611fd5565b5b600073ffffffffffffffffffffffffffffffffffffffff168173ffffffffffffffffffffffffffffffffffffffff16146115ce5761157f600085600080611e10565b6001600360008373ffffffffffffffffffffffffffffffffffffffff1673ffffffffffffffffffffffffffffffffffffffff168152602001908152602001600020600082825403925050819055505b600073ffffffffffffffffffffffffffffffffffffffff168573ffffffffffffffffffffffffffffffffffffffff1614611651576001600360008773ffffffffffffffffffffffffffffffffffffffff1673ffffffffffffffffffffffffffffffffffffffff168152602001908152602001600020600082825401925050819055505b846002600086815260200190815260200160002060006101000a81548173ffffffffffffffffffffffffffffffffffffffff021916908373ffffffffffffffffffffffffffffffffffffffff160217905550838573ffffffffffffffffffffffffffffffffffffffff168273ffffffffffffffffffffffffffffffffffffffff167fddf252ad1be2c89b69c2b068fc378daa952ba7f163c4a11628f55a4df523b3ef60405160405180910390a4809150509392505050565b600073ffffffffffffffffffffffffffffffffffffffff168273ffffffffffffffffffffffffffffffffffffffff160361177a57816040517f5b08ba18000000000000000000000000000000000000000000000000000000008152600401611771919061267f565b60405180910390fd5b80600560008573ffffffffffffffffffffffffffffffffffffffff1673ffffffffffffffffffffffffffffffffffffffff16815260200190815260200160002060008473ffffffffffffffffffffffffffffffffffffffff1673ffffffffffffffffffffffffffffffffffffffff16815260200190815260200160002060006101000a81548160ff0219169083151502179055508173ffffffffffffffffffffffffffffffffffffffff168373ffffffffffffffffffffffffffffffffffffffff167f17307eab39ab6107e8899845ad3d59bd9653f200f220920489ca2b5937696c318360405161186b919061250e565b60405180910390a3505050565b60008373ffffffffffffffffffffffffffffffffffffffff163b1115611a29578273ffffffffffffffffffffffffffffffffffffffff1663150b7a026118bc611494565b8685856040518563ffffffff1660e01b81526004016118de94939291906136db565b6020604051808303816000875af192505050801561191a57506040513d601f19601f82011682018060405250810190611917919061373c565b60015b61199e573d806000811461194a576040519150601f19603f3d011682016040523d82523d6000602084013e61194f565b606091505b50600081510361199657836040517f64a0ae9200000000000000000000000000000000000000000000000000000000815260040161198d919061267f565b60405180910390fd5b805181602001fd5b63150b7a0260e01b7bffffffffffffffffffffffffffffffffffffffffffffffffffffffff1916817bffffffffffffffffffffffffffffffffffffffffffffffffffffffff191614611a2757836040517f64a0ae92000000000000000000000000000000000000000000000000000000008152600401611a1e919061267f565b60405180910390fd5b505b50505050565b606060405180602001604052806000815250905090565b6060611a51826113cf565b506000611a5c611a2f565b90506000815111611a7c5760405180602001604052806000815250611aa7565b80611a8684611acd565b604051602001611a97929190613099565b6040516020818303038152906040525b915050919050565b611ac9828260405180602001604052806000815250612099565b5050565b606060006001611adc846120b5565b01905060008167ffffffffffffffff811115611afb57611afa612a55565b5b6040519080825280601f01601f191660200182016040528015611b2d5781602001600182028036833780820191505090505b509050600082602001820190505b600115611b90578080600190039150507f3031323334353637383961626364656600000000000000000000000000000000600a86061a8153600a8581611b8457611b83613769565b5b04945060008503611b3b575b819350505050919050565b60606000825103611bbd57604051806020016040528060008152509050611d08565b60006040518060600160405280604081526020016138696040913990506000600360028551611bec9190613798565b611bf691906137cc565b6004611c0291906137fd565b67ffffffffffffffff811115611c1b57611c1a612a55565b5b6040519080825280601f01601f191660200182016040528015611c4d5781602001600182028036833780820191505090505b50905060018201602082018586518701602081018051600082525b82841015611cc3576003840193508351603f8160121c168701518653600186019550603f81600c1c168701518653600186019550603f8160061c168701518653600186019550603f8116870151865360018601955050611c68565b80825260038a510660018114611ce05760028114611cf357611cfb565b603d6001870353603d6002870353611cfb565b603d60018703535b5050505050505080925050505b919050565b80600660008481526020019081526020016000209081611d2d91906132e0565b507ff8e1a15aba9398e019f0b49df1a4fde98ee17ae345cb5f6b5e2c27f5033e8ce782604051611d5d9190612827565b60405180910390a15050565b60007f01ffc9a7000000000000000000000000000000000000000000000000000000007bffffffffffffffffffffffffffffffffffffffffffffffffffffffff1916827bffffffffffffffffffffffffffffffffffffffffffffffffffffffff1916149050919050565b60006002600083815260200190815260200160002060009054906101000a900473ffffffffffffffffffffffffffffffffffffffff169050919050565b8080611e495750600073ffffffffffffffffffffffffffffffffffffffff168273ffffffffffffffffffffffffffffffffffffffff1614155b15611f7d576000611e59846113cf565b9050600073ffffffffffffffffffffffffffffffffffffffff168373ffffffffffffffffffffffffffffffffffffffff1614158015611ec457508273ffffffffffffffffffffffffffffffffffffffff168173ffffffffffffffffffffffffffffffffffffffff1614155b8015611ed75750611ed58184610ef5565b155b15611f1957826040517fa9fbf51f000000000000000000000000000000000000000000000000000000008152600401611f10919061267f565b60405180910390fd5b8115611f7b57838573ffffffffffffffffffffffffffffffffffffffff168273ffffffffffffffffffffffffffffffffffffffff167f8c5be1e5ebec7d5bd14f71427d1e84f3dd0314c0f7b2291e5b200ac8c7c3b92560405160405180910390a45b505b836004600085815260200190815260200160002060006101000a81548173ffffffffffffffffffffffffffffffffffffffff021916908373ffffffffffffffffffffffffffffffffffffffff16021790555050505050565b611fe0838383612208565b61209457600073ffffffffffffffffffffffffffffffffffffffff168373ffffffffffffffffffffffffffffffffffffffff160361205557806040517f7e27328900000000000000000000000000000000000000000000000000000000815260040161204c9190612827565b60405180910390fd5b81816040517f177e802f00000000000000000000000000000000000000000000000000000000815260040161208b92919061383f565b60405180910390fd5b505050565b6120a383836122c9565b6120b06000848484611878565b505050565b600080600090507a184f03e93ff9f4daa797ed6e38ed64bf6a1f0100000000000000008310612113577a184f03e93ff9f4daa797ed6e38ed64bf6a1f010000000000000000838161210957612108613769565b5b0492506040810190505b6d04ee2d6d415b85acef81000000008310612150576d04ee2d6d415b85acef8100000000838161214657612145613769565b5b0492506020810190505b662386f26fc10000831061217f57662386f26fc10000838161217557612174613769565b5b0492506010810190505b6305f5e10083106121a8576305f5e100838161219e5761219d613769565b5b0492506008810190505b61271083106121cd5761271083816121c3576121c2613769565b5b0492506004810190505b606483106121f057606483816121e6576121e5613769565b5b0492506002810190505b600a83106121ff576001810190505b80915050919050565b60008073ffffffffffffffffffffffffffffffffffffffff168373ffffffffffffffffffffffffffffffffffffffff16141580156122c057508273ffffffffffffffffffffffffffffffffffffffff168473ffffffffffffffffffffffffffffffffffffffff16148061228157506122808484610ef5565b5b806122bf57508273ffffffffffffffffffffffffffffffffffffffff166122a783611457565b73ffffffffffffffffffffffffffffffffffffffff16145b5b90509392505050565b600073ffffffffffffffffffffffffffffffffffffffff168273ffffffffffffffffffffffffffffffffffffffff160361233b5760006040517f64a0ae92000000000000000000000000000000000000000000000000000000008152600401612332919061267f565b60405180910390fd5b6000612349838360006114ef565b9050600073ffffffffffffffffffffffffffffffffffffffff168173ffffffffffffffffffffffffffffffffffffffff16146123bd5760006040517f73c6ac6e0000000000000000000000000000000000000000000000000000000081526004016123b4919061267f565b60405180910390fd5b505050565b60405180610160016040528060008152602001600073ffffffffffffffffffffffffffffffffffffffff168152602001600073ffffffffffffffffffffffffffffffffffffffff168152602001606081526020016060815260200160008152602001606081526020016000600181111561243f5761243e612706565b5b81526020016000815260200160608152602001600081525090565b6000604051905090565b600080fd5b600080fd5b60007fffffffff0000000000000000000000000000000000000000000000000000000082169050919050565b6124a38161246e565b81146124ae57600080fd5b50565b6000813590506124c08161249a565b92915050565b6000602082840312156124dc576124db612464565b5b60006124ea848285016124b1565b91505092915050565b60008115159050919050565b612508816124f3565b82525050565b600060208201905061252360008301846124ff565b92915050565b600081519050919050565b600082825260208201905092915050565b60005b83811015612563578082015181840152602081019050612548565b60008484015250505050565b6000601f19601f8301169050919050565b600061258b82612529565b6125958185612534565b93506125a5818560208601612545565b6125ae8161256f565b840191505092915050565b600060208201905081810360008301526125d38184612580565b905092915050565b6000819050919050565b6125ee816125db565b81146125f957600080fd5b50565b60008135905061260b816125e5565b92915050565b60006020828403121561262757612626612464565b5b6000612635848285016125fc565b91505092915050565b600073ffffffffffffffffffffffffffffffffffffffff82169050919050565b60006126698261263e565b9050919050565b6126798161265e565b82525050565b60006020820190506126946000830184612670565b92915050565b6126a38161265e565b81146126ae57600080fd5b50565b6000813590506126c08161269a565b92915050565b600080604083850312156126dd576126dc612464565b5b60006126eb858286016126b1565b92505060206126fc858286016125fc565b9150509250929050565b7f4e487b7100000000000000000000000000000000000000000000000000000000600052602160045260246000fd5b6002811061274657612745612706565b5b50565b600081905061275782612735565b919050565b600061276782612749565b9050919050565b6127778161275c565b82525050565b6000602082019050612792600083018461276e565b92915050565b6000806000606084860312156127b1576127b0612464565b5b60006127bf868287016126b1565b93505060206127d0868287016126b1565b92505060406127e1868287016125fc565b9150509250925092565b60006020828403121561280157612800612464565b5b600061280f848285016126b1565b91505092915050565b612821816125db565b82525050565b600060208201905061283c6000830184612818565b92915050565b61284b816125db565b82525050565b61285a8161265e565b82525050565b600082825260208201905092915050565b600061287c82612529565b6128868185612860565b9350612896818560208601612545565b61289f8161256f565b840191505092915050565b6128b38161275c565b82525050565b6000610160830160008301516128d26000860182612842565b5060208301516128e56020860182612851565b5060408301516128f86040860182612851565b50606083015184820360608601526129108282612871565b9150506080830151848203608086015261292a8282612871565b91505060a083015161293f60a0860182612842565b5060c083015184820360c08601526129578282612871565b91505060e083015161296c60e08601826128aa565b50610100830151612981610100860182612842565b5061012083015184820361012086015261299b8282612871565b9150506101408301516129b2610140860182612842565b508091505092915050565b600060208201905081810360008301526129d781846128b9565b905092915050565b6129e8816124f3565b81146129f357600080fd5b50565b600081359050612a05816129df565b92915050565b60008060408385031215612a2257612a21612464565b5b6000612a30858286016126b1565b9250506020612a41858286016129f6565b9150509250929050565b600080fd5b600080fd5b7f4e487b7100000000000000000000000000000000000000000000000000000000600052604160045260246000fd5b612a8d8261256f565b810181811067ffffffffffffffff82111715612aac57612aab612a55565b5b80604052505050565b6000612abf61245a565b9050612acb8282612a84565b919050565b600067ffffffffffffffff821115612aeb57612aea612a55565b5b612af48261256f565b9050602081019050919050565b82818337600083830152505050565b6000612b23612b1e84612ad0565b612ab5565b905082815260208101848484011115612b3f57612b3e612a50565b5b612b4a848285612b01565b509392505050565b600082601f830112612b6757612b66612a4b565b5b8135612b77848260208601612b10565b91505092915050565b60008060008060808587031215612b9a57612b99612464565b5b6000612ba8878288016126b1565b9450506020612bb9878288016126b1565b9350506040612bca878288016125fc565b925050606085013567ffffffffffffffff811115612beb57612bea612469565b5b612bf787828801612b52565b91505092959194509250565b60008060408385031215612c1a57612c19612464565b5b6000612c28858286016126b1565b9250506020612c39858286016126b1565b9150509250929050565b600067ffffffffffffffff821115612c5e57612c5d612a55565b5b612c678261256f565b9050602081019050919050565b6000612c87612c8284612c43565b612ab5565b905082815260208101848484011115612ca357612ca2612a50565b5b612cae848285612b01565b509392505050565b600082601f830112612ccb57612cca612a4b565b5b8135612cdb848260208601612c74565b91505092915050565b600080600080600080600060e0888a031215612d0357612d02612464565b5b6000612d118a828b016126b1565b975050602088013567ffffffffffffffff811115612d3257612d31612469565b5b612d3e8a828b01612cb6565b965050604088013567ffffffffffffffff811115612d5f57612d5e612469565b5b612d6b8a828b01612cb6565b9550506060612d7c8a828b016125fc565b945050608088013567ffffffffffffffff811115612d9d57612d9c612469565b5b612da98a828b01612cb6565b93505060a0612dba8a828b016125fc565b92505060c088013567ffffffffffffffff811115612ddb57612dda612469565b5b612de78a828b01612cb6565b91505092959891949750929550565b60008060408385031215612e0d57612e0c612464565b5b6000612e1b858286016125fc565b9250506020612e2c858286016126b1565b9150509250929050565b7f4e487b7100000000000000000000000000000000000000000000000000000000600052602260045260246000fd5b60006002820490506001821680612e7d57607f821691505b602082108103612e9057612e8f612e36565b5b50919050565b7f4c65204e46542064652063657474652066616374757265206e2765786973746560008201527f2070617300000000000000000000000000000000000000000000000000000000602082015250565b6000612ef2602483612534565b9150612efd82612e96565b604082019050919050565b60006020820190508181036000830152612f2181612ee5565b9050919050565b6000606082019050612f3d6000830186612670565b612f4a6020830185612818565b612f576040830184612670565b949350505050565b7f5365756c206c65206372656174657572206465206c612066616374757265207060008201527f657574206c61206d61727175657220636f6d6d65207061796565000000000000602082015250565b6000612fbb603a83612534565b9150612fc682612f5f565b604082019050919050565b60006020820190508181036000830152612fea81612fae565b9050919050565b7f4c612066616374757265206573742064656a612070617965652e000000000000600082015250565b6000613027601a83612534565b915061303282612ff1565b602082019050919050565b600060208201905081810360008301526130568161301a565b9050919050565b600081905092915050565b600061307382612529565b61307d818561305d565b935061308d818560208601612545565b80840191505092915050565b60006130a58285613068565b91506130b18284613068565b91508190509392505050565b7f4e487b7100000000000000000000000000000000000000000000000000000000600052601160045260246000fd5b60006130f7826125db565b91507fffffffffffffffffffffffffffffffffffffffffffffffffffffffffffffffff8203613129576131286130bd565b5b600182019050919050565b60008190508160005260206000209050919050565b60006020601f8301049050919050565b600082821b905092915050565b6000600883026131967fffffffffffffffffffffffffffffffffffffffffffffffffffffffffffffffff82613159565b6131a08683613159565b95508019841693508086168417925050509392505050565b6000819050919050565b60006131dd6131d86131d3846125db565b6131b8565b6125db565b9050919050565b6000819050919050565b6131f7836131c2565b61320b613203826131e4565b848454613166565b825550505050565b600090565b613220613213565b61322b8184846131ee565b505050565b5b8181101561324f57613244600082613218565b600181019050613231565b5050565b601f8211156132945761326581613134565b61326e84613149565b8101602085101561327d578190505b61329161328985613149565b830182613230565b50505b505050565b600082821c905092915050565b60006132b760001984600802613299565b1980831691505092915050565b60006132d083836132a6565b9150826002028217905092915050565b6132e982612529565b67ffffffffffffffff81111561330257613301612a55565b5b61330c8254612e65565b613317828285613253565b600060209050601f83116001811461334a5760008415613338578287015190505b61334285826132c4565b8655506133aa565b601f19841661335886613134565b60005b828110156133805784890151825560018201915060208501945060208101905061335b565b8683101561339d5784890151613399601f8916826132a6565b8355505b6001600288020188555050505b505050505050565b7f7b226e616d65223a202246616374757265202300000000000000000000000000600082015250565b60006133e860138361305d565b91506133f3826133b2565b601382019050919050565b7f222c20226465736372697074696f6e223a202200000000000000000000000000600082015250565b600061343460138361305d565b915061343f826133fe565b601382019050919050565b7f222c202261747472696275746573223a205b7b2274726169745f74797065223a60008201527f20224d6f6e74616e74222c202276616c7565223a202200000000000000000000602082015250565b60006134a660368361305d565b91506134b18261344a565b603682019050919050565b7f2000000000000000000000000000000000000000000000000000000000000000600082015250565b60006134f260018361305d565b91506134fd826134bc565b600182019050919050565b7f227d2c207b2274726169745f74797065223a2022537461747574222c2022766160008201527f6c7565223a2022456d6973227d5d7d0000000000000000000000000000000000602082015250565b6000613564602f8361305d565b915061356f82613508565b602f82019050919050565b6000613585826133db565b91506135918287613068565b915061359c82613427565b91506135a88286613068565b91506135b382613499565b91506135bf8285613068565b91506135ca826134e5565b91506135d68284613068565b91506135e182613557565b915081905095945050505050565b7f646174613a6170706c69636174696f6e2f6a736f6e3b6261736536342c000000600082015250565b6000613625601d8361305d565b9150613630826135ef565b601d82019050919050565b600061364682613618565b91506136528284613068565b915081905092915050565b60006040820190506136726000830185612818565b61367f6020830184612818565b9392505050565b600081519050919050565b600082825260208201905092915050565b60006136ad82613686565b6136b78185613691565b93506136c7818560208601612545565b6136d08161256f565b840191505092915050565b60006080820190506136f06000830187612670565b6136fd6020830186612670565b61370a6040830185612818565b818103606083015261371c81846136a2565b905095945050505050565b6000815190506137368161249a565b92915050565b60006020828403121561375257613751612464565b5b600061376084828501613727565b91505092915050565b7f4e487b7100000000000000000000000000000000000000000000000000000000600052601260045260246000fd5b60006137a3826125db565b91506137ae836125db565b92508282019050808211156137c6576137c56130bd565b5b92915050565b60006137d7826125db565b91506137e2836125db565b9250826137f2576137f1613769565b5b828204905092915050565b6000613808826125db565b9150613813836125db565b9250828202613821816125db565b91508282048414831517613838576138376130bd565b5b5092915050565b60006040820190506138546000830185612670565b6138616020830184612818565b939250505056fe4142434445464748494a4b4c4d4e4f505152535455565758595a6162636465666768696a6b6c6d6e6f707172737475767778797a303132333435363738392b2fa26469706673582212209536784c80034d2fde1ec14b764640d7968f4f57566e171661bd800eb4aa808164736f6c634300081b0033",
  "linkReferences": {},
  "deployedLinkReferences": {}
}