{
  "_format": "hh-sol-artifact-1",
  "contractName": "InvoiceNFT",
  "sourceName": "contracts/InvoiceNFT.sol",
  "abi": [
    {
      "inputs": [],
      "stateMutability": "nonpayable",
      "type": "constructor"
    },
    {
      "inputs": [
        {
          "internalType": "address",
          "name": "sender",
          "type": "address"
        },
        {
          "internalType": "uint256",
          "name": "tokenId",
          "type": "uint256"
        },
        {
          "internalType": "address",
          "name": "owner",
          "type": "address"
        }
      ],
      "name": "ERC721IncorrectOwner",
      "type": "error"
    },
    {
      "inputs": [
        {
          "internalType": "address",
          "name": "operator",
          "type": "address"
        },
        {
          "internalType": "uint256",
          "name": "tokenId",
          "type": "uint256"
        }
      ],
      "name": "ERC721InsufficientApproval",
      "type": "error"
    },
    {
      "inputs": [
        {
          "internalType": "address",
          "name": "approver",
          "type": "address"
        }
      ],
      "name": "ERC721InvalidApprover",
      "type": "error"
    },
    {
      "inputs": [
        {
          "internalType": "address",
          "name": "operator",
          "type": "address"
        }
      ],
      "name": "ERC721InvalidOperator",
      "type": "error"
    },
    {
      "inputs": [
        {
          "internalType": "address",
          "name": "owner",
          "type": "address"
        }
      ],
      "name": "ERC721InvalidOwner",
      "type": "error"
    },
    {
      "inputs": [
        {
          "internalType": "address",
          "name": "receiver",
          "type": "address"
        }
      ],
      "name": "ERC721InvalidReceiver",
      "type": "error"
    },
    {
      "inputs": [
        {
          "internalType": "address",
          "name": "sender",
          "type": "address"
        }
      ],
      "name": "ERC721InvalidSender",
      "type": "error"
    },
    {
      "inputs": [
        {
          "internalType": "uint256",
          "name": "tokenId",
          "type": "uint256"
        }
      ],
      "name": "ERC721NonexistentToken",
      "type": "error"
    },
    {
      "anonymous": false,
      "inputs": [
        {
          "indexed": true,
          "internalType": "address",
          "name": "owner",
          "type": "address"
        },
        {
          "indexed": true,
          "internalType": "address",
          "name": "approved",
          "type": "address"
        },
        {
          "indexed": true,
          "internalType": "uint256",
          "name": "tokenId",
          "type": "uint256"
        }
      ],
      "name": "Approval",
      "type": "event"
    },
    {
      "anonymous": false,
      "inputs": [
        {
          "indexed": true,
          "internalType": "address",
          "name": "owner",
          "type": "address"
        },
        {
          "indexed": true,
          "internalType": "address",
          "name": "operator",
          "type": "address"
        },
        {
          "indexed": false,
          "internalType": "bool",
          "name": "approved",
          "type": "bool"
        }
      ],
      "name": "ApprovalForAll",
      "type": "event"
    },
    {
      "anonymous": false,
      "inputs": [
        {
          "indexed": false,
          "internalType": "uint256",
          "name": "_fromTokenId",
          "type": "uint256"
        },
        {
          "indexed": false,
          "internalType": "uint256",
          "name": "_toTokenId",
          "type": "uint256"
        }
      ],
      "name": "BatchMetadataUpdate",
      "type": "event"
    },
    {
      "anonymous": false,
      "inputs": [
        {
          "indexed": true,
          "internalType": "uint256",
          "name": "invoiceId",
          "type": "uint256"
        },
        {
          "indexed": true,
          "internalType": "address",
          "name": "client",
          "type": "address"
        },
        {
          "indexed": true,
          "internalType": "address",
          "name": "creator",
          "type": "address"
        },
        {
          "indexed": false,
          "internalType": "uint256",
          "name": "amount",
          "type": "uint256"
        },
        {
          "indexed": false,
          "internalType": "uint256",
          "name": "dueDate",
          "type": "uint256"
        }
      ],
      "name": "InvoiceCreated",
      "type": "event"
    },
    {
      "anonymous": false,
      "inputs": [
        {
          "indexed": true,
          "internalType": "uint256",
          "name": "invoiceId",
          "type": "uint256"
        },
        {
          "indexed": true,
          "internalType": "address",
          "name": "client",
          "type": "address"
        }
      ],
      "name": "InvoicePaid",
      "type": "event"
    },
    {
      "anonymous": false,
      "inputs": [
        {
          "indexed": false,
          "internalType": "uint256",
          "name": "_tokenId",
          "type": "uint256"
        }
      ],
      "name": "MetadataUpdate",
      "type": "event"
    },
    {
      "anonymous": false,
      "inputs": [
        {
          "indexed": true,
          "internalType": "address",
          "name": "from",
          "type": "address"
        },
        {
          "indexed": true,
          "internalType": "address",
          "name": "to",
          "type": "address"
        },
        {
          "indexed": true,
          "internalType": "uint256",
          "name": "tokenId",
          "type": "uint256"
        }
      ],
      "name": "Transfer",
      "type": "event"
    },
    {
      "inputs": [
        {
          "internalType": "address",
          "name": "to",
          "type": "address"
        },
        {
          "internalType": "uint256",
          "name": "tokenId",
          "type": "uint256"
        }
      ],
      "name": "approve",
      "outputs": [],
      "stateMutability": "nonpayable",
      "type": "function"
    },
    {
      "inputs": [
        {
          "internalType": "address",
          "name": "owner",
          "type": "address"
        }
      ],
      "name": "balanceOf",
      "outputs": [
        {
          "internalType": "uint256",
          "name": "",
          "type": "uint256"
        }
      ],
      "stateMutability": "view",
      "type": "function"
    },
    {
      "inputs": [
        {
          "internalType": "address",
          "name": "_client",
          "type": "address"
        },
        {
          "internalType": "string",
          "name": "_issuer",
          "type": "string"
        },
        {
          "internalType": "string",
          "name": "_description",
          "type": "string"
        },
        {
          "internalType": "uint256",
          "name": "_amount",
          "type": "uint256"
        },
        {
          "internalType": "string",
          "name": "_currency",
          "type": "string"
        },
        {
          "internalType": "uint256",
          "name": "_dueDate",
          "type": "uint256"
        },
        {
          "internalType": "string",
          "name": "_paymentInfo",
          "type": "string"
        }
      ],
      "name": "createInvoice",
      "outputs": [
        {
          "internalType": "uint256",
          "name": "",
          "type": "uint256"
        }
      ],
      "stateMutability": "nonpayable",
      "type": "function"
    },
    {
      "inputs": [
        {
          "internalType": "uint256",
          "name": "tokenId",
          "type": "uint256"
        }
      ],
      "name": "getApproved",
      "outputs": [
        {
          "internalType": "address",
          "name": "",
          "type": "address"
        }
      ],
      "stateMutability": "view",
      "type": "function"
    },
    {
      "inputs": [
        {
          "internalType": "uint256",
          "name": "_invoiceId",
          "type": "uint256"
        },
        {
          "internalType": "address",
          "name": "_provider",
          "type": "address"
        }
      ],
      "name": "getInvoiceDetails",
      "outputs": [
        {
          "components": [
            {
              "internalType": "uint256",
              "name": "id",
              "type": "uint256"
            },
            {
              "internalType": "address",
              "name": "client",
              "type": "address"
            },
            {
              "internalType": "address",
              "name": "creator",
              "type": "address"
            },
            {
              "internalType": "string",
              "name": "issuer",
              "type": "string"
            },
            {
              "internalType": "string",
              "name": "description",
              "type": "string"
            },
            {
              "internalType": "uint256",
              "name": "amount",
              "type": "uint256"
            },
            {
              "internalType": "string",
              "name": "currency",
              "type": "string"
            },
            {
              "internalType": "enum InvoiceNFT.InvoiceStatus",
              "name": "status",
              "type": "uint8"
            },
            {
              "internalType": "uint256",
              "name": "dueDate",
              "type": "uint256"
            },
            {
              "internalType": "string",
              "name": "paymentInfo",
              "type": "string"
            },
            {
              "internalType": "uint256",
              "name": "issueDate",
              "type": "uint256"
            }
          ],
          "internalType": "struct InvoiceNFT.Invoice",
          "name": "",
          "type": "tuple"
        }
      ],
      "stateMutability": "view",
      "type": "function"
    },
    {
      "inputs": [
        {
          "internalType": "uint256",
          "name": "_invoiceId",
          "type": "uint256"
        }
      ],
      "name": "getInvoiceStatus",
      "outputs": [
        {
          "internalType": "enum InvoiceNFT.InvoiceStatus",
          "name": "",
          "type": "uint8"
        }
      ],
      "stateMutability": "view",
      "type": "function"
    },
    {
      "inputs": [
        {
          "internalType": "address",
          "name": "owner",
          "type": "address"
        },
        {
          "internalType": "address",
          "name": "operator",
          "type": "address"
        }
      ],
      "name": "isApprovedForAll",
      "outputs": [
        {
          "internalType": "bool",
          "name": "",
          "type": "bool"
        }
      ],
      "stateMutability": "view",
      "type": "function"
    },
    {
      "inputs": [
        {
          "internalType": "uint256",
          "name": "_invoiceId",
          "type": "uint256"
        },
        {
          "internalType": "address",
          "name": "_address",
          "type": "address"
        }
      ],
      "name": "isInvoiceCreator",
      "outputs": [
        {
          "internalType": "bool",
          "name": "",
          "type": "bool"
        }
      ],
      "stateMutability": "view",
      "type": "function"
    },
    {
      "inputs": [
        {
          "internalType": "uint256",
          "name": "_invoiceId",
          "type": "uint256"
        }
      ],
      "name": "markAsPaid",
      "outputs": [],
      "stateMutability": "nonpayable",
      "type": "function"
    },
    {
      "inputs": [],
      "name": "name",
      "outputs": [
        {
          "internalType": "string",
          "name": "",
          "type": "string"
        }
      ],
      "stateMutability": "view",
      "type": "function"
    },
    {
      "inputs": [
        {
          "internalType": "uint256",
          "name": "tokenId",
          "type": "uint256"
        }
      ],
      "name": "ownerOf",
      "outputs": [
        {
          "internalType": "address",
          "name": "",
          "type": "address"
        }
      ],
      "stateMutability": "view",
      "type": "function"
    },
    {
      "inputs": [
        {
          "internalType": "address",
          "name": "from",
          "type": "address"
        },
        {
          "internalType": "address",
          "name": "to",
          "type": "address"
        },
        {
          "internalType": "uint256",
          "name": "tokenId",
          "type": "uint256"
        }
      ],
      "name": "safeTransferFrom",
      "outputs": [],
      "stateMutability": "nonpayable",
      "type": "function"
    },
    {
      "inputs": [
        {
          "internalType": "address",
          "name": "from",
          "type": "address"
        },
        {
          "internalType": "address",
          "name": "to",
          "type": "address"
        },
        {
          "internalType": "uint256",
          "name": "tokenId",
          "type": "uint256"
        },
        {
          "internalType": "bytes",
          "name": "data",
          "type": "bytes"
        }
      ],
      "name": "safeTransferFrom",
      "outputs": [],
      "stateMutability": "nonpayable",
      "type": "function"
    },
    {
      "inputs": [
        {
          "internalType": "address",
          "name": "operator",
          "type": "address"
        },
        {
          "internalType": "bool",
          "name": "approved",
          "type": "bool"
        }
      ],
      "name": "setApprovalForAll",
      "outputs": [],
      "stateMutability": "nonpayable",
      "type": "function"
    },
    {
      "inputs": [
        {
          "internalType": "bytes4",
          "name": "interfaceId",
          "type": "bytes4"
        }
      ],
      "name": "supportsInterface",
      "outputs": [
        {
          "internalType": "bool",
          "name": "",
          "type": "bool"
        }
      ],
      "stateMutability": "view",
      "type": "function"
    },
    {
      "inputs": [],
      "name": "symbol",
      "outputs": [
        {
          "internalType": "string",
          "name": "",
          "type": "string"
        }
      ],
      "stateMutability": "view",
      "type": "function"
    },
    {
      "inputs": [
        {
          "internalType": "uint256",
          "name": "tokenId",
          "type": "uint256"
        }
      ],
      "name": "tokenURI",
      "outputs": [
        {
          "internalType": "string",
          "name": "",
          "type": "string"
        }
      ],
      "stateMutability": "view",
      "type": "function"
    },
    {
      "inputs": [
        {
          "internalType": "address",
          "name": "from",
          "type": "address"
        },
        {
          "internalType": "address",
          "name": "to",
          "type": "address"
        },
        {
          "internalType": "uint256",
          "name": "tokenId",
          "type": "uint256"
        }
      ],
      "name": "transferFrom",
      "outputs": [],
      "stateMutability": "nonpayable",
      "type": "function"
    }
  ],
  "bytecode": "0x608060405234801561001057600080fd5b506040518060400160405280600a81526020017f496e766f6963654e4654000000000000000000000000000000000000000000008152506040518060400160405280600681526020017f494e564e46540000000000000000000000000000000000000000000000000000815250816000908161008c91906102fc565b50806001908161009c91906102fc565b50505060016007819055506103ce565b600081519050919050565b7f4e487b7100000000000000000000000000000000000000000000000000000000600052604160045260246000fd5b7f4e487b7100000000000000000000000000000000000000000000000000000000600052602260045260246000fd5b6000600282049050600182168061012d57607f821691505b6020821081036101405761013f6100e6565b5b50919050565b60008190508160005260206000209050919050565b60006020601f8301049050919050565b600082821b905092915050565b6000600883026101a87fffffffffffffffffffffffffffffffffffffffffffffffffffffffffffffffff8261016b565b6101b2868361016b565b95508019841693508086168417925050509392505050565b6000819050919050565b6000819050919050565b60006101f96101f46101ef846101ca565b6101d4565b6101ca565b9050919050565b6000819050919050565b610213836101de565b61022761021f82610200565b848454610178565b825550505050565b600090565b61023c61022f565b61024781848461020a565b505050565b5b8181101561026b57610260600082610234565b60018101905061024d565b5050565b601f8211156102b05761028181610146565b61028a8461015b565b81016020851015610299578190505b6102ad6102a58561015b565b83018261024c565b50505b505050565b600082821c905092915050565b60006102d3600019846008026102b5565b1980831691505092915050565b60006102ec83836102c2565b9150826002028217905092915050565b610305826100ac565b67ffffffffffffffff81111561031e5761031d6100b7565b5b6103288254610115565b61033382828561026f565b600060209050601f8311600181146103665760008415610354578287015190505b61035e85826102e0565b8655506103c6565b601f19841661037486610146565b60005b8281101561039c57848901518255600182019150602085019450602081019050610377565b868310156103b957848901516103b5601f8916826102c2565b8355505b6001600288020188555050505b505050505050565b6139f0806103dd6000396000f3fe608060405234801561001057600080fd5b50600436106101165760003560e01c80637021cafe116100a2578063b88d4fde11610071578063b88d4fde14610303578063c87b56dd1461031f578063e985e9c51461034f578063eba5ac0c1461037f578063f1fb380c146103af57610116565b80637021cafe1461027d57806370a082311461029957806395d89b41146102c9578063a22cb465146102e757610116565b8063178c5b52116100e9578063178c5b52146101b557806323b872dd146101e557806342842e0e14610201578063514516451461021d5780636352211e1461024d57610116565b806301ffc9a71461011b57806306fdde031461014b578063081812fc14610169578063095ea7b314610199575b600080fd5b61013560048036038101906101309190612546565b6103df565b604051610142919061258e565b60405180910390f35b610153610440565b6040516101609190612639565b60405180910390f35b610183600480360381019061017e9190612691565b6104d2565b60405161019091906126ff565b60405180910390f35b6101b360048036038101906101ae9190612746565b6104ee565b005b6101cf60048036038101906101ca9190612691565b610504565b6040516101dc91906127fd565b60405180910390f35b6101ff60048036038101906101fa9190612818565b610579565b005b61021b60048036038101906102169190612818565b61067b565b005b6102376004803603810190610232919061286b565b61069b565b6040516102449190612a26565b60405180910390f35b61026760048036038101906102629190612691565b610ae8565b60405161027491906126ff565b60405180910390f35b61029760048036038101906102929190612691565b610afa565b005b6102b360048036038101906102ae9190612a48565b610ce3565b6040516102c09190612a84565b60405180910390f35b6102d1610d9d565b6040516102de9190612639565b60405180910390f35b61030160048036038101906102fc9190612acb565b610e2f565b005b61031d60048036038101906103189190612c40565b610e45565b005b61033960048036038101906103349190612691565b610e62565b6040516103469190612639565b60405180910390f35b61036960048036038101906103649190612cc3565b610f75565b604051610376919061258e565b60405180910390f35b61039960048036038101906103949190612da4565b611009565b6040516103a69190612a84565b60405180910390f35b6103c960048036038101906103c4919061286b565b6112fe565b6040516103d6919061258e565b60405180910390f35b6000634906490660e01b7bffffffffffffffffffffffffffffffffffffffffffffffffffffffff1916827bffffffffffffffffffffffffffffffffffffffffffffffffffffffff1916148061043957506104388261136d565b5b9050919050565b60606000805461044f90612ee5565b80601f016020809104026020016040519081016040528092919081815260200182805461047b90612ee5565b80156104c85780601f1061049d576101008083540402835291602001916104c8565b820191906000526020600020905b8154815290600101906020018083116104ab57829003601f168201915b5050505050905090565b60006104dd8261144f565b506104e7826114d7565b9050919050565b61050082826104fb611514565b61151c565b5050565b600061050f8261152e565b61054e576040517f08c379a000000000000000000000000000000000000000000000000000000000815260040161054590612f88565b60405180910390fd5b6008600083815260200190815260200160002060070160009054906101000a900460ff169050919050565b600073ffffffffffffffffffffffffffffffffffffffff168273ffffffffffffffffffffffffffffffffffffffff16036105eb5760006040517f64a0ae920000000000000000000000000000000000000000000000000000000081526004016105e291906126ff565b60405180910390fd5b60006105ff83836105fa611514565b61156f565b90508373ffffffffffffffffffffffffffffffffffffffff168173ffffffffffffffffffffffffffffffffffffffff1614610675578382826040517f64283d7b00000000000000000000000000000000000000000000000000000000815260040161066c93929190612fa8565b60405180910390fd5b50505050565b61069683838360405180602001604052806000815250610e45565b505050565b6106a3612442565b6106ac8361152e565b6106eb576040517f08c379a00000000000000000000000000000000000000000000000000000000081526004016106e290612f88565b60405180910390fd5b6106f583336112fe565b8061072b57508173ffffffffffffffffffffffffffffffffffffffff163373ffffffffffffffffffffffffffffffffffffffff16145b61076a576040517f08c379a000000000000000000000000000000000000000000000000000000000815260040161076190613051565b60405180910390fd5b6008600084815260200190815260200160002060405180610160016040529081600082015481526020016001820160009054906101000a900473ffffffffffffffffffffffffffffffffffffffff1673ffffffffffffffffffffffffffffffffffffffff1673ffffffffffffffffffffffffffffffffffffffff1681526020016002820160009054906101000a900473ffffffffffffffffffffffffffffffffffffffff1673ffffffffffffffffffffffffffffffffffffffff1673ffffffffffffffffffffffffffffffffffffffff16815260200160038201805461084f90612ee5565b80601f016020809104026020016040519081016040528092919081815260200182805461087b90612ee5565b80156108c85780601f1061089d576101008083540402835291602001916108c8565b820191906000526020600020905b8154815290600101906020018083116108ab57829003601f168201915b505050505081526020016004820180546108e190612ee5565b80601f016020809104026020016040519081016040528092919081815260200182805461090d90612ee5565b801561095a5780601f1061092f5761010080835404028352916020019161095a565b820191906000526020600020905b81548152906001019060200180831161093d57829003601f168201915b505050505081526020016005820154815260200160068201805461097d90612ee5565b80601f01602080910402602001604051908101604052809291908181526020018280546109a990612ee5565b80156109f65780601f106109cb576101008083540402835291602001916109f6565b820191906000526020600020905b8154815290600101906020018083116109d957829003601f168201915b505050505081526020016007820160009054906101000a900460ff166001811115610a2457610a23612786565b5b6001811115610a3657610a35612786565b5b815260200160088201548152602001600982018054610a5490612ee5565b80601f0160208091040260200160405190810160405280929190818152602001828054610a8090612ee5565b8015610acd5780601f10610aa257610100808354040283529160200191610acd565b820191906000526020600020905b815481529060010190602001808311610ab057829003601f168201915b50505050508152602001600a82015481525050905092915050565b6000610af38261144f565b9050919050565b6008600082815260200190815260200160002060020160009054906101000a900473ffffffffffffffffffffffffffffffffffffffff1673ffffffffffffffffffffffffffffffffffffffff163373ffffffffffffffffffffffffffffffffffffffff1614610b9e576040517f08c379a0000000000000000000000000000000000000000000000000000000008152600401610b95906130e3565b60405180910390fd5b600180811115610bb157610bb0612786565b5b6008600083815260200190815260200160002060070160009054906101000a900460ff166001811115610be757610be6612786565b5b03610c27576040517f08c379a0000000000000000000000000000000000000000000000000000000008152600401610c1e9061314f565b60405180910390fd5b60016008600083815260200190815260200160002060070160006101000a81548160ff02191690836001811115610c6157610c60612786565b5b02179055506008600082815260200190815260200160002060010160009054906101000a900473ffffffffffffffffffffffffffffffffffffffff1673ffffffffffffffffffffffffffffffffffffffff16817fb721ab7d2767e645e582c99d779d54bb3193114ad7d13e7bd7f7f2fd9b1875b460405160405180910390a350565b60008073ffffffffffffffffffffffffffffffffffffffff168273ffffffffffffffffffffffffffffffffffffffff1603610d565760006040517f89c62b64000000000000000000000000000000000000000000000000000000008152600401610d4d91906126ff565b60405180910390fd5b600360008373ffffffffffffffffffffffffffffffffffffffff1673ffffffffffffffffffffffffffffffffffffffff168152602001908152602001600020549050919050565b606060018054610dac90612ee5565b80601f0160208091040260200160405190810160405280929190818152602001828054610dd890612ee5565b8015610e255780601f10610dfa57610100808354040283529160200191610e25565b820191906000526020600020905b815481529060010190602001808311610e0857829003601f168201915b5050505050905090565b610e41610e3a611514565b8383611789565b5050565b610e50848484610579565b610e5c848484846118f8565b50505050565b6060610e6d8261144f565b506000600660008481526020019081526020016000208054610e8e90612ee5565b80601f0160208091040260200160405190810160405280929190818152602001828054610eba90612ee5565b8015610f075780601f10610edc57610100808354040283529160200191610f07565b820191906000526020600020905b815481529060010190602001808311610eea57829003601f168201915b505050505090506000610f18611aaf565b90506000815103610f2d578192505050610f70565b600082511115610f62578082604051602001610f4a9291906131ab565b60405160208183030381529060405292505050610f70565b610f6b84611ac6565b925050505b919050565b6000600560008473ffffffffffffffffffffffffffffffffffffffff1673ffffffffffffffffffffffffffffffffffffffff16815260200190815260200160002060008373ffffffffffffffffffffffffffffffffffffffff1673ffffffffffffffffffffffffffffffffffffffff16815260200190815260200160002060009054906101000a900460ff16905092915050565b600080600754905060076000815480929190611024906131fe565b91905055506040518061016001604052808281526020018a73ffffffffffffffffffffffffffffffffffffffff1681526020013373ffffffffffffffffffffffffffffffffffffffff1681526020018981526020018881526020018781526020018681526020016000600181111561109f5761109e612786565b5b815260200185815260200184815260200142815250600860008381526020019081526020016000206000820151816000015560208201518160010160006101000a81548173ffffffffffffffffffffffffffffffffffffffff021916908373ffffffffffffffffffffffffffffffffffffffff16021790555060408201518160020160006101000a81548173ffffffffffffffffffffffffffffffffffffffff021916908373ffffffffffffffffffffffffffffffffffffffff160217905550606082015181600301908161117491906133f2565b50608082015181600401908161118a91906133f2565b5060a0820151816005015560c08201518160060190816111aa91906133f2565b5060e08201518160070160006101000a81548160ff021916908360018111156111d6576111d5612786565b5b021790555061010082015181600801556101208201518160090190816111fc91906133f2565b5061014082015181600a01559050506112158982611b2f565b600061125561122383611b4d565b8961122d8a611b4d565b89604051602001611241949392919061368c565b604051602081830303815290604052611c1b565b905060008160405160200161126a919061374d565b60405160208183030381529060405290506112858382611d8d565b3373ffffffffffffffffffffffffffffffffffffffff168b73ffffffffffffffffffffffffffffffffffffffff16847f3fbaae0f1597d7f24bf2231a5fe5248190743aecc5f3da7126965e14e3f1ca4d8b8a6040516112e592919061376f565b60405180910390a4829350505050979650505050505050565b60008173ffffffffffffffffffffffffffffffffffffffff166008600085815260200190815260200160002060020160009054906101000a900473ffffffffffffffffffffffffffffffffffffffff1673ffffffffffffffffffffffffffffffffffffffff1614905092915050565b60007f80ac58cd000000000000000000000000000000000000000000000000000000007bffffffffffffffffffffffffffffffffffffffffffffffffffffffff1916827bffffffffffffffffffffffffffffffffffffffffffffffffffffffff1916148061143857507f5b5e139f000000000000000000000000000000000000000000000000000000007bffffffffffffffffffffffffffffffffffffffffffffffffffffffff1916827bffffffffffffffffffffffffffffffffffffffffffffffffffffffff1916145b80611448575061144782611de9565b5b9050919050565b60008061145b83611e53565b9050600073ffffffffffffffffffffffffffffffffffffffff168173ffffffffffffffffffffffffffffffffffffffff16036114ce57826040517f7e2732890000000000000000000000000000000000000000000000000000000081526004016114c59190612a84565b60405180910390fd5b80915050919050565b60006004600083815260200190815260200160002060009054906101000a900473ffffffffffffffffffffffffffffffffffffffff169050919050565b600033905090565b6115298383836001611e90565b505050565b60008073ffffffffffffffffffffffffffffffffffffffff1661155083610ae8565b73ffffffffffffffffffffffffffffffffffffffff1614159050919050565b60008061157b84611e53565b9050600073ffffffffffffffffffffffffffffffffffffffff168373ffffffffffffffffffffffffffffffffffffffff16146115bd576115bc818486612055565b5b600073ffffffffffffffffffffffffffffffffffffffff168173ffffffffffffffffffffffffffffffffffffffff161461164e576115ff600085600080611e90565b6001600360008373ffffffffffffffffffffffffffffffffffffffff1673ffffffffffffffffffffffffffffffffffffffff168152602001908152602001600020600082825403925050819055505b600073ffffffffffffffffffffffffffffffffffffffff168573ffffffffffffffffffffffffffffffffffffffff16146116d1576001600360008773ffffffffffffffffffffffffffffffffffffffff1673ffffffffffffffffffffffffffffffffffffffff168152602001908152602001600020600082825401925050819055505b846002600086815260200190815260200160002060006101000a81548173ffffffffffffffffffffffffffffffffffffffff021916908373ffffffffffffffffffffffffffffffffffffffff160217905550838573ffffffffffffffffffffffffffffffffffffffff168273ffffffffffffffffffffffffffffffffffffffff167fddf252ad1be2c89b69c2b068fc378daa952ba7f163c4a11628f55a4df523b3ef60405160405180910390a4809150509392505050565b600073ffffffffffffffffffffffffffffffffffffffff168273ffffffffffffffffffffffffffffffffffffffff16036117fa57816040517f5b08ba180000000000000000000000000000000000000000000000000000000081526004016117f191906126ff565b60405180910390fd5b80600560008573ffffffffffffffffffffffffffffffffffffffff1673ffffffffffffffffffffffffffffffffffffffff16815260200190815260200160002060008473ffffffffffffffffffffffffffffffffffffffff1673ffffffffffffffffffffffffffffffffffffffff16815260200190815260200160002060006101000a81548160ff0219169083151502179055508173ffffffffffffffffffffffffffffffffffffffff168373ffffffffffffffffffffffffffffffffffffffff167f17307eab39ab6107e8899845ad3d59bd9653f200f220920489ca2b5937696c31836040516118eb919061258e565b60405180910390a3505050565b60008373ffffffffffffffffffffffffffffffffffffffff163b1115611aa9578273ffffffffffffffffffffffffffffffffffffffff1663150b7a0261193c611514565b8685856040518563ffffffff1660e01b815260040161195e94939291906137ed565b6020604051808303816000875af192505050801561199a57506040513d601f19601f82011682018060405250810190611997919061384e565b60015b611a1e573d80600081146119ca576040519150601f19603f3d011682016040523d82523d6000602084013e6119cf565b606091505b506000815103611a1657836040517f64a0ae92000000000000000000000000000000000000000000000000000000008152600401611a0d91906126ff565b60405180910390fd5b805181602001fd5b63150b7a0260e01b7bffffffffffffffffffffffffffffffffffffffffffffffffffffffff1916817bffffffffffffffffffffffffffffffffffffffffffffffffffffffff191614611aa757836040517f64a0ae92000000000000000000000000000000000000000000000000000000008152600401611a9e91906126ff565b60405180910390fd5b505b50505050565b606060405180602001604052806000815250905090565b6060611ad18261144f565b506000611adc611aaf565b90506000815111611afc5760405180602001604052806000815250611b27565b80611b0684611b4d565b604051602001611b179291906131ab565b6040516020818303038152906040525b915050919050565b611b49828260405180602001604052806000815250612119565b5050565b606060006001611b5c84612135565b01905060008167ffffffffffffffff811115611b7b57611b7a612b15565b5b6040519080825280601f01601f191660200182016040528015611bad5781602001600182028036833780820191505090505b509050600082602001820190505b600115611c10578080600190039150507f3031323334353637383961626364656600000000000000000000000000000000600a86061a8153600a8581611c0457611c0361387b565b5b04945060008503611bbb575b819350505050919050565b60606000825103611c3d57604051806020016040528060008152509050611d88565b600060405180606001604052806040815260200161397b6040913990506000600360028551611c6c91906138aa565b611c7691906138de565b6004611c82919061390f565b67ffffffffffffffff811115611c9b57611c9a612b15565b5b6040519080825280601f01601f191660200182016040528015611ccd5781602001600182028036833780820191505090505b50905060018201602082018586518701602081018051600082525b82841015611d43576003840193508351603f8160121c168701518653600186019550603f81600c1c168701518653600186019550603f8160061c168701518653600186019550603f8116870151865360018601955050611ce8565b80825260038a510660018114611d605760028114611d7357611d7b565b603d6001870353603d6002870353611d7b565b603d60018703535b5050505050505080925050505b919050565b80600660008481526020019081526020016000209081611dad91906133f2565b507ff8e1a15aba9398e019f0b49df1a4fde98ee17ae345cb5f6b5e2c27f5033e8ce782604051611ddd9190612a84565b60405180910390a15050565b60007f01ffc9a7000000000000000000000000000000000000000000000000000000007bffffffffffffffffffffffffffffffffffffffffffffffffffffffff1916827bffffffffffffffffffffffffffffffffffffffffffffffffffffffff1916149050919050565b60006002600083815260200190815260200160002060009054906101000a900473ffffffffffffffffffffffffffffffffffffffff169050919050565b8080611ec95750600073ffffffffffffffffffffffffffffffffffffffff168273ffffffffffffffffffffffffffffffffffffffff1614155b15611ffd576000611ed98461144f565b9050600073ffffffffffffffffffffffffffffffffffffffff168373ffffffffffffffffffffffffffffffffffffffff1614158015611f4457508273ffffffffffffffffffffffffffffffffffffffff168173ffffffffffffffffffffffffffffffffffffffff1614155b8015611f575750611f558184610f75565b155b15611f9957826040517fa9fbf51f000000000000000000000000000000000000000000000000000000008152600401611f9091906126ff565b60405180910390fd5b8115611ffb57838573ffffffffffffffffffffffffffffffffffffffff168273ffffffffffffffffffffffffffffffffffffffff167f8c5be1e5ebec7d5bd14f71427d1e84f3dd0314c0f7b2291e5b200ac8c7c3b92560405160405180910390a45b505b836004600085815260200190815260200160002060006101000a81548173ffffffffffffffffffffffffffffffffffffffff021916908373ffffffffffffffffffffffffffffffffffffffff16021790555050505050565b612060838383612288565b61211457600073ffffffffffffffffffffffffffffffffffffffff168373ffffffffffffffffffffffffffffffffffffffff16036120d557806040517f7e2732890000000000000000000000000000000000000000000000000000000081526004016120cc9190612a84565b60405180910390fd5b81816040517f177e802f00000000000000000000000000000000000000000000000000000000815260040161210b929190613951565b60405180910390fd5b505050565b6121238383612349565b61213060008484846118f8565b505050565b600080600090507a184f03e93ff9f4daa797ed6e38ed64bf6a1f0100000000000000008310612193577a184f03e93ff9f4daa797ed6e38ed64bf6a1f01000000000000000083816121895761218861387b565b5b0492506040810190505b6d04ee2d6d415b85acef810000000083106121d0576d04ee2d6d415b85acef810000000083816121c6576121c561387b565b5b0492506020810190505b662386f26fc1000083106121ff57662386f26fc1000083816121f5576121f461387b565b5b0492506010810190505b6305f5e1008310612228576305f5e100838161221e5761221d61387b565b5b0492506008810190505b612710831061224d5761271083816122435761224261387b565b5b0492506004810190505b6064831061227057606483816122665761226561387b565b5b0492506002810190505b600a831061227f576001810190505b80915050919050565b60008073ffffffffffffffffffffffffffffffffffffffff168373ffffffffffffffffffffffffffffffffffffffff161415801561234057508273ffffffffffffffffffffffffffffffffffffffff168473ffffffffffffffffffffffffffffffffffffffff16148061230157506123008484610f75565b5b8061233f57508273ffffffffffffffffffffffffffffffffffffffff16612327836114d7565b73ffffffffffffffffffffffffffffffffffffffff16145b5b90509392505050565b600073ffffffffffffffffffffffffffffffffffffffff168273ffffffffffffffffffffffffffffffffffffffff16036123bb5760006040517f64a0ae920000000000000000000000000000000000000000000000000000000081526004016123b291906126ff565b60405180910390fd5b60006123c98383600061156f565b9050600073ffffffffffffffffffffffffffffffffffffffff168173ffffffffffffffffffffffffffffffffffffffff161461243d5760006040517f73c6ac6e00000000000000000000000000000000000000000000000000000000815260040161243491906126ff565b60405180910390fd5b505050565b60405180610160016040528060008152602001600073ffffffffffffffffffffffffffffffffffffffff168152602001600073ffffffffffffffffffffffffffffffffffffffff16815260200160608152602001606081526020016000815260200160608152602001600060018111156124bf576124be612786565b5b81526020016000815260200160608152602001600081525090565b6000604051905090565b600080fd5b600080fd5b60007fffffffff0000000000000000000000000000000000000000000000000000000082169050919050565b612523816124ee565b811461252e57600080fd5b50565b6000813590506125408161251a565b92915050565b60006020828403121561255c5761255b6124e4565b5b600061256a84828501612531565b91505092915050565b60008115159050919050565b61258881612573565b82525050565b60006020820190506125a3600083018461257f565b92915050565b600081519050919050565b600082825260208201905092915050565b60005b838110156125e35780820151818401526020810190506125c8565b60008484015250505050565b6000601f19601f8301169050919050565b600061260b826125a9565b61261581856125b4565b93506126258185602086016125c5565b61262e816125ef565b840191505092915050565b600060208201905081810360008301526126538184612600565b905092915050565b6000819050919050565b61266e8161265b565b811461267957600080fd5b50565b60008135905061268b81612665565b92915050565b6000602082840312156126a7576126a66124e4565b5b60006126b58482850161267c565b91505092915050565b600073ffffffffffffffffffffffffffffffffffffffff82169050919050565b60006126e9826126be565b9050919050565b6126f9816126de565b82525050565b600060208201905061271460008301846126f0565b92915050565b612723816126de565b811461272e57600080fd5b50565b6000813590506127408161271a565b92915050565b6000806040838503121561275d5761275c6124e4565b5b600061276b85828601612731565b925050602061277c8582860161267c565b9150509250929050565b7f4e487b7100000000000000000000000000000000000000000000000000000000600052602160045260246000fd5b600281106127c6576127c5612786565b5b50565b60008190506127d7826127b5565b919050565b60006127e7826127c9565b9050919050565b6127f7816127dc565b82525050565b600060208201905061281260008301846127ee565b92915050565b600080600060608486031215612831576128306124e4565b5b600061283f86828701612731565b935050602061285086828701612731565b92505060406128618682870161267c565b9150509250925092565b60008060408385031215612882576128816124e4565b5b60006128908582860161267c565b92505060206128a185828601612731565b9150509250929050565b6128b48161265b565b82525050565b6128c3816126de565b82525050565b600082825260208201905092915050565b60006128e5826125a9565b6128ef81856128c9565b93506128ff8185602086016125c5565b612908816125ef565b840191505092915050565b61291c816127dc565b82525050565b60006101608301600083015161293b60008601826128ab565b50602083015161294e60208601826128ba565b50604083015161296160408601826128ba565b506060830151848203606086015261297982826128da565b9150506080830151848203608086015261299382826128da565b91505060a08301516129a860a08601826128ab565b5060c083015184820360c08601526129c082826128da565b91505060e08301516129d560e0860182612913565b506101008301516129ea6101008601826128ab565b50610120830151848203610120860152612a0482826128da565b915050610140830151612a1b6101408601826128ab565b508091505092915050565b60006020820190508181036000830152612a408184612922565b905092915050565b600060208284031215612a5e57612a5d6124e4565b5b6000612a6c84828501612731565b91505092915050565b612a7e8161265b565b82525050565b6000602082019050612a996000830184612a75565b92915050565b612aa881612573565b8114612ab357600080fd5b50565b600081359050612ac581612a9f565b92915050565b60008060408385031215612ae257612ae16124e4565b5b6000612af085828601612731565b9250506020612b0185828601612ab6565b9150509250929050565b600080fd5b600080fd5b7f4e487b7100000000000000000000000000000000000000000000000000000000600052604160045260246000fd5b612b4d826125ef565b810181811067ffffffffffffffff82111715612b6c57612b6b612b15565b5b80604052505050565b6000612b7f6124da565b9050612b8b8282612b44565b919050565b600067ffffffffffffffff821115612bab57612baa612b15565b5b612bb4826125ef565b9050602081019050919050565b82818337600083830152505050565b6000612be3612bde84612b90565b612b75565b905082815260208101848484011115612bff57612bfe612b10565b5b612c0a848285612bc1565b509392505050565b600082601f830112612c2757612c26612b0b565b5b8135612c37848260208601612bd0565b91505092915050565b60008060008060808587031215612c5a57612c596124e4565b5b6000612c6887828801612731565b9450506020612c7987828801612731565b9350506040612c8a8782880161267c565b925050606085013567ffffffffffffffff811115612cab57612caa6124e9565b5b612cb787828801612c12565b91505092959194509250565b60008060408385031215612cda57612cd96124e4565b5b6000612ce885828601612731565b9250506020612cf985828601612731565b9150509250929050565b600067ffffffffffffffff821115612d1e57612d1d612b15565b5b612d27826125ef565b9050602081019050919050565b6000612d47612d4284612d03565b612b75565b905082815260208101848484011115612d6357612d62612b10565b5b612d6e848285612bc1565b509392505050565b600082601f830112612d8b57612d8a612b0b565b5b8135612d9b848260208601612d34565b91505092915050565b600080600080600080600060e0888a031215612dc357612dc26124e4565b5b6000612dd18a828b01612731565b975050602088013567ffffffffffffffff811115612df257612df16124e9565b5b612dfe8a828b01612d76565b965050604088013567ffffffffffffffff811115612e1f57612e1e6124e9565b5b612e2b8a828b01612d76565b9550506060612e3c8a828b0161267c565b945050608088013567ffffffffffffffff811115612e5d57612e5c6124e9565b5b612e698a828b01612d76565b93505060a0612e7a8a828b0161267c565b92505060c088013567ffffffffffffffff811115612e9b57612e9a6124e9565b5b612ea78a828b01612d76565b91505092959891949750929550565b7f4e487b7100000000000000000000000000000000000000000000000000000000600052602260045260246000fd5b60006002820490506001821680612efd57607f821691505b602082108103612f1057612f0f612eb6565b5b50919050565b7f4c65204e46542064652063657474652066616374757265206e2765786973746560008201527f2070617300000000000000000000000000000000000000000000000000000000602082015250565b6000612f726024836125b4565b9150612f7d82612f16565b604082019050919050565b60006020820190508181036000830152612fa181612f65565b9050919050565b6000606082019050612fbd60008301866126f0565b612fca6020830185612a75565b612fd760408301846126f0565b949350505050565b7f566f7573206e276574657320706173206175746f72697365206120766f69722060008201527f6c65732064657461696c73206465206365747465206661637475726500000000602082015250565b600061303b603c836125b4565b915061304682612fdf565b604082019050919050565b6000602082019050818103600083015261306a8161302e565b9050919050565b7f5365756c206c65206372656174657572206465206c612066616374757265207060008201527f657574206c61206d61727175657220636f6d6d65207061796565000000000000602082015250565b60006130cd603a836125b4565b91506130d882613071565b604082019050919050565b600060208201905081810360008301526130fc816130c0565b9050919050565b7f4c612066616374757265206573742064656a612070617965652e000000000000600082015250565b6000613139601a836125b4565b915061314482613103565b602082019050919050565b600060208201905081810360008301526131688161312c565b9050919050565b600081905092915050565b6000613185826125a9565b61318f818561316f565b935061319f8185602086016125c5565b80840191505092915050565b60006131b7828561317a565b91506131c3828461317a565b91508190509392505050565b7f4e487b7100000000000000000000000000000000000000000000000000000000600052601160045260246000fd5b60006132098261265b565b91507fffffffffffffffffffffffffffffffffffffffffffffffffffffffffffffffff820361323b5761323a6131cf565b5b600182019050919050565b60008190508160005260206000209050919050565b60006020601f8301049050919050565b600082821b905092915050565b6000600883026132a87fffffffffffffffffffffffffffffffffffffffffffffffffffffffffffffffff8261326b565b6132b2868361326b565b95508019841693508086168417925050509392505050565b6000819050919050565b60006132ef6132ea6132e58461265b565b6132ca565b61265b565b9050919050565b6000819050919050565b613309836132d4565b61331d613315826132f6565b848454613278565b825550505050565b600090565b613332613325565b61333d818484613300565b505050565b5b818110156133615761335660008261332a565b600181019050613343565b5050565b601f8211156133a65761337781613246565b6133808461325b565b8101602085101561338f578190505b6133a361339b8561325b565b830182613342565b50505b505050565b600082821c905092915050565b60006133c9600019846008026133ab565b1980831691505092915050565b60006133e283836133b8565b9150826002028217905092915050565b6133fb826125a9565b67ffffffffffffffff81111561341457613413612b15565b5b61341e8254612ee5565b613429828285613365565b600060209050601f83116001811461345c576000841561344a578287015190505b61345485826133d6565b8655506134bc565b601f19841661346a86613246565b60005b828110156134925784890151825560018201915060208501945060208101905061346d565b868310156134af57848901516134ab601f8916826133b8565b8355505b6001600288020188555050505b505050505050565b7f7b226e616d65223a202246616374757265202300000000000000000000000000600082015250565b60006134fa60138361316f565b9150613505826134c4565b601382019050919050565b7f222c20226465736372697074696f6e223a202200000000000000000000000000600082015250565b600061354660138361316f565b915061355182613510565b601382019050919050565b7f222c202261747472696275746573223a205b7b2274726169745f74797065223a60008201527f20224d6f6e74616e74222c202276616c7565223a202200000000000000000000602082015250565b60006135b860368361316f565b91506135c38261355c565b603682019050919050565b7f2000000000000000000000000000000000000000000000000000000000000000600082015250565b600061360460018361316f565b915061360f826135ce565b600182019050919050565b7f227d2c207b2274726169745f74797065223a2022537461747574222c2022766160008201527f6c7565223a2022456d6973227d5d7d0000000000000000000000000000000000602082015250565b6000613676602f8361316f565b91506136818261361a565b602f82019050919050565b6000613697826134ed565b91506136a3828761317a565b91506136ae82613539565b91506136ba828661317a565b91506136c5826135ab565b91506136d1828561317a565b91506136dc826135f7565b91506136e8828461317a565b91506136f382613669565b915081905095945050505050565b7f646174613a6170706c69636174696f6e2f6a736f6e3b6261736536342c000000600082015250565b6000613737601d8361316f565b915061374282613701565b601d82019050919050565b60006137588261372a565b9150613764828461317a565b915081905092915050565b60006040820190506137846000830185612a75565b6137916020830184612a75565b9392505050565b600081519050919050565b600082825260208201905092915050565b60006137bf82613798565b6137c981856137a3565b93506137d98185602086016125c5565b6137e2816125ef565b840191505092915050565b600060808201905061380260008301876126f0565b61380f60208301866126f0565b61381c6040830185612a75565b818103606083015261382e81846137b4565b905095945050505050565b6000815190506138488161251a565b92915050565b600060208284031215613864576138636124e4565b5b600061387284828501613839565b91505092915050565b7f4e487b7100000000000000000000000000000000000000000000000000000000600052601260045260246000fd5b60006138b58261265b565b91506138c08361265b565b92508282019050808211156138d8576138d76131cf565b5b92915050565b60006138e98261265b565b91506138f48361265b565b9250826139045761390361387b565b5b828204905092915050565b600061391a8261265b565b91506139258361265b565b92508282026139338161265b565b9150828204841483151761394a576139496131cf565b5b5092915050565b600060408201905061396660008301856126f0565b6139736020830184612a75565b939250505056fe4142434445464748494a4b4c4d4e4f505152535455565758595a6162636465666768696a6b6c6d6e6f707172737475767778797a303132333435363738392b2fa2646970667358221220c2278461295e80a37f8d157c5d72bcb4bfb456df3a59035d61417b8e7b16581764736f6c634300081b0033",
  "linkReferences": {},
  "deployedLinkReferences": {}
}