{
  "_format": "hh-sol-artifact-1",
  "contractName": "IBANCalculator",
  "sourceName": "so|cash/src/utilities/IBAN.sol",
  "abi": [
    {
      "inputs": [
        {
          "internalType": "string",
          "name": "bankCode5",
          "type": "string"
        },
        {
          "internalType": "string",
          "name": "branchCode5",
          "type": "string"
        },
        {
          "internalType": "string",
          "name": "accountNumber11",
          "type": "string"
        }
      ],
      "name": "calculateFrenchIBAN",
      "outputs": [
        {
          "internalType": "string",
          "name": "",
          "type": "string"
        }
      ],
      "stateMutability": "pure",
      "type": "function"
    },
    {
      "inputs": [
        {
          "internalType": "string",
          "name": "countryCode",
          "type": "string"
        },
        {
          "internalType": "string",
          "name": "bban",
          "type": "string"
        }
      ],
      "name": "calculateIBAN",
      "outputs": [
        {
          "internalType": "string",
          "name": "",
          "type": "string"
        }
      ],
      "stateMutability": "pure",
      "type": "function"
    },
    {
      "inputs": [
        {
          "internalType": "string",
          "name": "iban",
          "type": "string"
        }
      ],
      "name": "extractFrenchIBAN",
      "outputs": [
        {
          "internalType": "bool",
          "name": "valid",
          "type": "bool"
        },
        {
          "internalType": "string",
          "name": "bankCode5",
          "type": "string"
        },
        {
          "internalType": "string",
          "name": "branchCode5",
          "type": "string"
        },
        {
          "internalType": "string",
          "name": "accountNumber11",
          "type": "string"
        },
        {
          "internalType": "uint16",
          "name": "ribKey",
          "type": "uint16"
        }
      ],
      "stateMutability": "pure",
      "type": "function"
    },
    {
      "inputs": [
        {
          "internalType": "string",
          "name": "bankCode5",
          "type": "string"
        },
        {
          "internalType": "string",
          "name": "branchCode5",
          "type": "string"
        },
        {
          "internalType": "string",
          "name": "accountNumber11",
          "type": "string"
        }
      ],
      "name": "frenchBBAN",
      "outputs": [
        {
          "internalType": "string",
          "name": "",
          "type": "string"
        }
      ],
      "stateMutability": "pure",
      "type": "function"
    },
    {
      "inputs": [
        {
          "internalType": "uint256",
          "name": "bankCode",
          "type": "uint256"
        },
        {
          "internalType": "uint256",
          "name": "branchCode",
          "type": "uint256"
        },
        {
          "internalType": "uint256",
          "name": "accountNumber",
          "type": "uint256"
        }
      ],
      "name": "frenchRIBKey",
      "outputs": [
        {
          "internalType": "uint16",
          "name": "",
          "type": "uint16"
        }
      ],
      "stateMutability": "pure",
      "type": "function"
    },
    {
      "inputs": [
        {
          "internalType": "string",
          "name": "s",
          "type": "string"
        }
      ],
      "name": "frenchStringToNumber",
      "outputs": [
        {
          "internalType": "uint256",
          "name": "",
          "type": "uint256"
        }
      ],
      "stateMutability": "pure",
      "type": "function"
    },
    {
      "inputs": [
        {
          "internalType": "uint256",
          "name": "fakeIbanValue",
          "type": "uint256"
        }
      ],
      "name": "ibanKey",
      "outputs": [
        {
          "internalType": "uint16",
          "name": "",
          "type": "uint16"
        }
      ],
      "stateMutability": "pure",
      "type": "function"
    },
    {
      "inputs": [
        {
          "internalType": "string",
          "name": "s",
          "type": "string"
        }
      ],
      "name": "ibanStringToNumber",
      "outputs": [
        {
          "internalType": "uint256",
          "name": "",
          "type": "uint256"
        }
      ],
      "stateMutability": "pure",
      "type": "function"
    },
    {
      "inputs": [
        {
          "internalType": "string",
          "name": "s",
          "type": "string"
        },
        {
          "internalType": "uint8",
          "name": "length",
          "type": "uint8"
        }
      ],
      "name": "padWithZeros",
      "outputs": [
        {
          "internalType": "string",
          "name": "",
          "type": "string"
        }
      ],
      "stateMutability": "pure",
      "type": "function"
    },
    {
      "inputs": [
        {
          "internalType": "uint256",
          "name": "v",
          "type": "uint256"
        }
      ],
      "name": "uintToString",
      "outputs": [
        {
          "internalType": "string",
          "name": "str",
          "type": "string"
        }
      ],
      "stateMutability": "pure",
      "type": "function"
    }
  ],
  "bytecode": "0x6080604052348015600f57600080fd5b50611d178061001f6000396000f3fe608060405234801561001057600080fd5b506004361061009e5760003560e01c80639c6497a8116100665780639c6497a814610193578063af3da957146101c3578063b7f25bfe146101f3578063e939567914610227578063fa09eae1146102575761009e565b80632dccf56a146100a3578063342cb582146100d35780634a534937146101035780636e619ebb14610133578063830a35bf14610163575b600080fd5b6100bd60048036038101906100b891906112ef565b610287565b6040516100ca91906113e6565b60405180910390f35b6100ed60048036038101906100e89190611408565b610314565b6040516100fa919061146a565b60405180910390f35b61011d600480360381019061011891906114b1565b61044b565b60405161012a91906114fb565b60405180910390f35b61014d60048036038101906101489190611516565b610472565b60405161015a91906114fb565b60405180910390f35b61017d600480360381019061017891906115a2565b6104d8565b60405161018a91906113e6565b60405180910390f35b6101ad60048036038101906101a891906115fe565b6105d6565b6040516101ba91906113e6565b60405180910390f35b6101dd60048036038101906101d891906115fe565b610672565b6040516101ea91906113e6565b60405180910390f35b61020d60048036038101906102089190611408565b6106cc565b60405161021e9594939291906116c0565b60405180910390f35b610241600480360381019061023c91906114b1565b610def565b60405161024e91906113e6565b60405180910390f35b610271600480360381019061026c9190611408565b61100a565b60405161027e919061146a565b60405180910390f35b60606000828460405160200161029e9291906117b0565b604051602081830303815290604052905060006102ba82610314565b905060006102c78261044b565b905060006102e26102db8361ffff16610def565b60026104d8565b90508681876040516020016102f9939291906117df565b60405160208183030381529060405294505050505092915050565b6000806000905060005b835181101561044157600084828151811061033c5761033b611810565b5b602001015160f81c60f81b60f81c905060308160ff161061038257603085838151811061036c5761036b611810565b5b602001015160f81c60f81b60f81c039050610387565b60ff90505b60008160ff161015801561039f575060098160ff1611155b156103c6578060ff16600a846103b5919061186e565b6103bf91906118b0565b9250610433565b60318160ff16101580156103de5750604a8160ff1611155b156103ea576020810390505b60118160ff16101580156104025750602a8160ff1611155b1561041557600a6011820301905061041a565b600090505b60008160ff161115610432578060ff16606484020192505b5b50808060010191505061031e565b5080915050919050565b60008060618361045b9190611913565b60626104679190611944565b905080915050919050565b600080826003610482919061186e565b84600f61048f919061186e565b86605961049c919061186e565b6104a691906118b0565b6104b091906118b0565b90506061816104bf9190611913565b60616104cb9190611944565b9050809150509392505050565b60608160ff168351106104ed578290506105d0565b82518203915060008260ff1667ffffffffffffffff811115610512576105116111c4565b5b6040519080825280601f01601f1916602001820160405280156105445781602001600182028036833780820191505090505b50905060005b8360ff168110156105a957603060f81b82828151811061056d5761056c611810565b5b60200101907effffffffffffffffffffffffffffffffffffffffffffffffffffffffffffff1916908160001a905350808060010191505061054a565b5080846040516020016105bd9291906119bf565b6040516020818303038152906040529150505b92915050565b606060006105fd6105e68661100a565b6105ef8661100a565b6105f88661100a565b610472565b905061060a8560056104d8565b94506106178460056104d8565b935061062483600b6104d8565b9250600061063f6106388361ffff16610def565b60026104d8565b90508585858360405160200161065894939291906119e3565b604051602081830303815290604052925050509392505050565b606060006106818585856105d6565b90506106c26040518060400160405280600281526020017f465200000000000000000000000000000000000000000000000000000000000081525082610287565b9150509392505050565b60006060806060600080869050604660f81b7effffffffffffffffffffffffffffffffffffffffffffffffffffffffffffff19168160008151811061071457610713611810565b5b602001015160f81c60f81b7effffffffffffffffffffffffffffffffffffffffffffffffffffffffffffff19161415806107b45750605260f81b7effffffffffffffffffffffffffffffffffffffffffffffffffffffffffffff19168160018151811061078457610783611810565b5b602001015160f81c60f81b7effffffffffffffffffffffffffffffffffffffffffffffffffffffffffffff191614155b156107ff576000806040518060200160405280600081525090604051806020016040528060008152509060405180602001604052806000815250909550955095509550955050610de6565b601b8151101561084f576000806040518060200160405280600081525090604051806020016040528060008152509060405180602001604052806000815250909550955095509550955050610de6565b601b8151111561092b576000601b90505b815181101561092957600060f81b7effffffffffffffffffffffffffffffffffffffffffffffffffffffffffffff19168282815181106108a3576108a2611810565b5b602001015160f81c60f81b7effffffffffffffffffffffffffffffffffffffffffffffffffffffffffffff19161461091c57600080604051806020016040528060008152509060405180602001604052806000815250906040518060200160405280600081525090965096509650965096505050610de6565b8080600101915050610860565b505b60006109938260028151811061094457610943611810565b5b602001015160f81c60f81b8360038151811061096357610962611810565b5b602001015160f81c60f81b60405160200161097f929190611a6e565b604051602081830303815290604052610314565b90506109fb826019815181106109ac576109ab611810565b5b602001015160f81c60f81b83601a815181106109cb576109ca611810565b5b602001015160f81c60f81b6040516020016109e7929190611a6e565b60405160208183030381529060405261100a565b925081600481518110610a1157610a10611810565b5b602001015160f81c60f81b82600581518110610a3057610a2f611810565b5b602001015160f81c60f81b83600681518110610a4f57610a4e611810565b5b602001015160f81c60f81b84600781518110610a6e57610a6d611810565b5b602001015160f81c60f81b85600881518110610a8d57610a8c611810565b5b602001015160f81c60f81b604051602001610aac959493929190611a9a565b604051602081830303815290604052955081600981518110610ad157610ad0611810565b5b602001015160f81c60f81b82600a81518110610af057610aef611810565b5b602001015160f81c60f81b83600b81518110610b0f57610b0e611810565b5b602001015160f81c60f81b84600c81518110610b2e57610b2d611810565b5b602001015160f81c60f81b85600d81518110610b4d57610b4c611810565b5b602001015160f81c60f81b604051602001610b6c959493929190611a9a565b604051602081830303815290604052945081600e81518110610b9157610b90611810565b5b602001015160f81c60f81b82600f81518110610bb057610baf611810565b5b602001015160f81c60f81b83601081518110610bcf57610bce611810565b5b602001015160f81c60f81b84601181518110610bee57610bed611810565b5b602001015160f81c60f81b85601281518110610c0d57610c0c611810565b5b602001015160f81c60f81b86601381518110610c2c57610c2b611810565b5b602001015160f81c60f81b87601481518110610c4b57610c4a611810565b5b602001015160f81c60f81b88601581518110610c6a57610c69611810565b5b602001015160f81c60f81b89601681518110610c8957610c88611810565b5b602001015160f81c60f81b8a601781518110610ca857610ca7611810565b5b602001015160f81c60f81b8b601881518110610cc757610cc6611810565b5b602001015160f81c60f81b604051602001610cec9b9a99989796959493929190611af9565b60405160208183030381529060405293506000610d22610d0b8861100a565b610d148861100a565b610d1d8861100a565b610472565b90508361ffff168161ffff1614610d3f5760009750505050610de6565b600087878786601981518110610d5857610d57611810565b5b602001015160f81c60f81b87601a81518110610d7757610d76611810565b5b602001015160f81c60f81b604051602001610d96959493929190611c0a565b60405160208183030381529060405290506000610db282610314565b90506000610dbf8261044b565b9050848161ffff1614610ddb5760009a50505050505050610de6565b60019a505050505050505b91939590929450565b606060008203610e36576040518060400160405280600181526020017f30000000000000000000000000000000000000000000000000000000000000008152509050611005565b60006064905060008167ffffffffffffffff811115610e5857610e576111c4565b5b6040519080825280601f01601f191660200182016040528015610e8a5781602001600182028036833780820191505090505b50905060005b60008514610f1c576000600a86610ea79190611913565b9050600a86610eb69190611c68565b9550806030610ec591906118b0565b60f81b838380610ed490611c99565b945081518110610ee757610ee6611810565b5b60200101907effffffffffffffffffffffffffffffffffffffffffffffffffffffffffffff1916908160001a90535050610e90565b60008167ffffffffffffffff811115610f3857610f376111c4565b5b6040519080825280601f01601f191660200182016040528015610f6a5781602001600182028036833780820191505090505b50905060005b82811015610ffc578381600185610f879190611944565b610f919190611944565b81518110610fa257610fa1611810565b5b602001015160f81c60f81b828281518110610fc057610fbf611810565b5b60200101907effffffffffffffffffffffffffffffffffffffffffffffffffffffffffffff1916908160001a9053508080600101915050610f70565b50809450505050505b919050565b6000806000905060005b835181101561118b57600084828151811061103257611031611810565b5b602001015160f81c60f81b60f81c905060308160ff161061107857603085838151811061106257611061611810565b5b602001015160f81c60f81b60f81c03905061107d565b60ff90505b60008160ff1610158015611095575060098160ff1611155b156110bc578060ff16600a846110ab919061186e565b6110b591906118b0565b925061117d565b60318160ff16101580156110d45750604a8160ff1611155b156110e0576020810390505b60118160ff16101580156110f8575060228160ff1611155b1561111f57600160096011830360ff1681611116576111156118e4565b5b06019050611164565b60238160ff16101580156111375750602a8160ff1611155b1561115e57600160096010830360ff1681611155576111546118e4565b5b06019050611163565b600090505b5b60008160ff16111561117c578060ff16600a84020192505b5b508080600101915050611014565b5080915050919050565b6000604051905090565b600080fd5b600080fd5b600080fd5b600080fd5b6000601f19601f8301169050919050565b7f4e487b7100000000000000000000000000000000000000000000000000000000600052604160045260246000fd5b6111fc826111b3565b810181811067ffffffffffffffff8211171561121b5761121a6111c4565b5b80604052505050565b600061122e611195565b905061123a82826111f3565b919050565b600067ffffffffffffffff82111561125a576112596111c4565b5b611263826111b3565b9050602081019050919050565b82818337600083830152505050565b600061129261128d8461123f565b611224565b9050828152602081018484840111156112ae576112ad6111ae565b5b6112b9848285611270565b509392505050565b600082601f8301126112d6576112d56111a9565b5b81356112e684826020860161127f565b91505092915050565b600080604083850312156113065761130561119f565b5b600083013567ffffffffffffffff811115611324576113236111a4565b5b611330858286016112c1565b925050602083013567ffffffffffffffff811115611351576113506111a4565b5b61135d858286016112c1565b9150509250929050565b600081519050919050565b600082825260208201905092915050565b60005b838110156113a1578082015181840152602081019050611386565b60008484015250505050565b60006113b882611367565b6113c28185611372565b93506113d2818560208601611383565b6113db816111b3565b840191505092915050565b6000602082019050818103600083015261140081846113ad565b905092915050565b60006020828403121561141e5761141d61119f565b5b600082013567ffffffffffffffff81111561143c5761143b6111a4565b5b611448848285016112c1565b91505092915050565b6000819050919050565b61146481611451565b82525050565b600060208201905061147f600083018461145b565b92915050565b61148e81611451565b811461149957600080fd5b50565b6000813590506114ab81611485565b92915050565b6000602082840312156114c7576114c661119f565b5b60006114d58482850161149c565b91505092915050565b600061ffff82169050919050565b6114f5816114de565b82525050565b600060208201905061151060008301846114ec565b92915050565b60008060006060848603121561152f5761152e61119f565b5b600061153d8682870161149c565b935050602061154e8682870161149c565b925050604061155f8682870161149c565b9150509250925092565b600060ff82169050919050565b61157f81611569565b811461158a57600080fd5b50565b60008135905061159c81611576565b92915050565b600080604083850312156115b9576115b861119f565b5b600083013567ffffffffffffffff8111156115d7576115d66111a4565b5b6115e3858286016112c1565b92505060206115f48582860161158d565b9150509250929050565b6000806000606084860312156116175761161661119f565b5b600084013567ffffffffffffffff811115611635576116346111a4565b5b611641868287016112c1565b935050602084013567ffffffffffffffff811115611662576116616111a4565b5b61166e868287016112c1565b925050604084013567ffffffffffffffff81111561168f5761168e6111a4565b5b61169b868287016112c1565b9150509250925092565b60008115159050919050565b6116ba816116a5565b82525050565b600060a0820190506116d560008301886116b1565b81810360208301526116e781876113ad565b905081810360408301526116fb81866113ad565b9050818103606083015261170f81856113ad565b905061171e60808301846114ec565b9695505050505050565b600081905092915050565b600061173e82611367565b6117488185611728565b9350611758818560208601611383565b80840191505092915050565b7f3030000000000000000000000000000000000000000000000000000000000000600082015250565b600061179a600283611728565b91506117a582611764565b600282019050919050565b60006117bc8285611733565b91506117c88284611733565b91506117d38261178d565b91508190509392505050565b60006117eb8286611733565b91506117f78285611733565b91506118038284611733565b9150819050949350505050565b7f4e487b7100000000000000000000000000000000000000000000000000000000600052603260045260246000fd5b7f4e487b7100000000000000000000000000000000000000000000000000000000600052601160045260246000fd5b600061187982611451565b915061188483611451565b925082820261189281611451565b915082820484148315176118a9576118a861183f565b5b5092915050565b60006118bb82611451565b91506118c683611451565b92508282019050808211156118de576118dd61183f565b5b92915050565b7f4e487b7100000000000000000000000000000000000000000000000000000000600052601260045260246000fd5b600061191e82611451565b915061192983611451565b925082611939576119386118e4565b5b828206905092915050565b600061194f82611451565b915061195a83611451565b92508282039050818111156119725761197161183f565b5b92915050565b600081519050919050565b600081905092915050565b600061199982611978565b6119a38185611983565b93506119b3818560208601611383565b80840191505092915050565b60006119cb828561198e565b91506119d78284611733565b91508190509392505050565b60006119ef8287611733565b91506119fb8286611733565b9150611a078285611733565b9150611a138284611733565b915081905095945050505050565b60007fff0000000000000000000000000000000000000000000000000000000000000082169050919050565b6000819050919050565b611a68611a6382611a21565b611a4d565b82525050565b6000611a7a8285611a57565b600182019150611a8a8284611a57565b6001820191508190509392505050565b6000611aa68288611a57565b600182019150611ab68287611a57565b600182019150611ac68286611a57565b600182019150611ad68285611a57565b600182019150611ae68284611a57565b6001820191508190509695505050505050565b6000611b05828e611a57565b600182019150611b15828d611a57565b600182019150611b25828c611a57565b600182019150611b35828b611a57565b600182019150611b45828a611a57565b600182019150611b558289611a57565b600182019150611b658288611a57565b600182019150611b758287611a57565b600182019150611b858286611a57565b600182019150611b958285611a57565b600182019150611ba58284611a57565b6001820191508190509c9b505050505050505050505050565b7f4652303000000000000000000000000000000000000000000000000000000000600082015250565b6000611bf4600483611728565b9150611bff82611bbe565b600482019050919050565b6000611c168288611733565b9150611c228287611733565b9150611c2e8286611733565b9150611c3a8285611a57565b600182019150611c4a8284611a57565b600182019150611c5982611be7565b91508190509695505050505050565b6000611c7382611451565b9150611c7e83611451565b925082611c8e57611c8d6118e4565b5b828204905092915050565b6000611ca482611451565b91507fffffffffffffffffffffffffffffffffffffffffffffffffffffffffffffffff8203611cd657611cd561183f565b5b60018201905091905056fea264697066735822122058c21a6785bba2c54a50976532d0f5351e518754bb6449f7730dac2d46642efc64736f6c634300081b0033",
  "linkReferences": {},
  "deployedLinkReferences": {}
}