{
  "_format": "hh-sol-artifact-1",
  "contractName": "HTLCPaymentCapacity",
  "sourceName": "so|cash/src/utilities/htlc-payments.sol",
  "abi": [
    {
      "anonymous": false,
      "inputs": [
        {
          "indexed": true,
          "internalType": "bytes32",
          "name": "id",
          "type": "bytes32"
        },
        {
          "indexed": true,
          "internalType": "bytes32",
          "name": "hashlockPaid",
          "type": "bytes32"
        },
        {
          "components": [
            {
              "components": [
                {
                  "internalType": "contract ISoCashAccount",
                  "name": "account",
                  "type": "address"
                },
                {
                  "internalType": "BIC",
                  "name": "bic",
                  "type": "bytes11"
                },
                {
                  "internalType": "IBAN",
                  "name": "iban",
                  "type": "bytes32"
                }
              ],
              "internalType": "struct RecipentInfo",
              "name": "recipient",
              "type": "tuple"
            },
            {
              "internalType": "uint256",
              "name": "amount",
              "type": "uint256"
            },
            {
              "internalType": "uint256",
              "name": "deadline",
              "type": "uint256"
            },
            {
              "internalType": "bytes32",
              "name": "hashlockPaid",
              "type": "bytes32"
            },
            {
              "internalType": "bytes32",
              "name": "hashlockCancel",
              "type": "bytes32"
            },
            {
              "internalType": "string",
              "name": "opaque",
              "type": "string"
            },
            {
              "internalType": "enum IHTLCPayment.HTLCState",
              "name": "state",
              "type": "uint8"
            }
          ],
          "indexed": false,
          "internalType": "struct IHTLCPayment.HTLC",
          "name": "htlc",
          "type": "tuple"
        }
      ],
      "name": "HTLCPaymentCreated",
      "type": "event"
    },
    {
      "anonymous": false,
      "inputs": [
        {
          "indexed": true,
          "internalType": "bytes32",
          "name": "id",
          "type": "bytes32"
        },
        {
          "indexed": false,
          "internalType": "uint256",
          "name": "amount",
          "type": "uint256"
        },
        {
          "indexed": false,
          "internalType": "uint256",
          "name": "deadline",
          "type": "uint256"
        },
        {
          "indexed": false,
          "internalType": "string",
          "name": "usingSecret",
          "type": "string"
        },
        {
          "indexed": false,
          "internalType": "string",
          "name": "opaque",
          "type": "string"
        },
        {
          "indexed": false,
          "internalType": "bool",
          "name": "cancelled",
          "type": "bool"
        }
      ],
      "name": "HTLCPaymentRemoved",
      "type": "event"
    },
    {
      "inputs": [
        {
          "internalType": "bytes32",
          "name": "id",
          "type": "bytes32"
        }
      ],
      "name": "getHTLCPayment",
      "outputs": [
        {
          "components": [
            {
              "components": [
                {
                  "internalType": "contract ISoCashAccount",
                  "name": "account",
                  "type": "address"
                },
                {
                  "internalType": "BIC",
                  "name": "bic",
                  "type": "bytes11"
                },
                {
                  "internalType": "IBAN",
                  "name": "iban",
                  "type": "bytes32"
                }
              ],
              "internalType": "struct RecipentInfo",
              "name": "recipient",
              "type": "tuple"
            },
            {
              "internalType": "uint256",
              "name": "amount",
              "type": "uint256"
            },
            {
              "internalType": "uint256",
              "name": "deadline",
              "type": "uint256"
            },
            {
              "internalType": "bytes32",
              "name": "hashlockPaid",
              "type": "bytes32"
            },
            {
              "internalType": "bytes32",
              "name": "hashlockCancel",
              "type": "bytes32"
            },
            {
              "internalType": "string",
              "name": "opaque",
              "type": "string"
            },
            {
              "internalType": "enum IHTLCPayment.HTLCState",
              "name": "state",
              "type": "uint8"
            }
          ],
          "internalType": "struct IHTLCPayment.HTLC",
          "name": "",
          "type": "tuple"
        }
      ],
      "stateMutability": "view",
      "type": "function"
    },
    {
      "inputs": [
        {
          "internalType": "bytes32",
          "name": "id",
          "type": "bytes32"
        },
        {
          "internalType": "string",
          "name": "secret",
          "type": "string"
        }
      ],
      "name": "verifyHTLC",
      "outputs": [
        {
          "internalType": "bool",
          "name": "ok",
          "type": "bool"
        },
        {
          "internalType": "string",
          "name": "reason",
          "type": "string"
        }
      ],
      "stateMutability": "view",
      "type": "function"
    },
    {
      "inputs": [
        {
          "internalType": "bytes32",
          "name": "id",
          "type": "bytes32"
        },
        {
          "internalType": "string",
          "name": "secret",
          "type": "string"
        }
      ],
      "name": "verifyHTLCCancel",
      "outputs": [
        {
          "internalType": "bool",
          "name": "ok",
          "type": "bool"
        },
        {
          "internalType": "string",
          "name": "reason",
          "type": "string"
        }
      ],
      "stateMutability": "view",
      "type": "function"
    }
  ],
  "bytecode": "0x608060405260008055348015601357600080fd5b50610d12806100236000396000f3fe608060405234801561001057600080fd5b50600436106100415760003560e01c80631640968214610046578063777b71ff14610077578063ffd15035146100a7575b600080fd5b610060600480360381019061005b91906106af565b6100d8565b60405161006e9291906107ba565b60405180910390f35b610091600480360381019061008c91906107ea565b610207565b60405161009e9190610acd565b60405180910390f35b6100c160048036038101906100bc91906106af565b6103e4565b6040516100cf9291906107ba565b60405180910390f35b6000606060006001600087815260200190815260200160002090506000801b816004015403610126576000604051806060016040528060288152602001610c486028913992509250506101ff565b600042826003015411159050600060028787604051602001610149929190610b2e565b6040516020818303038152906040526040516101659190610b8e565b602060405180830381855afa158015610182573d6000803e3d6000fd5b5050506040513d601f19601f820116820180604052508101906101a59190610bba565b8360050154149050811580156101b9575080155b156101e5576000604051806060016040528060378152602001610c7060379139945094505050506101ff565b600160405180602001604052806000815250945094505050505b935093915050565b61020f61055d565b600160008381526020019081526020016000206040518060e0016040529081600082016040518060600160405290816000820160009054906101000a900473ffffffffffffffffffffffffffffffffffffffff1673ffffffffffffffffffffffffffffffffffffffff1673ffffffffffffffffffffffffffffffffffffffff1681526020016000820160149054906101000a900460a81b74ffffffffffffffffffffffffffffffffffffffffff191674ffffffffffffffffffffffffffffffffffffffffff1916815260200160018201548152505081526020016002820154815260200160038201548152602001600482015481526020016005820154815260200160068201805461032090610c16565b80601f016020809104026020016040519081016040528092919081815260200182805461034c90610c16565b80156103995780601f1061036e57610100808354040283529160200191610399565b820191906000526020600020905b81548152906001019060200180831161037c57829003601f168201915b505050505081526020016007820160009054906101000a900460ff1660028111156103c7576103c66109b8565b5b60028111156103d9576103d86109b8565b5b815250509050919050565b6000606060006001600087815260200190815260200160002090506000801b816004015403610432576000604051806060016040528060368152602001610ca7603691399250925050610555565b42816003015410156104805760006040518060400160405280601681526020017f48544c433a20646561646c696e652065787069726564000000000000000000008152509250925050610555565b60028585604051602001610495929190610b2e565b6040516020818303038152906040526040516104b19190610b8e565b602060405180830381855afa1580156104ce573d6000803e3d6000fd5b5050506040513d601f19601f820116820180604052508101906104f19190610bba565b81600401541461053d5760006040518060400160405280601581526020017f48544c433a20736563726574206d69736d6174636800000000000000000000008152509250925050610555565b60016040518060200160405280600081525092509250505b935093915050565b6040518060e001604052806105706105b8565b81526020016000815260200160008152602001600080191681526020016000801916815260200160608152602001600060028111156105b2576105b16109b8565b5b81525090565b6040518060600160405280600073ffffffffffffffffffffffffffffffffffffffff168152602001600074ffffffffffffffffffffffffffffffffffffffffff19168152602001600080191681525090565b600080fd5b600080fd5b6000819050919050565b61062781610614565b811461063257600080fd5b50565b6000813590506106448161061e565b92915050565b600080fd5b600080fd5b600080fd5b60008083601f84011261066f5761066e61064a565b5b8235905067ffffffffffffffff81111561068c5761068b61064f565b5b6020830191508360018202830111156106a8576106a7610654565b5b9250929050565b6000806000604084860312156106c8576106c761060a565b5b60006106d686828701610635565b935050602084013567ffffffffffffffff8111156106f7576106f661060f565b5b61070386828701610659565b92509250509250925092565b60008115159050919050565b6107248161070f565b82525050565b600081519050919050565b600082825260208201905092915050565b60005b83811015610764578082015181840152602081019050610749565b60008484015250505050565b6000601f19601f8301169050919050565b600061078c8261072a565b6107968185610735565b93506107a6818560208601610746565b6107af81610770565b840191505092915050565b60006040820190506107cf600083018561071b565b81810360208301526107e18184610781565b90509392505050565b600060208284031215610800576107ff61060a565b5b600061080e84828501610635565b91505092915050565b600073ffffffffffffffffffffffffffffffffffffffff82169050919050565b6000819050919050565b600061085c61085761085284610817565b610837565b610817565b9050919050565b600061086e82610841565b9050919050565b600061088082610863565b9050919050565b61089081610875565b82525050565b60007fffffffffffffffffffffff00000000000000000000000000000000000000000082169050919050565b60006108cd82610896565b9050919050565b6108dd816108c2565b82525050565b60006108ee82610614565b9050919050565b6108fe816108e3565b82525050565b60608201600082015161091a6000850182610887565b50602082015161092d60208501826108d4565b50604082015161094060408501826108f5565b50505050565b6000819050919050565b61095981610946565b82525050565b61096881610614565b82525050565b600082825260208201905092915050565b600061098a8261072a565b610994818561096e565b93506109a4818560208601610746565b6109ad81610770565b840191505092915050565b7f4e487b7100000000000000000000000000000000000000000000000000000000600052602160045260246000fd5b600381106109f8576109f76109b8565b5b50565b6000819050610a09826109e7565b919050565b6000610a19826109fb565b9050919050565b610a2981610a0e565b82525050565b600061012083016000830151610a486000860182610904565b506020830151610a5b6060860182610950565b506040830151610a6e6080860182610950565b506060830151610a8160a086018261095f565b506080830151610a9460c086018261095f565b5060a083015184820360e0860152610aac828261097f565b91505060c0830151610ac2610100860182610a20565b508091505092915050565b60006020820190508181036000830152610ae78184610a2f565b905092915050565b600081905092915050565b82818337600083830152505050565b6000610b158385610aef565b9350610b22838584610afa565b82840190509392505050565b6000610b3b828486610b09565b91508190509392505050565b600081519050919050565b600081905092915050565b6000610b6882610b47565b610b728185610b52565b9350610b82818560208601610746565b80840191505092915050565b6000610b9a8284610b5d565b915081905092915050565b600081519050610bb48161061e565b92915050565b600060208284031215610bd057610bcf61060a565b5b6000610bde84828501610ba5565b91505092915050565b7f4e487b7100000000000000000000000000000000000000000000000000000000600052602260045260246000fd5b60006002820490506001821680610c2e57607f821691505b602082108103610c4157610c40610be7565b5b5091905056fe48544c433a20696e76616c6964206964206f72206465627420616c726561647920636c656172656448544c433a20646561646c696e65206e6f74207965742065787069726564206f7220696e76616c69642063616e63656c2073656372657448544c433a20696e76616c6964206964206f72206465627420616c726561647920636c6561726564207768696c6520636c6f73696e67a264697066735822122011afe8f16e901d20fb515df6a79009318e1a09e4001c6a963c642a36a7ba25a264736f6c634300081b0033",
  "linkReferences": {},
  "deployedLinkReferences": {}
}