{
  "_format": "hh-sol-artifact-1",
  "contractName": "InvoiceNFT",
  "sourceName": "contracts/InvoiceNFT.sol",
  "abi": [
    {
      "inputs": [],
      "stateMutability": "nonpayable",
      "type": "constructor"
    },
    {
      "inputs": [
        {
          "internalType": "address",
          "name": "sender",
          "type": "address"
        },
        {
          "internalType": "uint256",
          "name": "balance",
          "type": "uint256"
        },
        {
          "internalType": "uint256",
          "name": "needed",
          "type": "uint256"
        },
        {
          "internalType": "uint256",
          "name": "tokenId",
          "type": "uint256"
        }
      ],
      "name": "ERC1155InsufficientBalance",
      "type": "error"
    },
    {
      "inputs": [
        {
          "internalType": "address",
          "name": "approver",
          "type": "address"
        }
      ],
      "name": "ERC1155InvalidApprover",
      "type": "error"
    },
    {
      "inputs": [
        {
          "internalType": "uint256",
          "name": "idsLength",
          "type": "uint256"
        },
        {
          "internalType": "uint256",
          "name": "valuesLength",
          "type": "uint256"
        }
      ],
      "name": "ERC1155InvalidArrayLength",
      "type": "error"
    },
    {
      "inputs": [
        {
          "internalType": "address",
          "name": "operator",
          "type": "address"
        }
      ],
      "name": "ERC1155InvalidOperator",
      "type": "error"
    },
    {
      "inputs": [
        {
          "internalType": "address",
          "name": "receiver",
          "type": "address"
        }
      ],
      "name": "ERC1155InvalidReceiver",
      "type": "error"
    },
    {
      "inputs": [
        {
          "internalType": "address",
          "name": "sender",
          "type": "address"
        }
      ],
      "name": "ERC1155InvalidSender",
      "type": "error"
    },
    {
      "inputs": [
        {
          "internalType": "address",
          "name": "operator",
          "type": "address"
        },
        {
          "internalType": "address",
          "name": "owner",
          "type": "address"
        }
      ],
      "name": "ERC1155MissingApprovalForAll",
      "type": "error"
    },
    {
      "inputs": [
        {
          "internalType": "address",
          "name": "owner",
          "type": "address"
        }
      ],
      "name": "OwnableInvalidOwner",
      "type": "error"
    },
    {
      "inputs": [
        {
          "internalType": "address",
          "name": "account",
          "type": "address"
        }
      ],
      "name": "OwnableUnauthorizedAccount",
      "type": "error"
    },
    {
      "anonymous": false,
      "inputs": [
        {
          "indexed": true,
          "internalType": "address",
          "name": "account",
          "type": "address"
        },
        {
          "indexed": true,
          "internalType": "address",
          "name": "operator",
          "type": "address"
        },
        {
          "indexed": false,
          "internalType": "bool",
          "name": "approved",
          "type": "bool"
        }
      ],
      "name": "ApprovalForAll",
      "type": "event"
    },
    {
      "anonymous": false,
      "inputs": [
        {
          "indexed": true,
          "internalType": "uint256",
          "name": "invoiceId",
          "type": "uint256"
        },
        {
          "indexed": true,
          "internalType": "address",
          "name": "creator",
          "type": "address"
        },
        {
          "indexed": false,
          "internalType": "uint256",
          "name": "nftId",
          "type": "uint256"
        }
      ],
      "name": "InvoiceCreated",
      "type": "event"
    },
    {
      "anonymous": false,
      "inputs": [
        {
          "indexed": true,
          "internalType": "uint256",
          "name": "invoiceId",
          "type": "uint256"
        },
        {
          "indexed": true,
          "internalType": "address",
          "name": "creator",
          "type": "address"
        }
      ],
      "name": "InvoicePaid",
      "type": "event"
    },
    {
      "anonymous": false,
      "inputs": [
        {
          "indexed": true,
          "internalType": "uint256",
          "name": "invoiceId",
          "type": "uint256"
        },
        {
          "indexed": true,
          "internalType": "address",
          "name": "updater",
          "type": "address"
        }
      ],
      "name": "InvoiceUpdated",
      "type": "event"
    },
    {
      "anonymous": false,
      "inputs": [
        {
          "indexed": true,
          "internalType": "address",
          "name": "previousOwner",
          "type": "address"
        },
        {
          "indexed": true,
          "internalType": "address",
          "name": "newOwner",
          "type": "address"
        }
      ],
      "name": "OwnershipTransferred",
      "type": "event"
    },
    {
      "anonymous": false,
      "inputs": [
        {
          "indexed": true,
          "internalType": "address",
          "name": "operator",
          "type": "address"
        },
        {
          "indexed": true,
          "internalType": "address",
          "name": "from",
          "type": "address"
        },
        {
          "indexed": true,
          "internalType": "address",
          "name": "to",
          "type": "address"
        },
        {
          "indexed": false,
          "internalType": "uint256[]",
          "name": "ids",
          "type": "uint256[]"
        },
        {
          "indexed": false,
          "internalType": "uint256[]",
          "name": "values",
          "type": "uint256[]"
        }
      ],
      "name": "TransferBatch",
      "type": "event"
    },
    {
      "anonymous": false,
      "inputs": [
        {
          "indexed": true,
          "internalType": "address",
          "name": "operator",
          "type": "address"
        },
        {
          "indexed": true,
          "internalType": "address",
          "name": "from",
          "type": "address"
        },
        {
          "indexed": true,
          "internalType": "address",
          "name": "to",
          "type": "address"
        },
        {
          "indexed": false,
          "internalType": "uint256",
          "name": "id",
          "type": "uint256"
        },
        {
          "indexed": false,
          "internalType": "uint256",
          "name": "value",
          "type": "uint256"
        }
      ],
      "name": "TransferSingle",
      "type": "event"
    },
    {
      "anonymous": false,
      "inputs": [
        {
          "indexed": false,
          "internalType": "string",
          "name": "value",
          "type": "string"
        },
        {
          "indexed": true,
          "internalType": "uint256",
          "name": "id",
          "type": "uint256"
        }
      ],
      "name": "URI",
      "type": "event"
    },
    {
      "inputs": [
        {
          "internalType": "address",
          "name": "account",
          "type": "address"
        },
        {
          "internalType": "uint256",
          "name": "id",
          "type": "uint256"
        }
      ],
      "name": "balanceOf",
      "outputs": [
        {
          "internalType": "uint256",
          "name": "",
          "type": "uint256"
        }
      ],
      "stateMutability": "view",
      "type": "function"
    },
    {
      "inputs": [
        {
          "internalType": "address[]",
          "name": "accounts",
          "type": "address[]"
        },
        {
          "internalType": "uint256[]",
          "name": "ids",
          "type": "uint256[]"
        }
      ],
      "name": "balanceOfBatch",
      "outputs": [
        {
          "internalType": "uint256[]",
          "name": "",
          "type": "uint256[]"
        }
      ],
      "stateMutability": "view",
      "type": "function"
    },
    {
      "inputs": [
        {
          "internalType": "string",
          "name": "_issuer",
          "type": "string"
        },
        {
          "internalType": "string",
          "name": "_recipient",
          "type": "string"
        },
        {
          "internalType": "string",
          "name": "_description",
          "type": "string"
        },
        {
          "internalType": "uint256",
          "name": "_amount",
          "type": "uint256"
        },
        {
          "internalType": "string",
          "name": "_currency",
          "type": "string"
        },
        {
          "internalType": "uint256",
          "name": "_dueDate",
          "type": "uint256"
        },
        {
          "internalType": "string",
          "name": "_paymentInfo",
          "type": "string"
        },
        {
          "internalType": "address[]",
          "name": "_destinataires",
          "type": "address[]"
        }
      ],
      "name": "createInvoice",
      "outputs": [],
      "stateMutability": "nonpayable",
      "type": "function"
    },
    {
      "inputs": [],
      "name": "currentInvoiceId",
      "outputs": [
        {
          "internalType": "uint256",
          "name": "",
          "type": "uint256"
        }
      ],
      "stateMutability": "view",
      "type": "function"
    },
    {
      "inputs": [
        {
          "internalType": "uint256",
          "name": "_invoiceId",
          "type": "uint256"
        }
      ],
      "name": "getInvoiceDetails",
      "outputs": [
        {
          "components": [
            {
              "internalType": "uint256",
              "name": "id",
              "type": "uint256"
            },
            {
              "internalType": "string",
              "name": "issuer",
              "type": "string"
            },
            {
              "internalType": "string",
              "name": "recipient",
              "type": "string"
            },
            {
              "internalType": "string",
              "name": "description",
              "type": "string"
            },
            {
              "internalType": "uint256",
              "name": "amount",
              "type": "uint256"
            },
            {
              "internalType": "string",
              "name": "currency",
              "type": "string"
            },
            {
              "internalType": "string",
              "name": "status",
              "type": "string"
            },
            {
              "internalType": "uint256",
              "name": "dueDate",
              "type": "uint256"
            },
            {
              "internalType": "string",
              "name": "paymentInfo",
              "type": "string"
            },
            {
              "internalType": "uint256",
              "name": "issueDate",
              "type": "uint256"
            }
          ],
          "internalType": "struct InvoiceNFT.Invoice",
          "name": "",
          "type": "tuple"
        }
      ],
      "stateMutability": "view",
      "type": "function"
    },
    {
      "inputs": [
        {
          "internalType": "uint256",
          "name": "",
          "type": "uint256"
        }
      ],
      "name": "invoiceCreators",
      "outputs": [
        {
          "internalType": "address",
          "name": "",
          "type": "address"
        }
      ],
      "stateMutability": "view",
      "type": "function"
    },
    {
      "inputs": [
        {
          "internalType": "uint256",
          "name": "",
          "type": "uint256"
        }
      ],
      "name": "invoices",
      "outputs": [
        {
          "internalType": "uint256",
          "name": "id",
          "type": "uint256"
        },
        {
          "internalType": "string",
          "name": "issuer",
          "type": "string"
        },
        {
          "internalType": "string",
          "name": "recipient",
          "type": "string"
        },
        {
          "internalType": "string",
          "name": "description",
          "type": "string"
        },
        {
          "internalType": "uint256",
          "name": "amount",
          "type": "uint256"
        },
        {
          "internalType": "string",
          "name": "currency",
          "type": "string"
        },
        {
          "internalType": "string",
          "name": "status",
          "type": "string"
        },
        {
          "internalType": "uint256",
          "name": "dueDate",
          "type": "uint256"
        },
        {
          "internalType": "string",
          "name": "paymentInfo",
          "type": "string"
        },
        {
          "internalType": "uint256",
          "name": "issueDate",
          "type": "uint256"
        }
      ],
      "stateMutability": "view",
      "type": "function"
    },
    {
      "inputs": [
        {
          "internalType": "address",
          "name": "account",
          "type": "address"
        },
        {
          "internalType": "address",
          "name": "operator",
          "type": "address"
        }
      ],
      "name": "isApprovedForAll",
      "outputs": [
        {
          "internalType": "bool",
          "name": "",
          "type": "bool"
        }
      ],
      "stateMutability": "view",
      "type": "function"
    },
    {
      "inputs": [
        {
          "internalType": "uint256",
          "name": "_invoiceId",
          "type": "uint256"
        }
      ],
      "name": "markAsPaid",
      "outputs": [],
      "stateMutability": "nonpayable",
      "type": "function"
    },
    {
      "inputs": [
        {
          "internalType": "uint256",
          "name": "_invoiceId",
          "type": "uint256"
        },
        {
          "internalType": "uint256",
          "name": "_amount",
          "type": "uint256"
        }
      ],
      "name": "mintMoreCopies",
      "outputs": [],
      "stateMutability": "nonpayable",
      "type": "function"
    },
    {
      "inputs": [],
      "name": "owner",
      "outputs": [
        {
          "internalType": "address",
          "name": "",
          "type": "address"
        }
      ],
      "stateMutability": "view",
      "type": "function"
    },
    {
      "inputs": [],
      "name": "renounceOwnership",
      "outputs": [],
      "stateMutability": "nonpayable",
      "type": "function"
    },
    {
      "inputs": [
        {
          "internalType": "address",
          "name": "from",
          "type": "address"
        },
        {
          "internalType": "address",
          "name": "to",
          "type": "address"
        },
        {
          "internalType": "uint256[]",
          "name": "ids",
          "type": "uint256[]"
        },
        {
          "internalType": "uint256[]",
          "name": "values",
          "type": "uint256[]"
        },
        {
          "internalType": "bytes",
          "name": "data",
          "type": "bytes"
        }
      ],
      "name": "safeBatchTransferFrom",
      "outputs": [],
      "stateMutability": "nonpayable",
      "type": "function"
    },
    {
      "inputs": [
        {
          "internalType": "address",
          "name": "from",
          "type": "address"
        },
        {
          "internalType": "address",
          "name": "to",
          "type": "address"
        },
        {
          "internalType": "uint256",
          "name": "id",
          "type": "uint256"
        },
        {
          "internalType": "uint256",
          "name": "value",
          "type": "uint256"
        },
        {
          "internalType": "bytes",
          "name": "data",
          "type": "bytes"
        }
      ],
      "name": "safeTransferFrom",
      "outputs": [],
      "stateMutability": "nonpayable",
      "type": "function"
    },
    {
      "inputs": [
        {
          "internalType": "address",
          "name": "operator",
          "type": "address"
        },
        {
          "internalType": "bool",
          "name": "approved",
          "type": "bool"
        }
      ],
      "name": "setApprovalForAll",
      "outputs": [],
      "stateMutability": "nonpayable",
      "type": "function"
    },
    {
      "inputs": [
        {
          "internalType": "bytes4",
          "name": "interfaceId",
          "type": "bytes4"
        }
      ],
      "name": "supportsInterface",
      "outputs": [
        {
          "internalType": "bool",
          "name": "",
          "type": "bool"
        }
      ],
      "stateMutability": "view",
      "type": "function"
    },
    {
      "inputs": [
        {
          "internalType": "address",
          "name": "newOwner",
          "type": "address"
        }
      ],
      "name": "transferOwnership",
      "outputs": [],
      "stateMutability": "nonpayable",
      "type": "function"
    },
    {
      "inputs": [
        {
          "internalType": "uint256",
          "name": "",
          "type": "uint256"
        }
      ],
      "name": "uri",
      "outputs": [
        {
          "internalType": "string",
          "name": "",
          "type": "string"
        }
      ],
      "stateMutability": "view",
      "type": "function"
    }
  ],
  "bytecode": "0x608060405260016004553480156200001657600080fd5b50336040518060600160405280602a815260200162003fe7602a91396200004381620000d160201b60201c565b50600073ffffffffffffffffffffffffffffffffffffffff168173ffffffffffffffffffffffffffffffffffffffff1603620000b95760006040517f1e4fbdf7000000000000000000000000000000000000000000000000000000008152600401620000b09190620001f1565b60405180910390fd5b620000ca81620000e660201b60201c565b506200056f565b8060029081620000e2919062000488565b5050565b6000600360009054906101000a900473ffffffffffffffffffffffffffffffffffffffff16905081600360006101000a81548173ffffffffffffffffffffffffffffffffffffffff021916908373ffffffffffffffffffffffffffffffffffffffff1602179055508173ffffffffffffffffffffffffffffffffffffffff168173ffffffffffffffffffffffffffffffffffffffff167f8be0079c531659141344cd1fd0a4f28419497f9722a3daafe3b4186f6b6457e060405160405180910390a35050565b600073ffffffffffffffffffffffffffffffffffffffff82169050919050565b6000620001d982620001ac565b9050919050565b620001eb81620001cc565b82525050565b6000602082019050620002086000830184620001e0565b92915050565b600081519050919050565b7f4e487b7100000000000000000000000000000000000000000000000000000000600052604160045260246000fd5b7f4e487b7100000000000000000000000000000000000000000000000000000000600052602260045260246000fd5b600060028204905060018216806200029057607f821691505b602082108103620002a657620002a562000248565b5b50919050565b60008190508160005260206000209050919050565b60006020601f8301049050919050565b600082821b905092915050565b600060088302620003107fffffffffffffffffffffffffffffffffffffffffffffffffffffffffffffffff82620002d1565b6200031c8683620002d1565b95508019841693508086168417925050509392505050565b6000819050919050565b6000819050919050565b600062000369620003636200035d8462000334565b6200033e565b62000334565b9050919050565b6000819050919050565b620003858362000348565b6200039d620003948262000370565b848454620002de565b825550505050565b600090565b620003b4620003a5565b620003c18184846200037a565b505050565b5b81811015620003e957620003dd600082620003aa565b600181019050620003c7565b5050565b601f82111562000438576200040281620002ac565b6200040d84620002c1565b810160208510156200041d578190505b620004356200042c85620002c1565b830182620003c6565b50505b505050565b600082821c905092915050565b60006200045d600019846008026200043d565b1980831691505092915050565b60006200047883836200044a565b9150826002028217905092915050565b62000493826200020e565b67ffffffffffffffff811115620004af57620004ae62000219565b5b620004bb825462000277565b620004c8828285620003ed565b600060209050601f831160018114620005005760008415620004eb578287015190505b620004f785826200046a565b86555062000567565b601f1984166200051086620002ac565b60005b828110156200053a5784890151825560018201915060208501945060208101905062000513565b868310156200055a578489015162000556601f8916826200044a565b8355505b6001600288020188555050505b505050505050565b613a68806200057f6000396000f3fe608060405234801561001057600080fd5b50600436106101155760003560e01c80638da5cb5b116100a2578063dfd5da6a11610071578063dfd5da6a1461030b578063e985e9c514610329578063f191f1fc14610359578063f242432a14610375578063f2fde38b1461039157610115565b80638da5cb5b14610271578063909a708a1461028f578063a22cb465146102bf578063bdbeb4c5146102db57610115565b80632eb2c2d6116100e95780632eb2c2d6146101c65780634e1273f4146101e25780634e6d1405146102125780637021cafe1461024b578063715018a61461026757610115565b8062fdd58e1461011a57806301ffc9a71461014a5780630e89341c1461017a5780631f1516b6146101aa575b600080fd5b610134600480360381019061012f9190612516565b6103ad565b6040516101419190612565565b60405180910390f35b610164600480360381019061015f91906125d8565b610407565b6040516101719190612620565b60405180910390f35b610194600480360381019061018f919061263b565b6104e9565b6040516101a191906126f8565b60405180910390f35b6101c460048036038101906101bf919061271a565b61057d565b005b6101e060048036038101906101db9190612957565b61063d565b005b6101fc60048036038101906101f79190612ae9565b6106e5565b6040516102099190612c1f565b60405180910390f35b61022c6004803603810190610227919061263b565b6107f4565b6040516102429a99989796959493929190612c41565b60405180910390f35b6102656004803603810190610260919061263b565b610b78565b005b61026f610d55565b005b610279610d69565b6040516102869190612d16565b60405180910390f35b6102a960048036038101906102a4919061263b565b610d93565b6040516102b69190612e78565b60405180910390f35b6102d960048036038101906102d49190612ec6565b611155565b005b6102f560048036038101906102f0919061263b565b61116b565b6040516103029190612d16565b60405180910390f35b61031361119e565b6040516103209190612565565b60405180910390f35b610343600480360381019061033e9190612f06565b6111a4565b6040516103509190612620565b60405180910390f35b610373600480360381019061036e9190612fe7565b611238565b005b61038f600480360381019061038a9190613145565b611502565b005b6103ab60048036038101906103a691906131dc565b6115aa565b005b600080600083815260200190815260200160002060008473ffffffffffffffffffffffffffffffffffffffff1673ffffffffffffffffffffffffffffffffffffffff16815260200190815260200160002054905092915050565b60007fd9b67a26000000000000000000000000000000000000000000000000000000007bffffffffffffffffffffffffffffffffffffffffffffffffffffffff1916827bffffffffffffffffffffffffffffffffffffffffffffffffffffffff191614806104d257507f0e89341c000000000000000000000000000000000000000000000000000000007bffffffffffffffffffffffffffffffffffffffffffffffffffffffff1916827bffffffffffffffffffffffffffffffffffffffffffffffffffffffff1916145b806104e257506104e182611630565b5b9050919050565b6060600280546104f890613238565b80601f016020809104026020016040519081016040528092919081815260200182805461052490613238565b80156105715780601f1061054657610100808354040283529160200191610571565b820191906000526020600020905b81548152906001019060200180831161055457829003601f168201915b50505050509050919050565b6006600083815260200190815260200160002060009054906101000a900473ffffffffffffffffffffffffffffffffffffffff1673ffffffffffffffffffffffffffffffffffffffff163373ffffffffffffffffffffffffffffffffffffffff161461061e576040517f08c379a0000000000000000000000000000000000000000000000000000000008152600401610615906132db565b60405180910390fd5b6106393383836040518060200160405280600081525061169a565b5050565b6000610647611733565b90508073ffffffffffffffffffffffffffffffffffffffff168673ffffffffffffffffffffffffffffffffffffffff161415801561068c575061068a86826111a4565b155b156106d05780866040517fe237d9220000000000000000000000000000000000000000000000000000000081526004016106c79291906132fb565b60405180910390fd5b6106dd868686868661173b565b505050505050565b6060815183511461073157815183516040517f5b059991000000000000000000000000000000000000000000000000000000008152600401610728929190613324565b60405180910390fd5b6000835167ffffffffffffffff81111561074e5761074d61275f565b5b60405190808252806020026020018201604052801561077c5781602001602082028036833780820191505090505b50905060005b84518110156107e9576107b96107a1828761183390919063ffffffff16565b6107b4838761184790919063ffffffff16565b6103ad565b8282815181106107cc576107cb61334d565b5b602002602001018181525050806107e2906133ab565b9050610782565b508091505092915050565b600560205280600052604060002060009150905080600001549080600101805461081d90613238565b80601f016020809104026020016040519081016040528092919081815260200182805461084990613238565b80156108965780601f1061086b57610100808354040283529160200191610896565b820191906000526020600020905b81548152906001019060200180831161087957829003601f168201915b5050505050908060020180546108ab90613238565b80601f01602080910402602001604051908101604052809291908181526020018280546108d790613238565b80156109245780601f106108f957610100808354040283529160200191610924565b820191906000526020600020905b81548152906001019060200180831161090757829003601f168201915b50505050509080600301805461093990613238565b80601f016020809104026020016040519081016040528092919081815260200182805461096590613238565b80156109b25780601f10610987576101008083540402835291602001916109b2565b820191906000526020600020905b81548152906001019060200180831161099557829003601f168201915b5050505050908060040154908060050180546109cd90613238565b80601f01602080910402602001604051908101604052809291908181526020018280546109f990613238565b8015610a465780601f10610a1b57610100808354040283529160200191610a46565b820191906000526020600020905b815481529060010190602001808311610a2957829003601f168201915b505050505090806006018054610a5b90613238565b80601f0160208091040260200160405190810160405280929190818152602001828054610a8790613238565b8015610ad45780601f10610aa957610100808354040283529160200191610ad4565b820191906000526020600020905b815481529060010190602001808311610ab757829003601f168201915b505050505090806007015490806008018054610aef90613238565b80601f0160208091040260200160405190810160405280929190818152602001828054610b1b90613238565b8015610b685780601f10610b3d57610100808354040283529160200191610b68565b820191906000526020600020905b815481529060010190602001808311610b4b57829003601f168201915b505050505090806009015490508a565b6006600082815260200190815260200160002060009054906101000a900473ffffffffffffffffffffffffffffffffffffffff1673ffffffffffffffffffffffffffffffffffffffff163373ffffffffffffffffffffffffffffffffffffffff1614610c19576040517f08c379a0000000000000000000000000000000000000000000000000000000008152600401610c1090613465565b60405180910390fd5b60006005600083815260200190815260200160002090506040518060400160405280600481526020017f70617965000000000000000000000000000000000000000000000000000000008152508051906020012081600601604051610c7e9190613528565b604051809103902003610cc6576040517f08c379a0000000000000000000000000000000000000000000000000000000008152600401610cbd9061358b565b60405180910390fd5b6040518060400160405280600481526020017f7061796500000000000000000000000000000000000000000000000000000000815250816006019081610d0c9190613757565b503373ffffffffffffffffffffffffffffffffffffffff16827fb721ab7d2767e645e582c99d779d54bb3193114ad7d13e7bd7f7f2fd9b1875b460405160405180910390a35050565b610d5d61185b565b610d6760006118e2565b565b6000600360009054906101000a900473ffffffffffffffffffffffffffffffffffffffff16905090565b610d9b61241b565b600560008381526020019081526020016000206040518061014001604052908160008201548152602001600182018054610dd490613238565b80601f0160208091040260200160405190810160405280929190818152602001828054610e0090613238565b8015610e4d5780601f10610e2257610100808354040283529160200191610e4d565b820191906000526020600020905b815481529060010190602001808311610e3057829003601f168201915b50505050508152602001600282018054610e6690613238565b80601f0160208091040260200160405190810160405280929190818152602001828054610e9290613238565b8015610edf5780601f10610eb457610100808354040283529160200191610edf565b820191906000526020600020905b815481529060010190602001808311610ec257829003601f168201915b50505050508152602001600382018054610ef890613238565b80601f0160208091040260200160405190810160405280929190818152602001828054610f2490613238565b8015610f715780601f10610f4657610100808354040283529160200191610f71565b820191906000526020600020905b815481529060010190602001808311610f5457829003601f168201915b5050505050815260200160048201548152602001600582018054610f9490613238565b80601f0160208091040260200160405190810160405280929190818152602001828054610fc090613238565b801561100d5780601f10610fe25761010080835404028352916020019161100d565b820191906000526020600020905b815481529060010190602001808311610ff057829003601f168201915b5050505050815260200160068201805461102690613238565b80601f016020809104026020016040519081016040528092919081815260200182805461105290613238565b801561109f5780601f106110745761010080835404028352916020019161109f565b820191906000526020600020905b81548152906001019060200180831161108257829003601f168201915b50505050508152602001600782015481526020016008820180546110c290613238565b80601f01602080910402602001604051908101604052809291908181526020018280546110ee90613238565b801561113b5780601f106111105761010080835404028352916020019161113b565b820191906000526020600020905b81548152906001019060200180831161111e57829003601f168201915b505050505081526020016009820154815250509050919050565b611167611160611733565b83836119a8565b5050565b60066020528060005260406000206000915054906101000a900473ffffffffffffffffffffffffffffffffffffffff1681565b60045481565b6000600160008473ffffffffffffffffffffffffffffffffffffffff1673ffffffffffffffffffffffffffffffffffffffff16815260200190815260200160002060008373ffffffffffffffffffffffffffffffffffffffff1673ffffffffffffffffffffffffffffffffffffffff16815260200190815260200160002060009054906101000a900460ff16905092915050565b600060045490506040518061014001604052808281526020018a81526020018981526020018881526020018781526020018681526020016040518060400160405280601081526020017f656d6973206574206e6f6e207061796500000000000000000000000000000000815250815260200185815260200184815260200142815250600560008381526020019081526020016000206000820151816000015560208201518160010190816112ec9190613757565b5060408201518160020190816113029190613757565b5060608201518160030190816113189190613757565b506080820151816004015560a08201518160050190816113389190613757565b5060c082015181600601908161134e9190613757565b5060e0820151816007015561010082015181600801908161136f9190613757565b506101208201518160090155905050336006600083815260200190815260200160002060006101000a81548173ffffffffffffffffffffffffffffffffffffffff021916908373ffffffffffffffffffffffffffffffffffffffff1602179055506113ec338260016040518060200160405280600081525061169a565b60005b825181101561148f573373ffffffffffffffffffffffffffffffffffffffff168382815181106114225761142161334d565b5b602002602001015173ffffffffffffffffffffffffffffffffffffffff161461147c5761147b83828151811061145b5761145a61334d565b5b60200260200101518360016040518060200160405280600081525061169a565b5b8080611487906133ab565b9150506113ef565b50600460008154809291906114a3906133ab565b91905055503373ffffffffffffffffffffffffffffffffffffffff16817f4e27a303d25b2e40e99bc657bbe98e016a53a2ac1696a9a7d3cd6719cad518fa836040516114ef9190612565565b60405180910390a3505050505050505050565b600061150c611733565b90508073ffffffffffffffffffffffffffffffffffffffff168673ffffffffffffffffffffffffffffffffffffffff1614158015611551575061154f86826111a4565b155b156115955780866040517fe237d92200000000000000000000000000000000000000000000000000000000815260040161158c9291906132fb565b60405180910390fd5b6115a28686868686611b18565b505050505050565b6115b261185b565b600073ffffffffffffffffffffffffffffffffffffffff168173ffffffffffffffffffffffffffffffffffffffff16036116245760006040517f1e4fbdf700000000000000000000000000000000000000000000000000000000815260040161161b9190612d16565b60405180910390fd5b61162d816118e2565b50565b60007f01ffc9a7000000000000000000000000000000000000000000000000000000007bffffffffffffffffffffffffffffffffffffffffffffffffffffffff1916827bffffffffffffffffffffffffffffffffffffffffffffffffffffffff1916149050919050565b600073ffffffffffffffffffffffffffffffffffffffff168473ffffffffffffffffffffffffffffffffffffffff160361170c5760006040517f57f447ce0000000000000000000000000000000000000000000000000000000081526004016117039190612d16565b60405180910390fd5b6000806117198585611c23565b9150915061172b600087848487611c53565b505050505050565b600033905090565b600073ffffffffffffffffffffffffffffffffffffffff168473ffffffffffffffffffffffffffffffffffffffff16036117ad5760006040517f57f447ce0000000000000000000000000000000000000000000000000000000081526004016117a49190612d16565b60405180910390fd5b600073ffffffffffffffffffffffffffffffffffffffff168573ffffffffffffffffffffffffffffffffffffffff160361181f5760006040517f01a835140000000000000000000000000000000000000000000000000000000081526004016118169190612d16565b60405180910390fd5b61182c8585858585611c53565b5050505050565b600060208202602084010151905092915050565b600060208202602084010151905092915050565b611863611733565b73ffffffffffffffffffffffffffffffffffffffff16611881610d69565b73ffffffffffffffffffffffffffffffffffffffff16146118e0576118a4611733565b6040517f118cdaa70000000000000000000000000000000000000000000000000000000081526004016118d79190612d16565b60405180910390fd5b565b6000600360009054906101000a900473ffffffffffffffffffffffffffffffffffffffff16905081600360006101000a81548173ffffffffffffffffffffffffffffffffffffffff021916908373ffffffffffffffffffffffffffffffffffffffff1602179055508173ffffffffffffffffffffffffffffffffffffffff168173ffffffffffffffffffffffffffffffffffffffff167f8be0079c531659141344cd1fd0a4f28419497f9722a3daafe3b4186f6b6457e060405160405180910390a35050565b600073ffffffffffffffffffffffffffffffffffffffff168273ffffffffffffffffffffffffffffffffffffffff1603611a1a5760006040517fced3e100000000000000000000000000000000000000000000000000000000008152600401611a119190612d16565b60405180910390fd5b80600160008573ffffffffffffffffffffffffffffffffffffffff1673ffffffffffffffffffffffffffffffffffffffff16815260200190815260200160002060008473ffffffffffffffffffffffffffffffffffffffff1673ffffffffffffffffffffffffffffffffffffffff16815260200190815260200160002060006101000a81548160ff0219169083151502179055508173ffffffffffffffffffffffffffffffffffffffff168373ffffffffffffffffffffffffffffffffffffffff167f17307eab39ab6107e8899845ad3d59bd9653f200f220920489ca2b5937696c3183604051611b0b9190612620565b60405180910390a3505050565b600073ffffffffffffffffffffffffffffffffffffffff168473ffffffffffffffffffffffffffffffffffffffff1603611b8a5760006040517f57f447ce000000000000000000000000000000000000000000000000000000008152600401611b819190612d16565b60405180910390fd5b600073ffffffffffffffffffffffffffffffffffffffff168573ffffffffffffffffffffffffffffffffffffffff1603611bfc5760006040517f01a83514000000000000000000000000000000000000000000000000000000008152600401611bf39190612d16565b60405180910390fd5b600080611c098585611c23565b91509150611c1a8787848487611c53565b50505050505050565b60608060405191506001825283602083015260408201905060018152826020820152604081016040529250929050565b611c5f85858585611d05565b600073ffffffffffffffffffffffffffffffffffffffff168473ffffffffffffffffffffffffffffffffffffffff1614611cfe576000611c9d611733565b90506001845103611ced576000611cbe60008661184790919063ffffffff16565b90506000611cd660008661184790919063ffffffff16565b9050611ce68389898585896120b3565b5050611cfc565b611cfb818787878787612267565b5b505b5050505050565b8051825114611d4f57815181516040517f5b059991000000000000000000000000000000000000000000000000000000008152600401611d46929190613324565b60405180910390fd5b6000611d59611733565b905060005b8351811015611f6e576000611d7c828661184790919063ffffffff16565b90506000611d93838661184790919063ffffffff16565b9050600073ffffffffffffffffffffffffffffffffffffffff168873ffffffffffffffffffffffffffffffffffffffff1614611ec057600080600084815260200190815260200160002060008a73ffffffffffffffffffffffffffffffffffffffff1673ffffffffffffffffffffffffffffffffffffffff16815260200190815260200160002054905081811015611e6857888183856040517f03dee4c5000000000000000000000000000000000000000000000000000000008152600401611e5f9493929190613829565b60405180910390fd5b81810360008085815260200190815260200160002060008b73ffffffffffffffffffffffffffffffffffffffff1673ffffffffffffffffffffffffffffffffffffffff16815260200190815260200160002081905550505b600073ffffffffffffffffffffffffffffffffffffffff168773ffffffffffffffffffffffffffffffffffffffff1614611f5b578060008084815260200190815260200160002060008973ffffffffffffffffffffffffffffffffffffffff1673ffffffffffffffffffffffffffffffffffffffff1681526020019081526020016000206000828254611f53919061386e565b925050819055505b505080611f67906133ab565b9050611d5e565b50600183510361202d576000611f8e60008561184790919063ffffffff16565b90506000611fa660008561184790919063ffffffff16565b90508573ffffffffffffffffffffffffffffffffffffffff168773ffffffffffffffffffffffffffffffffffffffff168473ffffffffffffffffffffffffffffffffffffffff167fc3d58168c5ae7397731d063d5bbf3d657854427343f4c083240f7aacaa2d0f62858560405161201e929190613324565b60405180910390a450506120ac565b8373ffffffffffffffffffffffffffffffffffffffff168573ffffffffffffffffffffffffffffffffffffffff168273ffffffffffffffffffffffffffffffffffffffff167f4a39dc06d4c0dbc64b70af90fd698a233a518aa5d07e595d983b8c0526c8f7fb86866040516120a39291906138a2565b60405180910390a45b5050505050565b60008473ffffffffffffffffffffffffffffffffffffffff163b111561225f578373ffffffffffffffffffffffffffffffffffffffff1663f23a6e6187878686866040518663ffffffff1660e01b815260040161211495949392919061392e565b6020604051808303816000875af192505050801561215057506040513d601f19601f8201168201806040525081019061214d919061399d565b60015b6121d4573d8060008114612180576040519150601f19603f3d011682016040523d82523d6000602084013e612185565b606091505b5060008151036121cc57846040517f57f447ce0000000000000000000000000000000000000000000000000000000081526004016121c39190612d16565b60405180910390fd5b805181602001fd5b63f23a6e6160e01b7bffffffffffffffffffffffffffffffffffffffffffffffffffffffff1916817bffffffffffffffffffffffffffffffffffffffffffffffffffffffff19161461225d57846040517f57f447ce0000000000000000000000000000000000000000000000000000000081526004016122549190612d16565b60405180910390fd5b505b505050505050565b60008473ffffffffffffffffffffffffffffffffffffffff163b1115612413578373ffffffffffffffffffffffffffffffffffffffff1663bc197c8187878686866040518663ffffffff1660e01b81526004016122c89594939291906139ca565b6020604051808303816000875af192505050801561230457506040513d601f19601f82011682018060405250810190612301919061399d565b60015b612388573d8060008114612334576040519150601f19603f3d011682016040523d82523d6000602084013e612339565b606091505b50600081510361238057846040517f57f447ce0000000000000000000000000000000000000000000000000000000081526004016123779190612d16565b60405180910390fd5b805181602001fd5b63bc197c8160e01b7bffffffffffffffffffffffffffffffffffffffffffffffffffffffff1916817bffffffffffffffffffffffffffffffffffffffffffffffffffffffff19161461241157846040517f57f447ce0000000000000000000000000000000000000000000000000000000081526004016124089190612d16565b60405180910390fd5b505b505050505050565b604051806101400160405280600081526020016060815260200160608152602001606081526020016000815260200160608152602001606081526020016000815260200160608152602001600081525090565b6000604051905090565b600080fd5b600080fd5b600073ffffffffffffffffffffffffffffffffffffffff82169050919050565b60006124ad82612482565b9050919050565b6124bd816124a2565b81146124c857600080fd5b50565b6000813590506124da816124b4565b92915050565b6000819050919050565b6124f3816124e0565b81146124fe57600080fd5b50565b600081359050612510816124ea565b92915050565b6000806040838503121561252d5761252c612478565b5b600061253b858286016124cb565b925050602061254c85828601612501565b9150509250929050565b61255f816124e0565b82525050565b600060208201905061257a6000830184612556565b92915050565b60007fffffffff0000000000000000000000000000000000000000000000000000000082169050919050565b6125b581612580565b81146125c057600080fd5b50565b6000813590506125d2816125ac565b92915050565b6000602082840312156125ee576125ed612478565b5b60006125fc848285016125c3565b91505092915050565b60008115159050919050565b61261a81612605565b82525050565b60006020820190506126356000830184612611565b92915050565b60006020828403121561265157612650612478565b5b600061265f84828501612501565b91505092915050565b600081519050919050565b600082825260208201905092915050565b60005b838110156126a2578082015181840152602081019050612687565b60008484015250505050565b6000601f19601f8301169050919050565b60006126ca82612668565b6126d48185612673565b93506126e4818560208601612684565b6126ed816126ae565b840191505092915050565b6000602082019050818103600083015261271281846126bf565b905092915050565b6000806040838503121561273157612730612478565b5b600061273f85828601612501565b925050602061275085828601612501565b9150509250929050565b600080fd5b7f4e487b7100000000000000000000000000000000000000000000000000000000600052604160045260246000fd5b612797826126ae565b810181811067ffffffffffffffff821117156127b6576127b561275f565b5b80604052505050565b60006127c961246e565b90506127d5828261278e565b919050565b600067ffffffffffffffff8211156127f5576127f461275f565b5b602082029050602081019050919050565b600080fd5b600061281e612819846127da565b6127bf565b9050808382526020820190506020840283018581111561284157612840612806565b5b835b8181101561286a57806128568882612501565b845260208401935050602081019050612843565b5050509392505050565b600082601f8301126128895761288861275a565b5b813561289984826020860161280b565b91505092915050565b600080fd5b600067ffffffffffffffff8211156128c2576128c161275f565b5b6128cb826126ae565b9050602081019050919050565b82818337600083830152505050565b60006128fa6128f5846128a7565b6127bf565b905082815260208101848484011115612916576129156128a2565b5b6129218482856128d8565b509392505050565b600082601f83011261293e5761293d61275a565b5b813561294e8482602086016128e7565b91505092915050565b600080600080600060a0868803121561297357612972612478565b5b6000612981888289016124cb565b9550506020612992888289016124cb565b945050604086013567ffffffffffffffff8111156129b3576129b261247d565b5b6129bf88828901612874565b935050606086013567ffffffffffffffff8111156129e0576129df61247d565b5b6129ec88828901612874565b925050608086013567ffffffffffffffff811115612a0d57612a0c61247d565b5b612a1988828901612929565b9150509295509295909350565b600067ffffffffffffffff821115612a4157612a4061275f565b5b602082029050602081019050919050565b6000612a65612a6084612a26565b6127bf565b90508083825260208201905060208402830185811115612a8857612a87612806565b5b835b81811015612ab15780612a9d88826124cb565b845260208401935050602081019050612a8a565b5050509392505050565b600082601f830112612ad057612acf61275a565b5b8135612ae0848260208601612a52565b91505092915050565b60008060408385031215612b0057612aff612478565b5b600083013567ffffffffffffffff811115612b1e57612b1d61247d565b5b612b2a85828601612abb565b925050602083013567ffffffffffffffff811115612b4b57612b4a61247d565b5b612b5785828601612874565b9150509250929050565b600081519050919050565b600082825260208201905092915050565b6000819050602082019050919050565b612b96816124e0565b82525050565b6000612ba88383612b8d565b60208301905092915050565b6000602082019050919050565b6000612bcc82612b61565b612bd68185612b6c565b9350612be183612b7d565b8060005b83811015612c12578151612bf98882612b9c565b9750612c0483612bb4565b925050600181019050612be5565b5085935050505092915050565b60006020820190508181036000830152612c398184612bc1565b905092915050565b600061014082019050612c57600083018d612556565b8181036020830152612c69818c6126bf565b90508181036040830152612c7d818b6126bf565b90508181036060830152612c91818a6126bf565b9050612ca06080830189612556565b81810360a0830152612cb281886126bf565b905081810360c0830152612cc681876126bf565b9050612cd560e0830186612556565b818103610100830152612ce881856126bf565b9050612cf8610120830184612556565b9b9a5050505050505050505050565b612d10816124a2565b82525050565b6000602082019050612d2b6000830184612d07565b92915050565b600082825260208201905092915050565b6000612d4d82612668565b612d578185612d31565b9350612d67818560208601612684565b612d70816126ae565b840191505092915050565b600061014083016000830151612d946000860182612b8d565b5060208301518482036020860152612dac8282612d42565b91505060408301518482036040860152612dc68282612d42565b91505060608301518482036060860152612de08282612d42565b9150506080830151612df56080860182612b8d565b5060a083015184820360a0860152612e0d8282612d42565b91505060c083015184820360c0860152612e278282612d42565b91505060e0830151612e3c60e0860182612b8d565b50610100830151848203610100860152612e568282612d42565b915050610120830151612e6d610120860182612b8d565b508091505092915050565b60006020820190508181036000830152612e928184612d7b565b905092915050565b612ea381612605565b8114612eae57600080fd5b50565b600081359050612ec081612e9a565b92915050565b60008060408385031215612edd57612edc612478565b5b6000612eeb858286016124cb565b9250506020612efc85828601612eb1565b9150509250929050565b60008060408385031215612f1d57612f1c612478565b5b6000612f2b858286016124cb565b9250506020612f3c858286016124cb565b9150509250929050565b600067ffffffffffffffff821115612f6157612f6061275f565b5b612f6a826126ae565b9050602081019050919050565b6000612f8a612f8584612f46565b6127bf565b905082815260208101848484011115612fa657612fa56128a2565b5b612fb18482856128d8565b509392505050565b600082601f830112612fce57612fcd61275a565b5b8135612fde848260208601612f77565b91505092915050565b600080600080600080600080610100898b03121561300857613007612478565b5b600089013567ffffffffffffffff8111156130265761302561247d565b5b6130328b828c01612fb9565b985050602089013567ffffffffffffffff8111156130535761305261247d565b5b61305f8b828c01612fb9565b975050604089013567ffffffffffffffff8111156130805761307f61247d565b5b61308c8b828c01612fb9565b965050606061309d8b828c01612501565b955050608089013567ffffffffffffffff8111156130be576130bd61247d565b5b6130ca8b828c01612fb9565b94505060a06130db8b828c01612501565b93505060c089013567ffffffffffffffff8111156130fc576130fb61247d565b5b6131088b828c01612fb9565b92505060e089013567ffffffffffffffff8111156131295761312861247d565b5b6131358b828c01612abb565b9150509295985092959890939650565b600080600080600060a0868803121561316157613160612478565b5b600061316f888289016124cb565b9550506020613180888289016124cb565b945050604061319188828901612501565b93505060606131a288828901612501565b925050608086013567ffffffffffffffff8111156131c3576131c261247d565b5b6131cf88828901612929565b9150509295509295909350565b6000602082840312156131f2576131f1612478565b5b6000613200848285016124cb565b91505092915050565b7f4e487b7100000000000000000000000000000000000000000000000000000000600052602260045260246000fd5b6000600282049050600182168061325057607f821691505b60208210810361326357613262613209565b5b50919050565b7f5365756c206c65206372656174657572206465206c612066616374757265207060008201527f657574206d696e74657220706c757320646520636f7069657300000000000000602082015250565b60006132c5603983612673565b91506132d082613269565b604082019050919050565b600060208201905081810360008301526132f4816132b8565b9050919050565b60006040820190506133106000830185612d07565b61331d6020830184612d07565b9392505050565b60006040820190506133396000830185612556565b6133466020830184612556565b9392505050565b7f4e487b7100000000000000000000000000000000000000000000000000000000600052603260045260246000fd5b7f4e487b7100000000000000000000000000000000000000000000000000000000600052601160045260246000fd5b60006133b6826124e0565b91507fffffffffffffffffffffffffffffffffffffffffffffffffffffffffffffffff82036133e8576133e761337c565b5b600182019050919050565b7f5365756c206c65206372656174657572206465206c612066616374757265207060008201527f657574206c61206d61727175657220636f6d6d65207061796565000000000000602082015250565b600061344f603a83612673565b915061345a826133f3565b604082019050919050565b6000602082019050818103600083015261347e81613442565b9050919050565b600081905092915050565b60008190508160005260206000209050919050565b600081546134b281613238565b6134bc8186613485565b945060018216600081146134d757600181146134ec5761351f565b60ff198316865281151582028601935061351f565b6134f585613490565b60005b83811015613517578154818901526001820191506020810190506134f8565b838801955050505b50505092915050565b600061353482846134a5565b915081905092915050565b7f4c612066616374757265206573742064656a612070617965652e000000000000600082015250565b6000613575601a83612673565b91506135808261353f565b602082019050919050565b600060208201905081810360008301526135a481613568565b9050919050565b60008190508160005260206000209050919050565b60006020601f8301049050919050565b600082821b905092915050565b60006008830261360d7fffffffffffffffffffffffffffffffffffffffffffffffffffffffffffffffff826135d0565b61361786836135d0565b95508019841693508086168417925050509392505050565b6000819050919050565b600061365461364f61364a846124e0565b61362f565b6124e0565b9050919050565b6000819050919050565b61366e83613639565b61368261367a8261365b565b8484546135dd565b825550505050565b600090565b61369761368a565b6136a2818484613665565b505050565b5b818110156136c6576136bb60008261368f565b6001810190506136a8565b5050565b601f82111561370b576136dc816135ab565b6136e5846135c0565b810160208510156136f4578190505b613708613700856135c0565b8301826136a7565b50505b505050565b600082821c905092915050565b600061372e60001984600802613710565b1980831691505092915050565b6000613747838361371d565b9150826002028217905092915050565b61376082612668565b67ffffffffffffffff8111156137795761377861275f565b5b6137838254613238565b61378e8282856136ca565b600060209050601f8311600181146137c157600084156137af578287015190505b6137b9858261373b565b865550613821565b601f1984166137cf866135ab565b60005b828110156137f7578489015182556001820191506020850194506020810190506137d2565b868310156138145784890151613810601f89168261371d565b8355505b6001600288020188555050505b505050505050565b600060808201905061383e6000830187612d07565b61384b6020830186612556565b6138586040830185612556565b6138656060830184612556565b95945050505050565b6000613879826124e0565b9150613884836124e0565b925082820190508082111561389c5761389b61337c565b5b92915050565b600060408201905081810360008301526138bc8185612bc1565b905081810360208301526138d08184612bc1565b90509392505050565b600081519050919050565b600082825260208201905092915050565b6000613900826138d9565b61390a81856138e4565b935061391a818560208601612684565b613923816126ae565b840191505092915050565b600060a0820190506139436000830188612d07565b6139506020830187612d07565b61395d6040830186612556565b61396a6060830185612556565b818103608083015261397c81846138f5565b90509695505050505050565b600081519050613997816125ac565b92915050565b6000602082840312156139b3576139b2612478565b5b60006139c184828501613988565b91505092915050565b600060a0820190506139df6000830188612d07565b6139ec6020830187612d07565b81810360408301526139fe8186612bc1565b90508181036060830152613a128185612bc1565b90508181036080830152613a2681846138f5565b9050969550505050505056fea264697066735822122020a7d1124365b4d829ed9bab2656161b395167d007095700fad5c036400e48c764736f6c6343000814003368747470733a2f2f6170692e6578616d706c652e636f6d2f6d657461646174612f7b69647d2e6a736f6e",
  "linkReferences": {},
  "deployedLinkReferences": {}
}