{
  "_format": "hh-sol-artifact-1",
  "contractName": "PaymentWithSoCash",
  "sourceName": "contracts/PayInvoice.sol",
  "abi": [
    {
      "inputs": [
        {
          "internalType": "address",
          "name": "_invoiceContractAddress",
          "type": "address"
        },
        {
          "internalType": "address",
          "name": "_soCashClientAccount",
          "type": "address"
        },
        {
          "internalType": "address",
          "name": "_soCashProviderAccount",
          "type": "address"
        }
      ],
      "stateMutability": "nonpayable",
      "type": "constructor"
    },
    {
      "anonymous": false,
      "inputs": [
        {
          "indexed": false,
          "internalType": "uint256",
          "name": "invoiceId",
          "type": "uint256"
        },
        {
          "indexed": false,
          "internalType": "uint256",
          "name": "amount",
          "type": "uint256"
        },
        {
          "indexed": false,
          "internalType": "string",
          "name": "currency",
          "type": "string"
        }
      ],
      "name": "PaymentExecuted",
      "type": "event"
    },
    {
      "inputs": [],
      "name": "invoiceContractAddress",
      "outputs": [
        {
          "internalType": "address",
          "name": "",
          "type": "address"
        }
      ],
      "stateMutability": "view",
      "type": "function"
    },
    {
      "inputs": [
        {
          "internalType": "uint256",
          "name": "invoiceId",
          "type": "uint256"
        },
        {
          "internalType": "uint256",
          "name": "amount",
          "type": "uint256"
        },
        {
          "internalType": "string",
          "name": "currency",
          "type": "string"
        }
      ],
      "name": "payInvoice",
      "outputs": [],
      "stateMutability": "nonpayable",
      "type": "function"
    },
    {
      "inputs": [],
      "name": "soCashClientAccount",
      "outputs": [
        {
          "internalType": "contract SoCashAccount",
          "name": "",
          "type": "address"
        }
      ],
      "stateMutability": "view",
      "type": "function"
    },
    {
      "inputs": [],
      "name": "soCashProviderAccount",
      "outputs": [
        {
          "internalType": "contract SoCashAccount",
          "name": "",
          "type": "address"
        }
      ],
      "stateMutability": "view",
      "type": "function"
    }
  ],
  "bytecode": "0x608060405234801561001057600080fd5b50604051610b3f380380610b3f8339818101604052810190610032919061015f565b826000806101000a81548173ffffffffffffffffffffffffffffffffffffffff021916908373ffffffffffffffffffffffffffffffffffffffff16021790555081600160006101000a81548173ffffffffffffffffffffffffffffffffffffffff021916908373ffffffffffffffffffffffffffffffffffffffff16021790555080600260006101000a81548173ffffffffffffffffffffffffffffffffffffffff021916908373ffffffffffffffffffffffffffffffffffffffff1602179055505050506101b2565b600080fd5b600073ffffffffffffffffffffffffffffffffffffffff82169050919050565b600061012c82610101565b9050919050565b61013c81610121565b811461014757600080fd5b50565b60008151905061015981610133565b92915050565b600080600060608486031215610178576101776100fc565b5b60006101868682870161014a565b93505060206101978682870161014a565b92505060406101a88682870161014a565b9150509250925092565b61097e806101c16000396000f3fe608060405234801561001057600080fd5b506004361061004c5760003560e01c80634d9555ec1461005157806382f49da01461006f578063952df1e61461008d578063c917e720146100ab575b600080fd5b6100596100c7565b60405161006691906103d7565b60405180910390f35b6100776100ed565b60405161008491906103d7565b60405180910390f35b610095610113565b6040516100a29190610413565b60405180910390f35b6100c560048036038101906100c091906105be565b610137565b005b600160009054906101000a900473ffffffffffffffffffffffffffffffffffffffff1681565b600260009054906101000a900473ffffffffffffffffffffffffffffffffffffffff1681565b60008054906101000a900473ffffffffffffffffffffffffffffffffffffffff1681565b60006040518060600160405280600260009054906101000a900473ffffffffffffffffffffffffffffffffffffffff1673ffffffffffffffffffffffffffffffffffffffff168152602001600060a81b74ffffffffffffffffffffffffffffffffffffffffff191681526020016000801b8152509050600160009054906101000a900473ffffffffffffffffffffffffffffffffffffffff1673ffffffffffffffffffffffffffffffffffffffff1663a5472f8582856040518363ffffffff1660e01b815260040161020a929190610774565b6020604051808303816000875af1158015610229573d6000803e3d6000fd5b505050506040513d601f19601f8201168201806040525081019061024d91906107e8565b61028c576040517f08c379a000000000000000000000000000000000000000000000000000000000815260040161028390610861565b60405180910390fd5b60008054906101000a900473ffffffffffffffffffffffffffffffffffffffff1673ffffffffffffffffffffffffffffffffffffffff16637021cafe856040518263ffffffff1660e01b81526004016102e59190610881565b600060405180830381600087803b1580156102ff57600080fd5b505af1158015610313573d6000803e3d6000fd5b505050507fc21301e1b91bef2be25992fe7baee9225bd61a611721700554c3b8b4b47a201484848460405161034a9392919061090a565b60405180910390a150505050565b600073ffffffffffffffffffffffffffffffffffffffff82169050919050565b6000819050919050565b600061039d61039861039384610358565b610378565b610358565b9050919050565b60006103af82610382565b9050919050565b60006103c1826103a4565b9050919050565b6103d1816103b6565b82525050565b60006020820190506103ec60008301846103c8565b92915050565b60006103fd82610358565b9050919050565b61040d816103f2565b82525050565b60006020820190506104286000830184610404565b92915050565b6000604051905090565b600080fd5b600080fd5b6000819050919050565b61045581610442565b811461046057600080fd5b50565b6000813590506104728161044c565b92915050565b600080fd5b600080fd5b6000601f19601f8301169050919050565b7f4e487b7100000000000000000000000000000000000000000000000000000000600052604160045260246000fd5b6104cb82610482565b810181811067ffffffffffffffff821117156104ea576104e9610493565b5b80604052505050565b60006104fd61042e565b905061050982826104c2565b919050565b600067ffffffffffffffff82111561052957610528610493565b5b61053282610482565b9050602081019050919050565b82818337600083830152505050565b600061056161055c8461050e565b6104f3565b90508281526020810184848401111561057d5761057c61047d565b5b61058884828561053f565b509392505050565b600082601f8301126105a5576105a4610478565b5b81356105b584826020860161054e565b91505092915050565b6000806000606084860312156105d7576105d6610438565b5b60006105e586828701610463565b93505060206105f686828701610463565b925050604084013567ffffffffffffffff8111156106175761061661043d565b5b61062386828701610590565b9150509250925092565b6000610638826103a4565b9050919050565b6106488161062d565b82525050565b60007fffffffffffffffffffffff00000000000000000000000000000000000000000082169050919050565b60006106858261064e565b9050919050565b6106958161067a565b82525050565b6000819050919050565b60006106b08261069b565b9050919050565b6106c0816106a5565b82525050565b6060820160008201516106dc600085018261063f565b5060208201516106ef602085018261068c565b50604082015161070260408501826106b7565b50505050565b61071181610442565b82525050565b600082825260208201905092915050565b7f5061796d656e7420666f7220496e766f69636500000000000000000000000000600082015250565b600061075e601383610717565b915061076982610728565b602082019050919050565b600060a08201905061078960008301856106c6565b6107966060830184610708565b81810360808301526107a781610751565b90509392505050565b60008115159050919050565b6107c5816107b0565b81146107d057600080fd5b50565b6000815190506107e2816107bc565b92915050565b6000602082840312156107fe576107fd610438565b5b600061080c848285016107d3565b91505092915050565b7f5061796d656e74206661696c6564000000000000000000000000000000000000600082015250565b600061084b600e83610717565b915061085682610815565b602082019050919050565b6000602082019050818103600083015261087a8161083e565b9050919050565b60006020820190506108966000830184610708565b92915050565b600081519050919050565b60005b838110156108c55780820151818401526020810190506108aa565b60008484015250505050565b60006108dc8261089c565b6108e68185610717565b93506108f68185602086016108a7565b6108ff81610482565b840191505092915050565b600060608201905061091f6000830186610708565b61092c6020830185610708565b818103604083015261093e81846108d1565b905094935050505056fea26469706673582212203080ae4c9f62433da77fb5f6dc188fd3b66687ad4d5409b7411e7b98bcae988b64736f6c634300081b0033",
  "linkReferences": {},
  "deployedLinkReferences": {}
}